{
  "_format": "hh-sol-artifact-1",
  "contractName": "ClimateDAO",
  "sourceName": "contracts/ClimateDAO.sol",
  "abi": [
    {
      "inputs": [
        {
          "internalType": "address",
          "name": "_climateToken",
          "type": "address"
        }
      ],
      "stateMutability": "nonpayable",
      "type": "constructor"
    },
    {
      "inputs": [
        {
          "internalType": "address",
          "name": "owner",
          "type": "address"
        }
      ],
      "name": "OwnableInvalidOwner",
      "type": "error"
    },
    {
      "inputs": [
        {
          "internalType": "address",
          "name": "account",
          "type": "address"
        }
      ],
      "name": "OwnableUnauthorizedAccount",
      "type": "error"
    },
    {
      "inputs": [],
      "name": "ReentrancyGuardReentrantCall",
      "type": "error"
    },
    {
      "anonymous": false,
      "inputs": [
        {
          "indexed": true,
          "internalType": "uint256",
          "name": "proposalId",
          "type": "uint256"
        },
        {
          "indexed": true,
          "internalType": "address",
          "name": "beneficiary",
          "type": "address"
        },
        {
          "indexed": false,
          "internalType": "uint256",
          "name": "amount",
          "type": "uint256"
        }
      ],
      "name": "FundsDistributed",
      "type": "event"
    },
    {
      "anonymous": false,
      "inputs": [
        {
          "indexed": true,
          "internalType": "address",
          "name": "donor",
          "type": "address"
        },
        {
          "indexed": false,
          "internalType": "uint256",
          "name": "amount",
          "type": "uint256"
        },
        {
          "indexed": false,
          "internalType": "uint256",
          "name": "totalRaised",
          "type": "uint256"
        }
      ],
      "name": "FundsDonated",
      "type": "event"
    },
    {
      "anonymous": false,
      "inputs": [
        {
          "indexed": true,
          "internalType": "address",
          "name": "moderator",
          "type": "address"
        }
      ],
      "name": "ModeratorAdded",
      "type": "event"
    },
    {
      "anonymous": false,
      "inputs": [
        {
          "indexed": true,
          "internalType": "address",
          "name": "moderator",
          "type": "address"
        }
      ],
      "name": "ModeratorRemoved",
      "type": "event"
    },
    {
      "anonymous": false,
      "inputs": [
        {
          "indexed": true,
          "internalType": "address",
          "name": "previousOwner",
          "type": "address"
        },
        {
          "indexed": true,
          "internalType": "address",
          "name": "newOwner",
          "type": "address"
        }
      ],
      "name": "OwnershipTransferred",
      "type": "event"
    },
    {
      "anonymous": false,
      "inputs": [
        {
          "indexed": false,
          "internalType": "uint256",
          "name": "oldFee",
          "type": "uint256"
        },
        {
          "indexed": false,
          "internalType": "uint256",
          "name": "newFee",
          "type": "uint256"
        }
      ],
      "name": "PlatformFeeUpdated",
      "type": "event"
    },
    {
      "anonymous": false,
      "inputs": [
        {
          "indexed": true,
          "internalType": "uint256",
          "name": "proposalId",
          "type": "uint256"
        },
        {
          "indexed": true,
          "internalType": "address",
          "name": "proposer",
          "type": "address"
        },
        {
          "indexed": true,
          "internalType": "address",
          "name": "proposalContract",
          "type": "address"
        },
        {
          "indexed": false,
          "internalType": "string",
          "name": "title",
          "type": "string"
        },
        {
          "indexed": false,
          "internalType": "uint256",
          "name": "requestedAmount",
          "type": "uint256"
        }
      ],
      "name": "ProposalCreated",
      "type": "event"
    },
    {
      "inputs": [],
      "name": "MAJORITY_THRESHOLD",
      "outputs": [
        {
          "internalType": "uint256",
          "name": "",
          "type": "uint256"
        }
      ],
      "stateMutability": "view",
      "type": "function"
    },
    {
      "inputs": [],
      "name": "MAX_PLATFORM_FEE",
      "outputs": [
        {
          "internalType": "uint256",
          "name": "",
          "type": "uint256"
        }
      ],
      "stateMutability": "view",
      "type": "function"
    },
    {
      "inputs": [],
      "name": "MAX_PROPOSAL_AMOUNT",
      "outputs": [
        {
          "internalType": "uint256",
          "name": "",
          "type": "uint256"
        }
      ],
      "stateMutability": "view",
      "type": "function"
    },
    {
      "inputs": [],
      "name": "MIN_PROPOSAL_AMOUNT",
      "outputs": [
        {
          "internalType": "uint256",
          "name": "",
          "type": "uint256"
        }
      ],
      "stateMutability": "view",
      "type": "function"
    },
    {
      "inputs": [],
      "name": "QUORUM_THRESHOLD",
      "outputs": [
        {
          "internalType": "uint256",
          "name": "",
          "type": "uint256"
        }
      ],
      "stateMutability": "view",
      "type": "function"
    },
    {
      "inputs": [],
      "name": "VOTING_DURATION",
      "outputs": [
        {
          "internalType": "uint256",
          "name": "",
          "type": "uint256"
        }
      ],
      "stateMutability": "view",
      "type": "function"
    },
    {
      "inputs": [
        {
          "internalType": "address",
          "name": "moderator",
          "type": "address"
        }
      ],
      "name": "addModerator",
      "outputs": [],
      "stateMutability": "nonpayable",
      "type": "function"
    },
    {
      "inputs": [],
      "name": "climateToken",
      "outputs": [
        {
          "internalType": "contract ClimateToken",
          "name": "",
          "type": "address"
        }
      ],
      "stateMutability": "view",
      "type": "function"
    },
    {
      "inputs": [
        {
          "internalType": "address",
          "name": "beneficiary",
          "type": "address"
        },
        {
          "components": [
            {
              "internalType": "string",
              "name": "title",
              "type": "string"
            },
            {
              "internalType": "string",
              "name": "description",
              "type": "string"
            },
            {
              "internalType": "string",
              "name": "location",
              "type": "string"
            },
            {
              "internalType": "enum Proposal.ProjectCategory",
              "name": "category",
              "type": "uint8"
            },
            {
              "internalType": "uint256",
              "name": "requestedAmount",
              "type": "uint256"
            },
            {
              "internalType": "uint256",
              "name": "duration",
              "type": "uint256"
            },
            {
              "internalType": "string",
              "name": "website",
              "type": "string"
            },
            {
              "internalType": "string[]",
              "name": "images",
              "type": "string[]"
            }
          ],
          "internalType": "struct Proposal.ProjectDetails",
          "name": "projectDetails",
          "type": "tuple"
        }
      ],
      "name": "createProposal",
      "outputs": [
        {
          "internalType": "uint256",
          "name": "",
          "type": "uint256"
        }
      ],
      "stateMutability": "nonpayable",
      "type": "function"
    },
    {
      "inputs": [
        {
          "internalType": "uint256",
          "name": "amount",
          "type": "uint256"
        }
      ],
      "name": "donateFunds",
      "outputs": [],
      "stateMutability": "nonpayable",
      "type": "function"
    },
    {
      "inputs": [
        {
          "internalType": "uint256",
          "name": "proposalId",
          "type": "uint256"
        }
      ],
      "name": "executeProposal",
      "outputs": [],
      "stateMutability": "nonpayable",
      "type": "function"
    },
    {
      "inputs": [],
      "name": "getDAOStats",
      "outputs": [
        {
          "internalType": "uint256",
          "name": "totalProposals",
          "type": "uint256"
        },
        {
          "internalType": "uint256",
          "name": "totalRaised",
          "type": "uint256"
        },
        {
          "internalType": "uint256",
          "name": "totalDistributed",
          "type": "uint256"
        },
        {
          "internalType": "uint256",
          "name": "currentBalance",
          "type": "uint256"
        }
      ],
      "stateMutability": "view",
      "type": "function"
    },
    {
      "inputs": [
        {
          "internalType": "uint256",
          "name": "proposalId",
          "type": "uint256"
        }
      ],
      "name": "getProposalDetails",
      "outputs": [
        {
          "internalType": "address",
          "name": "proposalAddress",
          "type": "address"
        },
        {
          "internalType": "address",
          "name": "proposer",
          "type": "address"
        },
        {
          "internalType": "address",
          "name": "beneficiary",
          "type": "address"
        },
        {
          "internalType": "enum Proposal.ProposalStatus",
          "name": "status",
          "type": "uint8"
        }
      ],
      "stateMutability": "view",
      "type": "function"
    },
    {
      "inputs": [
        {
          "internalType": "address",
          "name": "user",
          "type": "address"
        }
      ],
      "name": "getUserProposals",
      "outputs": [
        {
          "internalType": "uint256[]",
          "name": "",
          "type": "uint256[]"
        }
      ],
      "stateMutability": "view",
      "type": "function"
    },
    {
      "inputs": [
        {
          "internalType": "address",
          "name": "",
          "type": "address"
        }
      ],
      "name": "isModerator",
      "outputs": [
        {
          "internalType": "bool",
          "name": "",
          "type": "bool"
        }
      ],
      "stateMutability": "view",
      "type": "function"
    },
    {
      "inputs": [],
      "name": "owner",
      "outputs": [
        {
          "internalType": "address",
          "name": "",
          "type": "address"
        }
      ],
      "stateMutability": "view",
      "type": "function"
    },
    {
      "inputs": [],
      "name": "platformFee",
      "outputs": [
        {
          "internalType": "uint256",
          "name": "",
          "type": "uint256"
        }
      ],
      "stateMutability": "view",
      "type": "function"
    },
    {
      "inputs": [],
      "name": "proposalCounter",
      "outputs": [
        {
          "internalType": "uint256",
          "name": "",
          "type": "uint256"
        }
      ],
      "stateMutability": "view",
      "type": "function"
    },
    {
      "inputs": [
        {
          "internalType": "uint256",
          "name": "",
          "type": "uint256"
        }
      ],
      "name": "proposals",
      "outputs": [
        {
          "internalType": "address",
          "name": "",
          "type": "address"
        }
      ],
      "stateMutability": "view",
      "type": "function"
    },
    {
      "inputs": [
        {
          "internalType": "address",
          "name": "moderator",
          "type": "address"
        }
      ],
      "name": "removeModerator",
      "outputs": [],
      "stateMutability": "nonpayable",
      "type": "function"
    },
    {
      "inputs": [],
      "name": "renounceOwnership",
      "outputs": [],
      "stateMutability": "nonpayable",
      "type": "function"
    },
    {
      "inputs": [],
      "name": "totalFundsDistributed",
      "outputs": [
        {
          "internalType": "uint256",
          "name": "",
          "type": "uint256"
        }
      ],
      "stateMutability": "view",
      "type": "function"
    },
    {
      "inputs": [],
      "name": "totalFundsRaised",
      "outputs": [
        {
          "internalType": "uint256",
          "name": "",
          "type": "uint256"
        }
      ],
      "stateMutability": "view",
      "type": "function"
    },
    {
      "inputs": [
        {
          "internalType": "address",
          "name": "newOwner",
          "type": "address"
        }
      ],
      "name": "transferOwnership",
      "outputs": [],
      "stateMutability": "nonpayable",
      "type": "function"
    },
    {
      "inputs": [
        {
          "internalType": "uint256",
          "name": "newFee",
          "type": "uint256"
        }
      ],
      "name": "updatePlatformFee",
      "outputs": [],
      "stateMutability": "nonpayable",
      "type": "function"
    },
    {
      "inputs": [
        {
          "internalType": "uint256",
          "name": "proposalId",
          "type": "uint256"
        },
        {
          "internalType": "uint256",
          "name": "co2Reduction",
          "type": "uint256"
        },
        {
          "internalType": "uint256",
          "name": "energyGeneration",
          "type": "uint256"
        },
        {
          "internalType": "uint256",
          "name": "jobsCreated",
          "type": "uint256"
        },
        {
          "internalType": "uint256",
          "name": "aiScore",
          "type": "uint256"
        }
      ],
      "name": "updateProposalImpactMetrics",
      "outputs": [],
      "stateMutability": "nonpayable",
      "type": "function"
    },
    {
      "inputs": [
        {
          "internalType": "address",
          "name": "",
          "type": "address"
        }
      ],
      "name": "userContributions",
      "outputs": [
        {
          "internalType": "uint256",
          "name": "",
          "type": "uint256"
        }
      ],
      "stateMutability": "view",
      "type": "function"
    },
    {
      "inputs": [
        {
          "internalType": "address",
          "name": "",
          "type": "address"
        },
        {
          "internalType": "uint256",
          "name": "",
          "type": "uint256"
        }
      ],
      "name": "userProposals",
      "outputs": [
        {
          "internalType": "uint256",
          "name": "",
          "type": "uint256"
        }
      ],
      "stateMutability": "view",
      "type": "function"
    },
    {
      "inputs": [
        {
          "internalType": "uint256",
          "name": "amount",
          "type": "uint256"
        }
      ],
      "name": "withdrawFees",
      "outputs": [],
      "stateMutability": "nonpayable",
      "type": "function"
    }
  ],
  "bytecode": "0x60a060405260fa6005553480156200001657600080fd5b5060405162003aa438038062003aa48339810160408190526200003991620000ef565b33806200006057604051631e4fbdf760e01b81526000600482015260240160405180910390fd5b6200006b816200009f565b5060018080556001600160a01b03909116608052336000908152600960205260409020805460ff1916909117905562000121565b600080546001600160a01b038381166001600160a01b0319831681178455604051919092169283917f8be0079c531659141344cd1fd0a4f28419497f9722a3daafe3b4186f6b6457e09190a35050565b6000602082840312156200010257600080fd5b81516001600160a01b03811681146200011a57600080fd5b9392505050565b60805161393d620001676000396000818161030e01528181610711015281816107c601528181610bad01528181610c6d015281816112160152611648015261393d6000f3fe60806040523480156200001157600080fd5b5060043610620001f55760003560e01c80635e510b601162000119578063aa0b598811620000af578063f2fde38b116200007a578063f2fde38b146200042b578063f540ac2e1462000442578063fa6f39361462000459578063ffc4bfde146200049057600080fd5b8063aa0b598814620003dd578063b532e4cb14620003f4578063d32521a0146200040b578063db9b9542146200042257600080fd5b8063869d785f11620000f0578063869d785f14620003925780638da5cb5b14620003a95780639daa94f114620003bb578063a438d20814620003d257600080fd5b80635e510b60146200033a578063715018a6146200036257806378ef1138146200036c57600080fd5b80633340a176116200018f5780633de98b4311620001665780633de98b431462000308578063427c0c7f146200033057806358462d0c146200033a5780635e318e07146200034b57600080fd5b80633340a17614620002c35780633998a68114620002d55780633b4d01a714620002df57600080fd5b80630f6ca1a811620001d05780630f6ca1a8146200027557806319bee47414620002985780631b31527f14620002a257806326232a2e14620002b957600080fd5b8063013cf08b14620001fa5780630c0512e914620002435780630d61b519146200025c575b600080fd5b620002266200020b3660046200177c565b6006602052600090815260409020546001600160a01b031681565b6040516001600160a01b0390911681526020015b60405180910390f35b6200024d60025481565b6040519081526020016200023a565b620002736200026d3660046200177c565b620004bb565b005b6200024d62000286366004620017ac565b60086020526000908152604090205481565b6200024d60045481565b6200024d620002b3366004620017d3565b620009c6565b6200024d60055481565b6200024d69152d02c7e14af680000081565b6200024d6101f481565b620002f6620002f03660046200177c565b620009f8565b6040516200023a949392919062001818565b620002267f000000000000000000000000000000000000000000000000000000000000000081565b6200024d60035481565b6200024d683635c9adc5dea0000081565b620002736200035c3660046200177c565b62000b8e565b6200027362000d40565b620003836200037d366004620017ac565b62000d58565b6040516200023a91906200185a565b62000273620003a3366004620017ac565b62000dc6565b6000546001600160a01b031662000226565b62000273620003cc366004620018a0565b62000ed9565b6200024d62093a8081565b62000273620003ee3660046200177c565b62001005565b6200027362000405366004620017ac565b62001097565b620002736200041c3660046200177c565b62001198565b6200024d603381565b620002736200043c366004620017ac565b6200133d565b6200024d6200045336600462001aa5565b6200137e565b6200047f6200046a366004620017ac565b60096020526000908152604090205460ff1681565b60405190151581526020016200023a565b6200049a62001615565b6040805194855260208501939093529183015260608201526080016200023a565b620004c5620016c4565b6000818152600660205260409020546001600160a01b0316620005055760405162461bcd60e51b8152600401620004fc9062001bf5565b60405180910390fd5b6000818152600660205260409020546001600160a01b03166001816001600160a01b031663200d2ed26040518163ffffffff1660e01b8152600401602060405180830381865afa1580156200055e573d6000803e3d6000fd5b505050506040513d601f19601f8201168201806040525081019062000584919062001c2c565b600481111562000598576200059862001802565b14620005e75760405162461bcd60e51b815260206004820152601760248201527f50726f706f73616c20686173206e6f74207061737365640000000000000000006044820152606401620004fc565b806001600160a01b031663b99aeb9a6040518163ffffffff1660e01b8152600401600060405180830381600087803b1580156200062357600080fd5b505af115801562000638573d6000803e3d6000fd5b505050506000806000806000806000876001600160a01b0316632accd1446040518163ffffffff1660e01b8152600401600060405180830381865afa15801562000686573d6000803e3d6000fd5b505050506040513d6000823e601f3d908101601f19168201604052620006b0919081019062001cd6565b9650965096509650965096509650600061271060055485620006d3919062001dcc565b620006df919062001dec565b90506000620006ef828662001e0f565b6040516370a0823160e01b815230600482015290915081906001600160a01b037f000000000000000000000000000000000000000000000000000000000000000016906370a0823190602401602060405180830381865afa15801562000759573d6000803e3d6000fd5b505050506040513d601f19601f820116820180604052508101906200077f919062001e25565b1015620007c45760405162461bcd60e51b8152602060048201526012602482015271496e73756666696369656e742066756e647360701b6044820152606401620004fc565b7f00000000000000000000000000000000000000000000000000000000000000006001600160a01b031663a9059cbb8b6001600160a01b03166338af3eed6040518163ffffffff1660e01b8152600401602060405180830381865afa15801562000832573d6000803e3d6000fd5b505050506040513d601f19601f8201168201806040525081019062000858919062001e3f565b6040516001600160e01b031960e084901b1681526001600160a01b039091166004820152602481018490526044016020604051808303816000875af1158015620008a6573d6000803e3d6000fd5b505050506040513d601f19601f82011682018060405250810190620008cc919062001e5f565b620008eb5760405162461bcd60e51b8152600401620004fc9062001e83565b8060046000828254620008ff919062001eac565b92505081905550896001600160a01b03166338af3eed6040518163ffffffff1660e01b8152600401602060405180830381865afa15801562000945573d6000803e3d6000fd5b505050506040513d601f19601f820116820180604052508101906200096b919062001e3f565b6001600160a01b03168b7f9f5926601e7fc353505f05fae61282ae5d67b716f95656849456e6aa7bbbbb5f83604051620009a791815260200190565b60405180910390a350505050505050505050620009c360018055565b50565b60076020528160005260406000208181548110620009e357600080fd5b90600052602060002001600091509150505481565b6000818152600660205260408120548190819081906001600160a01b031662000a355760405162461bcd60e51b8152600401620004fc9062001bf5565b600085815260066020908152604091829020548251630a8e4fb960e41b815292516001600160a01b03909116928392839263a8e4fb909260048082019392918290030181865afa15801562000a8e573d6000803e3d6000fd5b505050506040513d601f19601f8201168201806040525081019062000ab4919062001e3f565b826001600160a01b03166338af3eed6040518163ffffffff1660e01b8152600401602060405180830381865afa15801562000af3573d6000803e3d6000fd5b505050506040513d601f19601f8201168201806040525081019062000b19919062001e3f565b836001600160a01b031663200d2ed26040518163ffffffff1660e01b8152600401602060405180830381865afa15801562000b58573d6000803e3d6000fd5b505050506040513d601f19601f8201168201806040525081019062000b7e919062001c2c565b9450945094509450509193509193565b62000b98620016ef565b6040516370a0823160e01b81523060048201527f00000000000000000000000000000000000000000000000000000000000000006001600160a01b0316906370a0823190602401602060405180830381865afa15801562000bfd573d6000803e3d6000fd5b505050506040513d601f19601f8201168201806040525081019062000c23919062001e25565b81111562000c6b5760405162461bcd60e51b8152602060048201526014602482015273496e73756666696369656e742062616c616e636560601b6044820152606401620004fc565b7f00000000000000000000000000000000000000000000000000000000000000006001600160a01b031663a9059cbb62000cad6000546001600160a01b031690565b6040516001600160e01b031960e084901b1681526001600160a01b039091166004820152602481018490526044016020604051808303816000875af115801562000cfb573d6000803e3d6000fd5b505050506040513d601f19601f8201168201806040525081019062000d21919062001e5f565b620009c35760405162461bcd60e51b8152600401620004fc9062001e83565b62000d4a620016ef565b62000d5660006200171e565b565b6001600160a01b03811660009081526007602090815260409182902080548351818402810184019094528084526060939283018282801562000dba57602002820191906000526020600020905b81548152602001906001019080831162000da5575b50505050509050919050565b62000dd0620016ef565b6001600160a01b03811660009081526009602052604090205460ff1662000e2c5760405162461bcd60e51b815260206004820152600f60248201526e2737ba10309036b7b232b930ba37b960891b6044820152606401620004fc565b6000546001600160a01b03166001600160a01b0316816001600160a01b03160362000e905760405162461bcd60e51b815260206004820152601360248201527221b0b73737ba103932b6b7bb329037bbb732b960691b6044820152606401620004fc565b6001600160a01b038116600081815260096020526040808220805460ff19169055517f7a9f1e23d5426b34819d173153d59084cc3578d5a129b80bb27df683ac6b22789190a250565b3360009081526009602052604090205460ff168062000f0257506000546001600160a01b031633145b62000f425760405162461bcd60e51b815260206004820152600f60248201526e2737ba10309036b7b232b930ba37b960891b6044820152606401620004fc565b6000858152600660205260409020546001600160a01b031662000f795760405162461bcd60e51b8152600401620004fc9062001bf5565b600085815260066020526040908190205490516342d9a84560e01b8152600481018690526024810185905260448101849052606481018390526001600160a01b039091169081906342d9a84590608401600060405180830381600087803b15801562000fe457600080fd5b505af115801562000ff9573d6000803e3d6000fd5b50505050505050505050565b6200100f620016ef565b6101f4811115620010525760405162461bcd60e51b815260206004820152600c60248201526b08ccaca40e8dede40d0d2ced60a31b6044820152606401620004fc565b600580549082905560408051828152602081018490527fd347e206f25a89b917fc9482f1a2d294d749baa4dc9bde7fb495ee11fe491643910160405180910390a15050565b620010a1620016ef565b6001600160a01b038116620010eb5760405162461bcd60e51b815260206004820152600f60248201526e496e76616c6964206164647265737360881b6044820152606401620004fc565b6001600160a01b03811660009081526009602052604090205460ff16156200114c5760405162461bcd60e51b815260206004820152601360248201527220b63932b0b23c90309036b7b232b930ba37b960691b6044820152606401620004fc565b6001600160a01b038116600081815260096020526040808220805460ff19166001179055517fd378ad41c1a753fd1ba9ec0fcd7970526c175b68545b4a02d6d15e7606fe35969190a250565b620011a2620016c4565b60008111620011f45760405162461bcd60e51b815260206004820152601d60248201527f416d6f756e74206d7573742062652067726561746572207468616e20300000006044820152606401620004fc565b6040516323b872dd60e01b8152336004820152306024820152604481018290527f00000000000000000000000000000000000000000000000000000000000000006001600160a01b0316906323b872dd906064016020604051808303816000875af115801562001268573d6000803e3d6000fd5b505050506040513d601f19601f820116820180604052508101906200128e919062001e5f565b620012ad5760405162461bcd60e51b8152600401620004fc9062001e83565b3360009081526008602052604081208054839290620012ce90849062001eac565b925050819055508060036000828254620012e9919062001eac565b909155505060035460405133917f7be992b019ae2b814cc7e81328fd30f2a7d6f6602ab4aa03a40a86707b46de81916200132b91858252602082015260400190565b60405180910390a2620009c360018055565b62001347620016ef565b6001600160a01b0381166200137357604051631e4fbdf760e01b815260006004820152602401620004fc565b620009c3816200171e565b60008160800151683635c9adc5dea00000811015620013d75760405162461bcd60e51b8152602060048201526014602482015273416d6f756e742062656c6f77206d696e696d756d60601b6044820152606401620004fc565b69152d02c7e14af68000008111156200142a5760405162461bcd60e51b8152602060048201526014602482015273416d6f756e742061626f7665206d6178696d756d60601b6044820152606401620004fc565b6001600160a01b038416620014785760405162461bcd60e51b8152602060048201526013602482015272496e76616c69642062656e656669636961727960681b6044820152606401620004fc565b825151620014ba5760405162461bcd60e51b815260206004820152600e60248201526d151a5d1b19481c995c5d5a5c995960921b6044820152606401620004fc565b600083602001515111620015085760405162461bcd60e51b815260206004820152601460248201527311195cd8dc9a5c1d1a5bdb881c995c5d5a5c995960621b6044820152606401620004fc565b600280549060006200151a8362001ec2565b91905055506000600254905060008133878762093a80683635c9adc5dea0000060336040516200154a906200176e565b6200155c979695949392919062001f81565b604051809103906000f08015801562001579573d6000803e3d6000fd5b50600083815260066020908152604080832080546001600160a01b0319166001600160a01b0386169081179091553380855260078452828520805460018101825590865293909420909201869055885160808a01519151949550919386927f35f722dea8b2845bb2ed781bf0b11f8e69e733bda70d447d6cd2d2c072fe8cde92620016049262002091565b60405180910390a450949350505050565b600254600354600480546040516370a0823160e01b81523092810192909252600093849384938493906001600160a01b037f000000000000000000000000000000000000000000000000000000000000000016906370a0823190602401602060405180830381865afa15801562001690573d6000803e3d6000fd5b505050506040513d601f19601f82011682018060405250810190620016b6919062001e25565b935093509350935090919293565b600260015403620016e857604051633ee5aeb560e01b815260040160405180910390fd5b6002600155565b6000546001600160a01b0316331462000d565760405163118cdaa760e01b8152336004820152602401620004fc565b600080546001600160a01b038381166001600160a01b0319831681178455604051919092169283917f8be0079c531659141344cd1fd0a4f28419497f9722a3daafe3b4186f6b6457e09190a35050565b61185280620020b683390190565b6000602082840312156200178f57600080fd5b5035919050565b6001600160a01b0381168114620009c357600080fd5b600060208284031215620017bf57600080fd5b8135620017cc8162001796565b9392505050565b60008060408385031215620017e757600080fd5b8235620017f48162001796565b946020939093013593505050565b634e487b7160e01b600052602160045260246000fd5b6001600160a01b03858116825284811660208301528316604082015260808101600583106200184b576200184b62001802565b82606083015295945050505050565b6020808252825182820181905260009190848201906040850190845b81811015620018945783518352928401929184019160010162001876565b50909695505050505050565b600080600080600060a08688031215620018b957600080fd5b505083359560208501359550604085013594606081013594506080013592509050565b634e487b7160e01b600052604160045260246000fd5b604051610100810167ffffffffffffffff81118282101715620019195762001919620018dc565b60405290565b604051601f8201601f1916810167ffffffffffffffff811182821017156200194b576200194b620018dc565b604052919050565b600067ffffffffffffffff821115620019705762001970620018dc565b50601f01601f191660200190565b600082601f8301126200199057600080fd5b8135620019a7620019a18262001953565b6200191f565b818152846020838601011115620019bd57600080fd5b816020850160208301376000918101602001919091529392505050565b60078110620009c357600080fd5b8035620019f581620019da565b919050565b600082601f83011262001a0c57600080fd5b8135602067ffffffffffffffff8083111562001a2c5762001a2c620018dc565b8260051b62001a3d8382016200191f565b938452858101830193838101908886111562001a5857600080fd5b84880192505b8583101562001a995782358481111562001a785760008081fd5b62001a888a87838c01016200197e565b835250918401919084019062001a5e565b98975050505050505050565b6000806040838503121562001ab957600080fd5b823562001ac68162001796565b9150602083013567ffffffffffffffff8082111562001ae457600080fd5b90840190610100828703121562001afa57600080fd5b62001b04620018f2565b82358281111562001b1457600080fd5b62001b22888286016200197e565b82525060208301358281111562001b3857600080fd5b62001b46888286016200197e565b60208301525060408301358281111562001b5f57600080fd5b62001b6d888286016200197e565b60408301525062001b8160608401620019e8565b60608201526080830135608082015260a083013560a082015260c08301358281111562001bad57600080fd5b62001bbb888286016200197e565b60c08301525060e08301358281111562001bd457600080fd5b62001be288828601620019fa565b60e0830152508093505050509250929050565b60208082526017908201527f50726f706f73616c20646f6573206e6f74206578697374000000000000000000604082015260600190565b60006020828403121562001c3f57600080fd5b815160058110620017cc57600080fd5b60005b8381101562001c6c57818101518382015260200162001c52565b50506000910152565b600082601f83011262001c8757600080fd5b815162001c98620019a18262001953565b81815284602083860101111562001cae57600080fd5b62001cc182602083016020870162001c4f565b949350505050565b8051620019f581620019da565b600080600080600080600060e0888a03121562001cf257600080fd5b875167ffffffffffffffff8082111562001d0b57600080fd5b62001d198b838c0162001c75565b985060208a015191508082111562001d3057600080fd5b62001d3e8b838c0162001c75565b975060408a015191508082111562001d5557600080fd5b62001d638b838c0162001c75565b965062001d7360608b0162001cc9565b955060808a0151945060a08a0151935060c08a015191508082111562001d9857600080fd5b5062001da78a828b0162001c75565b91505092959891949750929550565b634e487b7160e01b600052601160045260246000fd5b808202811582820484141762001de65762001de662001db6565b92915050565b60008262001e0a57634e487b7160e01b600052601260045260246000fd5b500490565b8181038181111562001de65762001de662001db6565b60006020828403121562001e3857600080fd5b5051919050565b60006020828403121562001e5257600080fd5b8151620017cc8162001796565b60006020828403121562001e7257600080fd5b81518015158114620017cc57600080fd5b6020808252600f908201526e151c985b9cd9995c8819985a5b1959608a1b604082015260600190565b8082018082111562001de65762001de662001db6565b60006001820162001ed75762001ed762001db6565b5060010190565b6000815180845262001ef881602086016020860162001c4f565b601f01601f19169290920160200192915050565b6007811062001f1f5762001f1f62001802565b9052565b60008282518085526020808601955060208260051b8401016020860160005b8481101562001f7457601f1986840301895262001f6183835162001ede565b9884019892509083019060010162001f42565b5090979650505050505050565b8781526001600160a01b0387811660208301528616604082015260e060608201819052855161010091830182905260009162001fc26101e085018362001ede565b9150602088015160df1980868503018387015262001fe1848362001ede565b935060408a01519250808685030161012087015262002001848462001ede565b935060608a015192506200201a61014087018462001f0c565b60808a015161016087015260a08a015161018087015260c08a0151925080868503016101a08701526200204e848462001ede565b935060e08a0151925080868503016101c0870152505062002070828262001f23565b608085019790975250505060a081019290925260c090910152949350505050565b604081526000620020a6604083018562001ede565b9050826020830152939250505056fe60806040523480156200001157600080fd5b5060405162001852380380620018528339810160408190526200003491620004fb565b33806200005b57604051631e4fbdf760e01b81526000600482015260240160405180910390fd5b6200006681620001ee565b5060018055601987905560178054610100600160a81b0319166101006001600160a01b038981169190910291909117909155601880546001600160a01b031916918716919091179055835184906002908190620000c4908262000713565b5060208201516001820190620000db908262000713565b5060408201516002820190620000f2908262000713565b50606082015160038201805460ff19166001836006811115620001195762000119620007df565b02179055506080820151600482015560a0820151600582015560c0820151600682019062000148908262000713565b5060e08201518051620001669160078401916020909101906200023e565b505050601a829055601b81905542600e81905562000186908490620007f5565b600f556017805460ff19169055835160808501516040516001600160a01b038916928a927f98120a6aaa04295520ab4e01c6c1235dd316e822cc9ff31db7b3f197366d18bd92620001d99291906200081d565b60405180910390a3505050505050506200085a565b600080546001600160a01b038381166001600160a01b0319831681178455604051919092169283917f8be0079c531659141344cd1fd0a4f28419497f9722a3daafe3b4186f6b6457e09190a35050565b82805482825590600052602060002090810192821562000289579160200282015b8281111562000289578251829062000278908262000713565b50916020019190600101906200025f565b50620002979291506200029b565b5090565b8082111562000297576000620002b28282620002bc565b506001016200029b565b508054620002ca9062000682565b6000825580601f10620002db575050565b601f016020900490600052602060002090810190620002fb9190620002fe565b50565b5b80821115620002975760008155600101620002ff565b80516001600160a01b03811681146200032d57600080fd5b919050565b634e487b7160e01b600052604160045260246000fd5b60405161010081016001600160401b03811182821017156200036e576200036e62000332565b60405290565b604051601f8201601f191681016001600160401b03811182821017156200039f576200039f62000332565b604052919050565b60005b83811015620003c4578181015183820152602001620003aa565b50506000910152565b600082601f830112620003df57600080fd5b81516001600160401b03811115620003fb57620003fb62000332565b62000410601f8201601f191660200162000374565b8181528460208386010111156200042657600080fd5b62000439826020830160208701620003a7565b949350505050565b8051600781106200032d57600080fd5b600082601f8301126200046357600080fd5b815160206001600160401b038083111562000482576200048262000332565b8260051b6200049383820162000374565b9384528581018301938381019088861115620004ae57600080fd5b84880192505b85831015620004ef57825184811115620004ce5760008081fd5b620004de8a87838c0101620003cd565b8352509184019190840190620004b4565b98975050505050505050565b600080600080600080600060e0888a0312156200051757600080fd5b87519650620005296020890162000315565b9550620005396040890162000315565b60608901519095506001600160401b03808211156200055757600080fd5b90890190610100828c0312156200056d57600080fd5b6200057762000348565b8251828111156200058757600080fd5b620005958d828601620003cd565b825250602083015182811115620005ab57600080fd5b620005b98d828601620003cd565b602083015250604083015182811115620005d257600080fd5b620005e08d828601620003cd565b604083015250620005f46060840162000441565b60608201526080830151608082015260a083015160a082015260c0830151828111156200062057600080fd5b6200062e8d828601620003cd565b60c08301525060e0830151828111156200064757600080fd5b620006558d82860162000451565b60e0830152508096505050506080880151925060a0880151915060c0880151905092959891949750929550565b600181811c908216806200069757607f821691505b602082108103620006b857634e487b7160e01b600052602260045260246000fd5b50919050565b601f8211156200070e576000816000526020600020601f850160051c81016020861015620006e95750805b601f850160051c820191505b818110156200070a57828155600101620006f5565b5050505b505050565b81516001600160401b038111156200072f576200072f62000332565b620007478162000740845462000682565b84620006be565b602080601f8311600181146200077f5760008415620007665750858301515b600019600386901b1c1916600185901b1785556200070a565b600085815260208120601f198616915b82811015620007b0578886015182559484019460019091019084016200078f565b5085821015620007cf5787850151600019600388901b60f8161c191681555b5050505050600190811b01905550565b634e487b7160e01b600052602160045260246000fd5b808201808211156200081757634e487b7160e01b600052601160045260246000fd5b92915050565b60408152600083518060408401526200083e816060850160208801620003a7565b602083019390935250601f91909101601f191601606001919050565b610fe8806200086a6000396000f3fe608060405234801561001057600080fd5b506004361061012c5760003560e01c80638da5cb5b116100ad578063d4923d4e11610071578063d4923d4e146102be578063da4a4e4a14610314578063da650ec61461031d578063f2fde38b14610349578063f9135be91461035c57600080fd5b80638da5cb5b1461023e5780639070577f1461024f578063a8e4fb9014610257578063b99aeb9a1461026f578063cc06d3ce1461027757600080fd5b8063373058b8116100f4578063373058b8146101d657806338af3eed146101e057806342d9a8451461020b5780636eb8f6841461021e578063715018a61461023657600080fd5b8063088868e814610131578063113e20881461014d578063200d2ed2146101985780632accd144146101b25780632dfca445146101cd575b600080fd5b61013a601a5481565b6040519081526020015b60405180910390f35b600a54600b54600c54600d54600e54600f5461016b95949392919086565b604080519687526020870195909552938501929092526060840152608083015260a082015260c001610144565b6017546101a59060ff1681565b6040516101449190610d60565b6101ba61036f565b6040516101449796959493929190610dba565b61013a60195481565b6101de6105c6565b005b6018546101f3906001600160a01b031681565b6040516001600160a01b039091168152602001610144565b6101de610219366004610e37565b610720565b61022661079a565b6040519015158152602001610144565b6101de6107fa565b6000546001600160a01b03166101f3565b6101de61080c565b6017546101f39061010090046001600160a01b031681565b6101de610918565b601254601354601454601554601654610294949392919060ff1685565b6040805195865260208601949094529284019190915260608301521515608082015260a001610144565b6102fb6102cc366004610e69565b6001600160a01b031660009081526010602090815260408083205460119092529091205460ff91821692911690565b60408051921515835260ff909116602083015201610144565b61013a601b5481565b600a54600b54600c54600d54604080519485526020850193909352918301526060820152608001610144565b6101de610357366004610e69565b6109de565b6101de61036a366004610e99565b610a1c565b60028054819061037e90610ecb565b80601f01602080910402602001604051908101604052809291908181526020018280546103aa90610ecb565b80156103f75780601f106103cc576101008083540402835291602001916103f7565b820191906000526020600020905b8154815290600101906020018083116103da57829003601f168201915b50505050509080600101805461040c90610ecb565b80601f016020809104026020016040519081016040528092919081815260200182805461043890610ecb565b80156104855780601f1061045a57610100808354040283529160200191610485565b820191906000526020600020905b81548152906001019060200180831161046857829003601f168201915b50505050509080600201805461049a90610ecb565b80601f01602080910402602001604051908101604052809291908181526020018280546104c690610ecb565b80156105135780601f106104e857610100808354040283529160200191610513565b820191906000526020600020905b8154815290600101906020018083116104f657829003601f168201915b505050600384015460048501546005860154600687018054969760ff909416969295509093509061054390610ecb565b80601f016020809104026020016040519081016040528092919081815260200182805461056f90610ecb565b80156105bc5780601f10610591576101008083540402835291602001916105bc565b820191906000526020600020905b81548152906001019060200180831161059f57829003601f168201915b5050505050905087565b600f54421161061c5760405162461bcd60e51b815260206004820152601b60248201527f566f74696e6720706572696f6420686173206e6f7420656e646564000000000060448201526064015b60405180910390fd5b610624610c8f565b600060175460ff16600481111561063d5761063d610d36565b1461065a5760405162461bcd60e51b815260040161061390610f05565b6000601a54600a600301541015610673575060026106af565b601b54600b54600a546106869190610f4b565b600a54610694906064610f5e565b61069e9190610f75565b106106ab575060016106af565b5060025b6017805460ff811691839160ff191660018360048111156106d2576106d2610d36565b02179055506019547fb0978968e606225988b6464f99ce7e86b0e8770d80eaec1369bb3780e05c6438828460405161070b929190610f97565b60405180910390a2505061071e60018055565b565b610728610cb9565b60128490556013839055601482905560158190556016805460ff191660011790556019546040805186815260208101869052908101849052606081018390527ff4f4153c1a7414f5c2d83d2d51c3a0077754652f7dae460b37f2b0fa705a72079060800160405180910390a250505050565b6000601a54600a6003015410156107b15750600090565b600b54600a546000916107c391610f4b565b9050806000036107d557600091505090565b601b54600a5482906107e8906064610f5e565b6107f29190610f75565b101591505090565b610802610cb9565b61071e6000610ce6565b60175461010090046001600160a01b031633148061083457506000546001600160a01b031633145b61088a5760405162461bcd60e51b815260206004820152602160248201527f4f6e6c792070726f706f736572206f72206f776e65722063616e2063616e63656044820152601b60fa1b6064820152608401610613565b600060175460ff1660048111156108a3576108a3610d36565b146108c05760405162461bcd60e51b815260040161061390610f05565b6017805460ff81169160049160ff191660018302179055506019547fb0978968e606225988b6464f99ce7e86b0e8770d80eaec1369bb3780e05c643882600460405161090d929190610f97565b60405180910390a250565b610920610cb9565b600160175460ff16600481111561093957610939610d36565b146109915760405162461bcd60e51b815260206004820152602260248201527f50726f706f73616c206d7573742062652070617373656420746f206578656375604482015261746560f01b6064820152608401610613565b6017805460ff81169160039160ff191660018302179055506019547fb0978968e606225988b6464f99ce7e86b0e8770d80eaec1369bb3780e05c643882600360405161090d929190610f97565b6109e6610cb9565b6001600160a01b038116610a1057604051631e4fbdf760e01b815260006004820152602401610613565b610a1981610ce6565b50565b600060175460ff166004811115610a3557610a35610d36565b14610a525760405162461bcd60e51b815260040161061390610f05565b60028260ff161115610a9c5760405162461bcd60e51b8152602060048201526013602482015272496e76616c696420766f74652063686f69636560681b6044820152606401610613565b3360009081526010602052604090205460ff1615610aec5760405162461bcd60e51b815260206004820152600d60248201526c105b1c9958591e481d9bdd1959609a1b6044820152606401610613565b600f54421115610b3e5760405162461bcd60e51b815260206004820152601760248201527f566f74696e6720706572696f642068617320656e6465640000000000000000006044820152606401610613565b60008111610b9a5760405162461bcd60e51b8152602060048201526024808201527f566f74696e6720776569676874206d75737420626520677265617465722074686044820152630616e20360e41b6064820152608401610613565b3360009081526010602090815260408083208054600160ff199182161790915560119092528220805490911660ff8516179055600d8054839290610bdf908490610f4b565b909155505060ff8216600103610c0f5780600a6000016000828254610c049190610f4b565b90915550610c4a9050565b8160ff16600003610c2f5780600a6001016000828254610c049190610f4b565b80600a6002016000828254610c449190610f4b565b90915550505b6019546040805160ff851681526020810184905233917f2c9deb38f462962eadbd85a9d3a4120503ee091f1582eaaa10aa8c6797651d29910160405180910390a35050565b600260015403610cb257604051633ee5aeb560e01b815260040160405180910390fd5b6002600155565b6000546001600160a01b0316331461071e5760405163118cdaa760e01b8152336004820152602401610613565b600080546001600160a01b038381166001600160a01b0319831681178455604051919092169283917f8be0079c531659141344cd1fd0a4f28419497f9722a3daafe3b4186f6b6457e09190a35050565b634e487b7160e01b600052602160045260246000fd5b60058110610d5c57610d5c610d36565b9052565b60208101610d6e8284610d4c565b92915050565b6000815180845260005b81811015610d9a57602081850181015186830182015201610d7e565b506000602082860101526020601f19601f83011685010191505092915050565b60e081526000610dcd60e083018a610d74565b8281036020840152610ddf818a610d74565b90508281036040840152610df38189610d74565b905060078710610e0557610e05610d36565b8660608401528560808401528460a084015282810360c0840152610e298185610d74565b9a9950505050505050505050565b60008060008060808587031215610e4d57600080fd5b5050823594602084013594506040840135936060013592509050565b600060208284031215610e7b57600080fd5b81356001600160a01b0381168114610e9257600080fd5b9392505050565b60008060408385031215610eac57600080fd5b823560ff81168114610ebd57600080fd5b946020939093013593505050565b600181811c90821680610edf57607f821691505b602082108103610eff57634e487b7160e01b600052602260045260246000fd5b50919050565b60208082526016908201527550726f706f73616c206973206e6f742061637469766560501b604082015260600190565b634e487b7160e01b600052601160045260246000fd5b80820180821115610d6e57610d6e610f35565b8082028115828204841417610d6e57610d6e610f35565b600082610f9257634e487b7160e01b600052601260045260246000fd5b500490565b60408101610fa58285610d4c565b610e926020830184610d4c56fea264697066735822122046840e9b2bd291f17c0e0d74bf434d8095781a786ba01930e24d0ad0ace121e164736f6c63430008180033a26469706673582212206d5582f0822601754f489b5d3d099b69ac24bcc86869f11f31e99f3dfe1f8e7664736f6c63430008180033",
  "linkReferences": {},
  "deployedLinkReferences": {}
}