{
  "_format": "hh-sol-artifact-1",
  "contractName": "ClimateDAO",
  "sourceName": "contracts/ClimateDAO.sol",
  "abi": [
    {
      "inputs": [
        {
          "internalType": "address",
          "name": "_climateToken",
          "type": "address"
        }
      ],
      "stateMutability": "nonpayable",
      "type": "constructor"
    },
    {
      "inputs": [
        {
          "internalType": "address",
          "name": "owner",
          "type": "address"
        }
      ],
      "name": "OwnableInvalidOwner",
      "type": "error"
    },
    {
      "inputs": [
        {
          "internalType": "address",
          "name": "account",
          "type": "address"
        }
      ],
      "name": "OwnableUnauthorizedAccount",
      "type": "error"
    },
    {
      "inputs": [],
      "name": "ReentrancyGuardReentrantCall",
      "type": "error"
    },
    {
      "anonymous": false,
      "inputs": [
        {
          "indexed": true,
          "internalType": "uint256",
          "name": "proposalId",
          "type": "uint256"
        },
        {
          "indexed": true,
          "internalType": "address",
          "name": "beneficiary",
          "type": "address"
        },
        {
          "indexed": false,
          "internalType": "uint256",
          "name": "amount",
          "type": "uint256"
        }
      ],
      "name": "FundsDistributed",
      "type": "event"
    },
    {
      "anonymous": false,
      "inputs": [
        {
          "indexed": true,
          "internalType": "address",
          "name": "donor",
          "type": "address"
        },
        {
          "indexed": false,
          "internalType": "uint256",
          "name": "amount",
          "type": "uint256"
        },
        {
          "indexed": false,
          "internalType": "uint256",
          "name": "totalRaised",
          "type": "uint256"
        }
      ],
      "name": "FundsDonated",
      "type": "event"
    },
    {
      "anonymous": false,
      "inputs": [
        {
          "indexed": true,
          "internalType": "address",
          "name": "moderator",
          "type": "address"
        }
      ],
      "name": "ModeratorAdded",
      "type": "event"
    },
    {
      "anonymous": false,
      "inputs": [
        {
          "indexed": true,
          "internalType": "address",
          "name": "moderator",
          "type": "address"
        }
      ],
      "name": "ModeratorRemoved",
      "type": "event"
    },
    {
      "anonymous": false,
      "inputs": [
        {
          "indexed": true,
          "internalType": "address",
          "name": "previousOwner",
          "type": "address"
        },
        {
          "indexed": true,
          "internalType": "address",
          "name": "newOwner",
          "type": "address"
        }
      ],
      "name": "OwnershipTransferred",
      "type": "event"
    },
    {
      "anonymous": false,
      "inputs": [
        {
          "indexed": false,
          "internalType": "uint256",
          "name": "oldFee",
          "type": "uint256"
        },
        {
          "indexed": false,
          "internalType": "uint256",
          "name": "newFee",
          "type": "uint256"
        }
      ],
      "name": "PlatformFeeUpdated",
      "type": "event"
    },
    {
      "anonymous": false,
      "inputs": [
        {
          "indexed": true,
          "internalType": "uint256",
          "name": "pendingId",
          "type": "uint256"
        },
        {
          "indexed": true,
          "internalType": "uint256",
          "name": "proposalId",
          "type": "uint256"
        }
      ],
      "name": "ProposalApproved",
      "type": "event"
    },
    {
      "anonymous": false,
      "inputs": [
        {
          "indexed": true,
          "internalType": "uint256",
          "name": "proposalId",
          "type": "uint256"
        },
        {
          "indexed": true,
          "internalType": "address",
          "name": "proposer",
          "type": "address"
        },
        {
          "indexed": true,
          "internalType": "address",
          "name": "proposalContract",
          "type": "address"
        },
        {
          "indexed": false,
          "internalType": "string",
          "name": "title",
          "type": "string"
        },
        {
          "indexed": false,
          "internalType": "uint256",
          "name": "requestedAmount",
          "type": "uint256"
        }
      ],
      "name": "ProposalCreated",
      "type": "event"
    },
    {
      "anonymous": false,
      "inputs": [
        {
          "indexed": true,
          "internalType": "uint256",
          "name": "pendingId",
          "type": "uint256"
        },
        {
          "indexed": false,
          "internalType": "bool",
          "name": "approved",
          "type": "bool"
        },
        {
          "indexed": false,
          "internalType": "string",
          "name": "reviewNotes",
          "type": "string"
        }
      ],
      "name": "ProposalReviewed",
      "type": "event"
    },
    {
      "anonymous": false,
      "inputs": [
        {
          "indexed": true,
          "internalType": "uint256",
          "name": "pendingId",
          "type": "uint256"
        },
        {
          "indexed": true,
          "internalType": "address",
          "name": "proposer",
          "type": "address"
        },
        {
          "indexed": false,
          "internalType": "string",
          "name": "title",
          "type": "string"
        }
      ],
      "name": "ProposalSubmitted",
      "type": "event"
    },
    {
      "anonymous": false,
      "inputs": [
        {
          "indexed": true,
          "internalType": "address",
          "name": "user",
          "type": "address"
        },
        {
          "indexed": false,
          "internalType": "uint256",
          "name": "totalContributions",
          "type": "uint256"
        },
        {
          "indexed": false,
          "internalType": "uint256",
          "name": "proposalCount",
          "type": "uint256"
        },
        {
          "indexed": false,
          "internalType": "uint256",
          "name": "voteCount",
          "type": "uint256"
        }
      ],
      "name": "UserProfileUpdated",
      "type": "event"
    },
    {
      "anonymous": false,
      "inputs": [
        {
          "indexed": true,
          "internalType": "address",
          "name": "user",
          "type": "address"
        },
        {
          "indexed": false,
          "internalType": "uint256",
          "name": "timestamp",
          "type": "uint256"
        }
      ],
      "name": "UserRegistered",
      "type": "event"
    },
    {
      "inputs": [],
      "name": "MAJORITY_THRESHOLD",
      "outputs": [
        {
          "internalType": "uint256",
          "name": "",
          "type": "uint256"
        }
      ],
      "stateMutability": "view",
      "type": "function"
    },
    {
      "inputs": [],
      "name": "MAX_PLATFORM_FEE",
      "outputs": [
        {
          "internalType": "uint256",
          "name": "",
          "type": "uint256"
        }
      ],
      "stateMutability": "view",
      "type": "function"
    },
    {
      "inputs": [],
      "name": "MAX_PROPOSAL_AMOUNT",
      "outputs": [
        {
          "internalType": "uint256",
          "name": "",
          "type": "uint256"
        }
      ],
      "stateMutability": "view",
      "type": "function"
    },
    {
      "inputs": [],
      "name": "MIN_PROPOSAL_AMOUNT",
      "outputs": [
        {
          "internalType": "uint256",
          "name": "",
          "type": "uint256"
        }
      ],
      "stateMutability": "view",
      "type": "function"
    },
    {
      "inputs": [],
      "name": "QUORUM_THRESHOLD",
      "outputs": [
        {
          "internalType": "uint256",
          "name": "",
          "type": "uint256"
        }
      ],
      "stateMutability": "view",
      "type": "function"
    },
    {
      "inputs": [],
      "name": "VOTING_DURATION",
      "outputs": [
        {
          "internalType": "uint256",
          "name": "",
          "type": "uint256"
        }
      ],
      "stateMutability": "view",
      "type": "function"
    },
    {
      "inputs": [
        {
          "internalType": "address",
          "name": "moderator",
          "type": "address"
        }
      ],
      "name": "addModerator",
      "outputs": [],
      "stateMutability": "nonpayable",
      "type": "function"
    },
    {
      "inputs": [],
      "name": "climateToken",
      "outputs": [
        {
          "internalType": "contract ClimateToken",
          "name": "",
          "type": "address"
        }
      ],
      "stateMutability": "view",
      "type": "function"
    },
    {
      "inputs": [
        {
          "internalType": "uint256",
          "name": "amount",
          "type": "uint256"
        }
      ],
      "name": "donateFunds",
      "outputs": [],
      "stateMutability": "nonpayable",
      "type": "function"
    },
    {
      "inputs": [
        {
          "internalType": "uint256",
          "name": "proposalId",
          "type": "uint256"
        }
      ],
      "name": "executeProposal",
      "outputs": [],
      "stateMutability": "nonpayable",
      "type": "function"
    },
    {
      "inputs": [],
      "name": "getDAOStats",
      "outputs": [
        {
          "internalType": "uint256",
          "name": "totalProposals",
          "type": "uint256"
        },
        {
          "internalType": "uint256",
          "name": "totalRaised",
          "type": "uint256"
        },
        {
          "internalType": "uint256",
          "name": "totalDistributed",
          "type": "uint256"
        },
        {
          "internalType": "uint256",
          "name": "currentBalance",
          "type": "uint256"
        }
      ],
      "stateMutability": "view",
      "type": "function"
    },
    {
      "inputs": [
        {
          "internalType": "uint256",
          "name": "pendingId",
          "type": "uint256"
        }
      ],
      "name": "getPendingProposal",
      "outputs": [
        {
          "internalType": "address",
          "name": "proposer",
          "type": "address"
        },
        {
          "internalType": "address",
          "name": "beneficiary",
          "type": "address"
        },
        {
          "internalType": "string",
          "name": "title",
          "type": "string"
        },
        {
          "internalType": "uint256",
          "name": "requestedAmount",
          "type": "uint256"
        },
        {
          "internalType": "uint256",
          "name": "submissionTime",
          "type": "uint256"
        },
        {
          "internalType": "bool",
          "name": "isReviewed",
          "type": "bool"
        },
        {
          "internalType": "bool",
          "name": "isApproved",
          "type": "bool"
        }
      ],
      "stateMutability": "view",
      "type": "function"
    },
    {
      "inputs": [
        {
          "internalType": "uint256",
          "name": "pendingId",
          "type": "uint256"
        }
      ],
      "name": "getPendingProposalDetails",
      "outputs": [
        {
          "internalType": "string",
          "name": "description",
          "type": "string"
        },
        {
          "internalType": "string",
          "name": "location",
          "type": "string"
        },
        {
          "internalType": "uint8",
          "name": "category",
          "type": "uint8"
        },
        {
          "internalType": "uint256",
          "name": "duration",
          "type": "uint256"
        },
        {
          "internalType": "string",
          "name": "website",
          "type": "string"
        },
        {
          "internalType": "string",
          "name": "reviewNotes",
          "type": "string"
        }
      ],
      "stateMutability": "view",
      "type": "function"
    },
    {
      "inputs": [],
      "name": "getPendingProposalIds",
      "outputs": [
        {
          "internalType": "uint256[]",
          "name": "",
          "type": "uint256[]"
        }
      ],
      "stateMutability": "view",
      "type": "function"
    },
    {
      "inputs": [],
      "name": "getPendingProposalsCount",
      "outputs": [
        {
          "internalType": "uint256",
          "name": "",
          "type": "uint256"
        }
      ],
      "stateMutability": "view",
      "type": "function"
    },
    {
      "inputs": [
        {
          "internalType": "uint256",
          "name": "proposalId",
          "type": "uint256"
        }
      ],
      "name": "getProposalDetails",
      "outputs": [
        {
          "internalType": "address",
          "name": "proposalAddress",
          "type": "address"
        },
        {
          "internalType": "address",
          "name": "proposer",
          "type": "address"
        },
        {
          "internalType": "address",
          "name": "beneficiary",
          "type": "address"
        },
        {
          "internalType": "enum Proposal.ProposalStatus",
          "name": "status",
          "type": "uint8"
        }
      ],
      "stateMutability": "view",
      "type": "function"
    },
    {
      "inputs": [
        {
          "internalType": "address",
          "name": "user",
          "type": "address"
        }
      ],
      "name": "getUserInfo",
      "outputs": [
        {
          "components": [
            {
              "internalType": "uint256",
              "name": "registrationTimestamp",
              "type": "uint256"
            },
            {
              "internalType": "uint256",
              "name": "totalContributions",
              "type": "uint256"
            },
            {
              "internalType": "uint256",
              "name": "proposalCount",
              "type": "uint256"
            },
            {
              "internalType": "uint256",
              "name": "voteCount",
              "type": "uint256"
            },
            {
              "internalType": "bool",
              "name": "isActive",
              "type": "bool"
            }
          ],
          "internalType": "struct ClimateDAO.UserInfo",
          "name": "",
          "type": "tuple"
        }
      ],
      "stateMutability": "view",
      "type": "function"
    },
    {
      "inputs": [
        {
          "internalType": "address",
          "name": "user",
          "type": "address"
        }
      ],
      "name": "getUserProposals",
      "outputs": [
        {
          "internalType": "uint256[]",
          "name": "",
          "type": "uint256[]"
        }
      ],
      "stateMutability": "view",
      "type": "function"
    },
    {
      "inputs": [
        {
          "internalType": "address",
          "name": "",
          "type": "address"
        }
      ],
      "name": "isModerator",
      "outputs": [
        {
          "internalType": "bool",
          "name": "",
          "type": "bool"
        }
      ],
      "stateMutability": "view",
      "type": "function"
    },
    {
      "inputs": [
        {
          "internalType": "address",
          "name": "user",
          "type": "address"
        }
      ],
      "name": "isUserRegistered",
      "outputs": [
        {
          "internalType": "bool",
          "name": "",
          "type": "bool"
        }
      ],
      "stateMutability": "view",
      "type": "function"
    },
    {
      "inputs": [],
      "name": "owner",
      "outputs": [
        {
          "internalType": "address",
          "name": "",
          "type": "address"
        }
      ],
      "stateMutability": "view",
      "type": "function"
    },
    {
      "inputs": [],
      "name": "pendingProposalCounter",
      "outputs": [
        {
          "internalType": "uint256",
          "name": "",
          "type": "uint256"
        }
      ],
      "stateMutability": "view",
      "type": "function"
    },
    {
      "inputs": [
        {
          "internalType": "uint256",
          "name": "",
          "type": "uint256"
        }
      ],
      "name": "pendingProposalIds",
      "outputs": [
        {
          "internalType": "uint256",
          "name": "",
          "type": "uint256"
        }
      ],
      "stateMutability": "view",
      "type": "function"
    },
    {
      "inputs": [
        {
          "internalType": "uint256",
          "name": "",
          "type": "uint256"
        }
      ],
      "name": "pendingProposals",
      "outputs": [
        {
          "internalType": "address",
          "name": "proposer",
          "type": "address"
        },
        {
          "internalType": "address",
          "name": "beneficiary",
          "type": "address"
        },
        {
          "components": [
            {
              "internalType": "string",
              "name": "title",
              "type": "string"
            },
            {
              "internalType": "string",
              "name": "description",
              "type": "string"
            },
            {
              "internalType": "string",
              "name": "location",
              "type": "string"
            },
            {
              "internalType": "enum Proposal.ProjectCategory",
              "name": "category",
              "type": "uint8"
            },
            {
              "internalType": "uint256",
              "name": "requestedAmount",
              "type": "uint256"
            },
            {
              "internalType": "uint256",
              "name": "duration",
              "type": "uint256"
            },
            {
              "internalType": "string",
              "name": "website",
              "type": "string"
            },
            {
              "internalType": "string[]",
              "name": "images",
              "type": "string[]"
            }
          ],
          "internalType": "struct Proposal.ProjectDetails",
          "name": "projectDetails",
          "type": "tuple"
        },
        {
          "internalType": "uint256",
          "name": "submissionTime",
          "type": "uint256"
        },
        {
          "internalType": "bool",
          "name": "isReviewed",
          "type": "bool"
        },
        {
          "internalType": "bool",
          "name": "isApproved",
          "type": "bool"
        },
        {
          "internalType": "string",
          "name": "reviewNotes",
          "type": "string"
        }
      ],
      "stateMutability": "view",
      "type": "function"
    },
    {
      "inputs": [],
      "name": "platformFee",
      "outputs": [
        {
          "internalType": "uint256",
          "name": "",
          "type": "uint256"
        }
      ],
      "stateMutability": "view",
      "type": "function"
    },
    {
      "inputs": [],
      "name": "proposalCounter",
      "outputs": [
        {
          "internalType": "uint256",
          "name": "",
          "type": "uint256"
        }
      ],
      "stateMutability": "view",
      "type": "function"
    },
    {
      "inputs": [
        {
          "internalType": "uint256",
          "name": "",
          "type": "uint256"
        }
      ],
      "name": "proposals",
      "outputs": [
        {
          "internalType": "address",
          "name": "",
          "type": "address"
        }
      ],
      "stateMutability": "view",
      "type": "function"
    },
    {
      "inputs": [
        {
          "internalType": "address",
          "name": "user",
          "type": "address"
        }
      ],
      "name": "registerUser",
      "outputs": [],
      "stateMutability": "nonpayable",
      "type": "function"
    },
    {
      "inputs": [
        {
          "internalType": "address",
          "name": "",
          "type": "address"
        }
      ],
      "name": "registeredUsers",
      "outputs": [
        {
          "internalType": "bool",
          "name": "",
          "type": "bool"
        }
      ],
      "stateMutability": "view",
      "type": "function"
    },
    {
      "inputs": [
        {
          "internalType": "address",
          "name": "moderator",
          "type": "address"
        }
      ],
      "name": "removeModerator",
      "outputs": [],
      "stateMutability": "nonpayable",
      "type": "function"
    },
    {
      "inputs": [],
      "name": "renounceOwnership",
      "outputs": [],
      "stateMutability": "nonpayable",
      "type": "function"
    },
    {
      "inputs": [
        {
          "internalType": "uint256",
          "name": "pendingId",
          "type": "uint256"
        },
        {
          "internalType": "bool",
          "name": "approved",
          "type": "bool"
        },
        {
          "internalType": "string",
          "name": "reviewNotes",
          "type": "string"
        }
      ],
      "name": "reviewProposal",
      "outputs": [],
      "stateMutability": "nonpayable",
      "type": "function"
    },
    {
      "inputs": [
        {
          "internalType": "address",
          "name": "beneficiary",
          "type": "address"
        },
        {
          "components": [
            {
              "internalType": "string",
              "name": "title",
              "type": "string"
            },
            {
              "internalType": "string",
              "name": "description",
              "type": "string"
            },
            {
              "internalType": "string",
              "name": "location",
              "type": "string"
            },
            {
              "internalType": "enum Proposal.ProjectCategory",
              "name": "category",
              "type": "uint8"
            },
            {
              "internalType": "uint256",
              "name": "requestedAmount",
              "type": "uint256"
            },
            {
              "internalType": "uint256",
              "name": "duration",
              "type": "uint256"
            },
            {
              "internalType": "string",
              "name": "website",
              "type": "string"
            },
            {
              "internalType": "string[]",
              "name": "images",
              "type": "string[]"
            }
          ],
          "internalType": "struct Proposal.ProjectDetails",
          "name": "projectDetails",
          "type": "tuple"
        }
      ],
      "name": "submitProposal",
      "outputs": [
        {
          "internalType": "uint256",
          "name": "",
          "type": "uint256"
        }
      ],
      "stateMutability": "nonpayable",
      "type": "function"
    },
    {
      "inputs": [],
      "name": "totalFundsDistributed",
      "outputs": [
        {
          "internalType": "uint256",
          "name": "",
          "type": "uint256"
        }
      ],
      "stateMutability": "view",
      "type": "function"
    },
    {
      "inputs": [],
      "name": "totalFundsRaised",
      "outputs": [
        {
          "internalType": "uint256",
          "name": "",
          "type": "uint256"
        }
      ],
      "stateMutability": "view",
      "type": "function"
    },
    {
      "inputs": [
        {
          "internalType": "address",
          "name": "newOwner",
          "type": "address"
        }
      ],
      "name": "transferOwnership",
      "outputs": [],
      "stateMutability": "nonpayable",
      "type": "function"
    },
    {
      "inputs": [
        {
          "internalType": "uint256",
          "name": "newFee",
          "type": "uint256"
        }
      ],
      "name": "updatePlatformFee",
      "outputs": [],
      "stateMutability": "nonpayable",
      "type": "function"
    },
    {
      "inputs": [
        {
          "internalType": "uint256",
          "name": "proposalId",
          "type": "uint256"
        },
        {
          "internalType": "uint256",
          "name": "co2Reduction",
          "type": "uint256"
        },
        {
          "internalType": "uint256",
          "name": "energyGeneration",
          "type": "uint256"
        },
        {
          "internalType": "uint256",
          "name": "jobsCreated",
          "type": "uint256"
        },
        {
          "internalType": "uint256",
          "name": "aiScore",
          "type": "uint256"
        }
      ],
      "name": "updateProposalImpactMetrics",
      "outputs": [],
      "stateMutability": "nonpayable",
      "type": "function"
    },
    {
      "inputs": [
        {
          "internalType": "address",
          "name": "user",
          "type": "address"
        }
      ],
      "name": "updateUserVoteCount",
      "outputs": [],
      "stateMutability": "nonpayable",
      "type": "function"
    },
    {
      "inputs": [
        {
          "internalType": "address",
          "name": "",
          "type": "address"
        }
      ],
      "name": "userContributions",
      "outputs": [
        {
          "internalType": "uint256",
          "name": "",
          "type": "uint256"
        }
      ],
      "stateMutability": "view",
      "type": "function"
    },
    {
      "inputs": [
        {
          "internalType": "address",
          "name": "",
          "type": "address"
        },
        {
          "internalType": "uint256",
          "name": "",
          "type": "uint256"
        }
      ],
      "name": "userProposals",
      "outputs": [
        {
          "internalType": "uint256",
          "name": "",
          "type": "uint256"
        }
      ],
      "stateMutability": "view",
      "type": "function"
    },
    {
      "inputs": [
        {
          "internalType": "address",
          "name": "",
          "type": "address"
        }
      ],
      "name": "userRegistry",
      "outputs": [
        {
          "internalType": "uint256",
          "name": "registrationTimestamp",
          "type": "uint256"
        },
        {
          "internalType": "uint256",
          "name": "totalContributions",
          "type": "uint256"
        },
        {
          "internalType": "uint256",
          "name": "proposalCount",
          "type": "uint256"
        },
        {
          "internalType": "uint256",
          "name": "voteCount",
          "type": "uint256"
        },
        {
          "internalType": "bool",
          "name": "isActive",
          "type": "bool"
        }
      ],
      "stateMutability": "view",
      "type": "function"
    },
    {
      "inputs": [
        {
          "internalType": "address",
          "name": "",
          "type": "address"
        }
      ],
      "name": "validProposal",
      "outputs": [
        {
          "internalType": "bool",
          "name": "",
          "type": "bool"
        }
      ],
      "stateMutability": "view",
      "type": "function"
    },
    {
      "inputs": [
        {
          "internalType": "uint256",
          "name": "amount",
          "type": "uint256"
        }
      ],
      "name": "withdrawFees",
      "outputs": [],
      "stateMutability": "nonpayable",
      "type": "function"
    }
  ],
  "bytecode": "0x60a060405260fa6005553480156200001657600080fd5b5060405162005744380380620057448339810160408190526200003991620001b9565b33806200006057604051631e4fbdf760e01b81526000600482015260240160405180910390fd5b6200006b81620000ab565b5060018080556001600160a01b038216608052336000818152600960205260409020805460ff1916909217909155620000a490620000fb565b50620001eb565b600080546001600160a01b038381166001600160a01b0319831681178455604051919092169283917f8be0079c531659141344cd1fd0a4f28419497f9722a3daafe3b4186f6b6457e09190a35050565b6001600160a01b0381166000818152600e602090815260408083208054600160ff199182168117909255825160a0810184524280825281860187815282860188815260608401898152608085018781528b8b52600f8a529988902094518555915195840195909555935160028301559251600382015594516004909501805490911694151594909417909355519182527fe29d35093005f4d575e1003753426b57a7f64378ba73332eef9c6ccc2b8decd6910160405180910390a250565b600060208284031215620001cc57600080fd5b81516001600160a01b0381168114620001e457600080fd5b9392505050565b60805161550c620002386000396000818161046d01528181610b7701528181610c2c01528181611501015281816115c101528181612523015281816128950152612970015261550c6000f3fe60806040523480156200001157600080fd5b5060043610620002a95760003560e01c80636386c1c7116200016d578063aa0b598811620000d3578063db9b95421162000092578063db9b95421462000709578063f21803dc1462000712578063f2fde38b146200073e578063fa6f39361462000755578063fef0f8de146200077b578063ffc4bfde146200078557600080fd5b8063aa0b598814620006a3578063b532e4cb14620006ba578063b7613f5714620006d1578063d32521a014620006db578063d68bda0314620006f257600080fd5b80637fe0dd32116200012c5780637fe0dd3214620005d3578063869d785f14620006415780638da5cb5b14620006585780639daa94f1146200066a578063a2b9b7cf1462000681578063a438d208146200069857600080fd5b80636386c1c714620004f057806364dd86c2146200054c5780636a61cf611462000577578063715018a614620005a357806378ef113814620005ad57600080fd5b806326232a2e11620002135780633dfff9cb11620001d25780633dfff9cb146200048f5780633ef8f3831462000498578063427c0c7f14620004be57806358462d0c14620004c85780635e318e0714620004d95780635e510b6014620004c857600080fd5b806326232a2e14620004185780633340a17614620004225780633998a68114620004345780633b4d01a7146200043e5780633de98b43146200046757600080fd5b80630f6ca1a8116200026c5780630f6ca1a81462000377578063163f7522146200039a57806319bee47414620003c95780631b31527f14620003d35780631d194d7114620003ea5780632199d5cd146200040157600080fd5b8063013cf08b14620002ae578063047fe09a14620002f75780630c0512e914620003105780630d61b51914620003295780630e50cee51462000340575b600080fd5b620002da620002bf36600462002d84565b6006602052600090815260409020546001600160a01b031681565b6040516001600160a01b0390911681526020015b60405180910390f35b6200030e6200030836600462002eab565b620007b0565b005b6200031a60025481565b604051908152602001620002ee565b6200030e6200033a36600462002d84565b6200092a565b620003666200035136600462002f20565b600e6020526000908152604090205460ff1681565b6040519015158152602001620002ee565b6200031a6200038836600462002f20565b60086020526000908152604090205481565b62000366620003ab36600462002f20565b6001600160a01b03166000908152600e602052604090205460ff1690565b6200031a60045481565b6200031a620003e436600462002f47565b62000e2c565b6200031a620003fb36600462003041565b62000e5e565b6200030e6200041236600462002f20565b62001232565b6200031a60055481565b6200031a69152d02c7e14af680000081565b6200031a6101f481565b620004556200044f36600462002d84565b6200134c565b604051620002ee9493929190620031a7565b620002da7f000000000000000000000000000000000000000000000000000000000000000081565b600d546200031a565b62000366620004a936600462002f20565b600a6020526000908152604090205460ff1681565b6200031a60035481565b6200031a683635c9adc5dea0000081565b6200030e620004ea36600462002d84565b620014e2565b620005076200050136600462002f20565b62001694565b604051620002ee9190600060a0820190508251825260208301516020830152604083015160408301526060830151606083015260808301511515608083015292915050565b620005636200055d36600462002d84565b62001786565b604051620002ee969594939291906200323d565b6200058e6200058836600462002d84565b62001a3e565b604051620002ee979695949392919062003323565b6200030e62001ec3565b620005c4620005be36600462002f20565b62001edb565b604051620002ee91906200344e565b62000616620005e436600462002f20565b600f60205260009081526040902080546001820154600283015460038401546004909401549293919290919060ff1685565b6040805195865260208601949094529284019190915260608301521515608082015260a001620002ee565b6200030e6200065236600462002f20565b62001f49565b6000546001600160a01b0316620002da565b6200030e6200067b36600462003494565b6200203b565b6200030e6200069236600462002f20565b62002146565b6200031a62093a8081565b6200030e620006b436600462002d84565b620022b8565b6200030e620006cb36600462002f20565b6200234a565b620005c46200244b565b6200030e620006ec36600462002d84565b620024a5565b6200031a6200070336600462002d84565b620026f6565b6200031a603381565b620007296200072336600462002d84565b62002718565b604051620002ee9796959493929190620034d0565b6200030e6200074f36600462002f20565b62002821565b620003666200076636600462002f20565b60096020526000908152604090205460ff1681565b6200031a600c5481565b6200078f62002862565b604080519485526020850193909352918301526060820152608001620002ee565b3360009081526009602052604090205460ff1680620007d957506000546001600160a01b031633145b620008015760405162461bcd60e51b8152600401620007f89062003526565b60405180910390fd5b6000838152600b60205260409020546001600160a01b0316620008385760405162461bcd60e51b8152600401620007f8906200354f565b6000838152600b60208190526040909120015460ff16156200089d5760405162461bcd60e51b815260206004820152601960248201527f50726f706f73616c20616c7265616479207265766965776564000000000000006044820152606401620007f8565b6000838152600b6020819052604090912090810180548415156101000261ffff19909116176001179055600c01620008d6828262003616565b50827f101db68036d705420f12037000ce45c0dc2eccdbb451e04644912e8dc0b228a983836040516200090b929190620036e3565b60405180910390a281156200092557620009258362002911565b505050565b6200093462002b45565b6000818152600660205260409020546001600160a01b03166200096b5760405162461bcd60e51b8152600401620007f8906200354f565b6000818152600660205260409020546001600160a01b03166001816001600160a01b031663200d2ed26040518163ffffffff1660e01b8152600401602060405180830381865afa158015620009c4573d6000803e3d6000fd5b505050506040513d601f19601f82011682018060405250810190620009ea919062003708565b6004811115620009fe57620009fe62003191565b1462000a4d5760405162461bcd60e51b815260206004820152601760248201527f50726f706f73616c20686173206e6f74207061737365640000000000000000006044820152606401620007f8565b806001600160a01b031663b99aeb9a6040518163ffffffff1660e01b8152600401600060405180830381600087803b15801562000a8957600080fd5b505af115801562000a9e573d6000803e3d6000fd5b505050506000806000806000806000876001600160a01b0316632accd1446040518163ffffffff1660e01b8152600401600060405180830381865afa15801562000aec573d6000803e3d6000fd5b505050506040513d6000823e601f3d908101601f1916820160405262000b16919081019062003784565b965096509650965096509650965060006127106005548562000b3991906200387a565b62000b4591906200389a565b9050600062000b558286620038bd565b6040516370a0823160e01b815230600482015290915081906001600160a01b037f000000000000000000000000000000000000000000000000000000000000000016906370a0823190602401602060405180830381865afa15801562000bbf573d6000803e3d6000fd5b505050506040513d601f19601f8201168201806040525081019062000be59190620038d3565b101562000c2a5760405162461bcd60e51b8152602060048201526012602482015271496e73756666696369656e742066756e647360701b6044820152606401620007f8565b7f00000000000000000000000000000000000000000000000000000000000000006001600160a01b031663a9059cbb8b6001600160a01b03166338af3eed6040518163ffffffff1660e01b8152600401602060405180830381865afa15801562000c98573d6000803e3d6000fd5b505050506040513d601f19601f8201168201806040525081019062000cbe9190620038ed565b6040516001600160e01b031960e084901b1681526001600160a01b039091166004820152602481018490526044016020604051808303816000875af115801562000d0c573d6000803e3d6000fd5b505050506040513d601f19601f8201168201806040525081019062000d3291906200390d565b62000d515760405162461bcd60e51b8152600401620007f8906200392d565b806004600082825462000d65919062003956565b92505081905550896001600160a01b03166338af3eed6040518163ffffffff1660e01b8152600401602060405180830381865afa15801562000dab573d6000803e3d6000fd5b505050506040513d601f19601f8201168201806040525081019062000dd19190620038ed565b6001600160a01b03168b7f9f5926601e7fc353505f05fae61282ae5d67b716f95656849456e6aa7bbbbb5f8360405162000e0d91815260200190565b60405180910390a35050505050505050505062000e2960018055565b50565b6007602052816000526040600020818154811062000e4957600080fd5b90600052602060002001600091509150505481565b60008160800151683635c9adc5dea0000081101562000eb75760405162461bcd60e51b8152602060048201526014602482015273416d6f756e742062656c6f77206d696e696d756d60601b6044820152606401620007f8565b69152d02c7e14af680000081111562000f0a5760405162461bcd60e51b8152602060048201526014602482015273416d6f756e742061626f7665206d6178696d756d60601b6044820152606401620007f8565b6001600160a01b03841662000f585760405162461bcd60e51b8152602060048201526013602482015272496e76616c69642062656e656669636961727960681b6044820152606401620007f8565b82515162000f9a5760405162461bcd60e51b815260206004820152600e60248201526d151a5d1b19481c995c5d5a5c995960921b6044820152606401620007f8565b60008360200151511162000fe85760405162461bcd60e51b815260206004820152601460248201527311195cd8dc9a5c1d1a5bdb881c995c5d5a5c995960621b6044820152606401620007f8565b336000908152600e602052604090205460ff166200100b576200100b3362002b70565b600c80549060006200101d836200396c565b9091555050600c546040805160e0810182523381526001600160a01b03878116602080840191825283850189815242606086015260006080860181905260a086018190528651808401885281815260c0870152878152600b909252949020835181549084166001600160a01b03199182161782559151600182018054919094169216919091179091559151805191929160028301908190620010c0908262003616565b5060208201516001820190620010d7908262003616565b5060408201516002820190620010ee908262003616565b50606082015160038201805460ff1916600183600681111562001115576200111562003191565b02179055506080820151600482015560a0820151600582015560c0820151600682019062001144908262003616565b5060e082015180516200116291600784019160209091019062002ca8565b5050506060820151600a8201556080820151600b8201805460a085015115156101000261ff00199315159390931661ffff199091161791909117905560c0820151600c820190620011b4908262003616565b5050600d80546001810182556000919091527fd7b6990105719101dabeb77144f2a3385c8033acd3af97e9423a695e81ad1eb501829055508351604051339183917fba63161e1c7e096aaf63cb63b137eeea26b870df0007c6e2ad029bae55d6517991620012229162003988565b60405180910390a3949350505050565b6001600160a01b0381166200127c5760405162461bcd60e51b815260206004820152600f60248201526e496e76616c6964206164647265737360881b6044820152606401620007f8565b336001600160a01b03821614620012d65760405162461bcd60e51b815260206004820152601f60248201527f4f6e6c792074686520757365722063616e2073656c662d7265676973746572006044820152606401620007f8565b6001600160a01b0381166000908152600e602052604090205460ff1615620013415760405162461bcd60e51b815260206004820152601760248201527f5573657220616c726561647920726567697374657265640000000000000000006044820152606401620007f8565b62000e298162002b70565b6000818152600660205260408120548190819081906001600160a01b0316620013895760405162461bcd60e51b8152600401620007f8906200354f565b600085815260066020908152604091829020548251630a8e4fb960e41b815292516001600160a01b03909116928392839263a8e4fb909260048082019392918290030181865afa158015620013e2573d6000803e3d6000fd5b505050506040513d601f19601f82011682018060405250810190620014089190620038ed565b826001600160a01b03166338af3eed6040518163ffffffff1660e01b8152600401602060405180830381865afa15801562001447573d6000803e3d6000fd5b505050506040513d601f19601f820116820180604052508101906200146d9190620038ed565b836001600160a01b031663200d2ed26040518163ffffffff1660e01b8152600401602060405180830381865afa158015620014ac573d6000803e3d6000fd5b505050506040513d601f19601f82011682018060405250810190620014d2919062003708565b9450945094509450509193509193565b620014ec62002c29565b6040516370a0823160e01b81523060048201527f00000000000000000000000000000000000000000000000000000000000000006001600160a01b0316906370a0823190602401602060405180830381865afa15801562001551573d6000803e3d6000fd5b505050506040513d601f19601f82011682018060405250810190620015779190620038d3565b811115620015bf5760405162461bcd60e51b8152602060048201526014602482015273496e73756666696369656e742062616c616e636560601b6044820152606401620007f8565b7f00000000000000000000000000000000000000000000000000000000000000006001600160a01b031663a9059cbb620016016000546001600160a01b031690565b6040516001600160e01b031960e084901b1681526001600160a01b039091166004820152602481018490526044016020604051808303816000875af11580156200164f573d6000803e3d6000fd5b505050506040513d601f19601f820116820180604052508101906200167591906200390d565b62000e295760405162461bcd60e51b8152600401620007f8906200392d565b620016c96040518060a00160405280600081526020016000815260200160008152602001600081526020016000151581525090565b6001600160a01b0382166000908152600e602052604090205460ff16620017295760405162461bcd60e51b8152602060048201526013602482015272155cd95c881b9bdd081c9959da5cdd195c9959606a1b6044820152606401620007f8565b506001600160a01b03166000908152600f6020908152604091829020825160a081018452815481526001820154928101929092526002810154928201929092526003820154606082015260049091015460ff161515608082015290565b6000818152600b60205260408120600581015460609283929091829184918291906003820190600483019060ff166006811115620017c857620017c862003191565b600784015483546008860190600c8701908690620017e69062003586565b80601f0160208091040260200160405190810160405280929190818152602001828054620018149062003586565b8015620018655780601f10620018395761010080835404028352916020019162001865565b820191906000526020600020905b8154815290600101906020018083116200184757829003601f168201915b505050505095508480546200187a9062003586565b80601f0160208091040260200160405190810160405280929190818152602001828054620018a89062003586565b8015620018f95780601f10620018cd57610100808354040283529160200191620018f9565b820191906000526020600020905b815481529060010190602001808311620018db57829003601f168201915b505050505094508180546200190e9062003586565b80601f01602080910402602001604051908101604052809291908181526020018280546200193c9062003586565b80156200198d5780601f1062001961576101008083540402835291602001916200198d565b820191906000526020600020905b8154815290600101906020018083116200196f57829003601f168201915b50505050509150808054620019a29062003586565b80601f0160208091040260200160405190810160405280929190818152602001828054620019d09062003586565b801562001a215780601f10620019f55761010080835404028352916020019162001a21565b820191906000526020600020905b81548152906001019060200180831162001a0357829003601f168201915b505050505090509650965096509650965096505091939550919395565b600b602052600090815260409081902080546001820154835161010081019094526002830180546001600160a01b03938416959290931693928290829062001a869062003586565b80601f016020809104026020016040519081016040528092919081815260200182805462001ab49062003586565b801562001b055780601f1062001ad95761010080835404028352916020019162001b05565b820191906000526020600020905b81548152906001019060200180831162001ae757829003601f168201915b5050505050815260200160018201805462001b209062003586565b80601f016020809104026020016040519081016040528092919081815260200182805462001b4e9062003586565b801562001b9f5780601f1062001b735761010080835404028352916020019162001b9f565b820191906000526020600020905b81548152906001019060200180831162001b8157829003601f168201915b5050505050815260200160028201805462001bba9062003586565b80601f016020809104026020016040519081016040528092919081815260200182805462001be89062003586565b801562001c395780601f1062001c0d5761010080835404028352916020019162001c39565b820191906000526020600020905b81548152906001019060200180831162001c1b57829003601f168201915b5050509183525050600382015460209091019060ff16600681111562001c635762001c6362003191565b600681111562001c775762001c7762003191565b8152602001600482015481526020016005820154815260200160068201805462001ca19062003586565b80601f016020809104026020016040519081016040528092919081815260200182805462001ccf9062003586565b801562001d205780601f1062001cf45761010080835404028352916020019162001d20565b820191906000526020600020905b81548152906001019060200180831162001d0257829003601f168201915b5050505050815260200160078201805480602002602001604051908101604052809291908181526020016000905b8282101562001e0457838290600052602060002001805462001d709062003586565b80601f016020809104026020016040519081016040528092919081815260200182805462001d9e9062003586565b801562001def5780601f1062001dc35761010080835404028352916020019162001def565b820191906000526020600020905b81548152906001019060200180831162001dd157829003601f168201915b50505050508152602001906001019062001d4e565b50505091525050600a820154600b830154600c840180549394929360ff808416946101009094041692919062001e3a9062003586565b80601f016020809104026020016040519081016040528092919081815260200182805462001e689062003586565b801562001eb95780601f1062001e8d5761010080835404028352916020019162001eb9565b820191906000526020600020905b81548152906001019060200180831162001e9b57829003601f168201915b5050505050905087565b62001ecd62002c29565b62001ed9600062002c58565b565b6001600160a01b03811660009081526007602090815260409182902080548351818402810184019094528084526060939283018282801562001f3d57602002820191906000526020600020905b81548152602001906001019080831162001f28575b50505050509050919050565b62001f5362002c29565b6001600160a01b03811660009081526009602052604090205460ff1662001f8e5760405162461bcd60e51b8152600401620007f89062003526565b6000546001600160a01b03166001600160a01b0316816001600160a01b03160362001ff25760405162461bcd60e51b815260206004820152601360248201527221b0b73737ba103932b6b7bb329037bbb732b960691b6044820152606401620007f8565b6001600160a01b038116600081815260096020526040808220805460ff19169055517f7a9f1e23d5426b34819d173153d59084cc3578d5a129b80bb27df683ac6b22789190a250565b3360009081526009602052604090205460ff16806200206457506000546001600160a01b031633145b620020835760405162461bcd60e51b8152600401620007f89062003526565b6000858152600660205260409020546001600160a01b0316620020ba5760405162461bcd60e51b8152600401620007f8906200354f565b600085815260066020526040908190205490516342d9a84560e01b8152600481018690526024810185905260448101849052606481018390526001600160a01b039091169081906342d9a84590608401600060405180830381600087803b1580156200212557600080fd5b505af11580156200213a573d6000803e3d6000fd5b50505050505050505050565b6001600160a01b0381166000908152600e602052604090205460ff16620021a65760405162461bcd60e51b8152602060048201526013602482015272155cd95c881b9bdd081c9959da5cdd195c9959606a1b6044820152606401620007f8565b336000908152600a602052604090205460ff166200221d5760405162461bcd60e51b815260206004820152602d60248201527f4f6e6c792070726f706f73616c20636f6e7472616374732063616e207570646160448201526c1d19481d9bdd194818dbdd5b9d609a1b6064820152608401620007f8565b6001600160a01b0381166000908152600f6020526040812060030180549162002246836200396c565b90915550506001600160a01b0381166000818152600f602090815260409182902060018101546002820154600390920154845191825292810191909152918201527f18150bb59fba5ca755274cb48b648bf90f73145f789974ca53c857fa925a36f9906060015b60405180910390a250565b620022c262002c29565b6101f4811115620023055760405162461bcd60e51b815260206004820152600c60248201526b08ccaca40e8dede40d0d2ced60a31b6044820152606401620007f8565b600580549082905560408051828152602081018490527fd347e206f25a89b917fc9482f1a2d294d749baa4dc9bde7fb495ee11fe491643910160405180910390a15050565b6200235462002c29565b6001600160a01b0381166200239e5760405162461bcd60e51b815260206004820152600f60248201526e496e76616c6964206164647265737360881b6044820152606401620007f8565b6001600160a01b03811660009081526009602052604090205460ff1615620023ff5760405162461bcd60e51b815260206004820152601360248201527220b63932b0b23c90309036b7b232b930ba37b960691b6044820152606401620007f8565b6001600160a01b038116600081815260096020526040808220805460ff19166001179055517fd378ad41c1a753fd1ba9ec0fcd7970526c175b68545b4a02d6d15e7606fe35969190a250565b6060600d8054806020026020016040519081016040528092919081815260200182805480156200249b57602002820191906000526020600020905b81548152602001906001019080831162002486575b5050505050905090565b620024af62002b45565b60008111620025015760405162461bcd60e51b815260206004820152601d60248201527f416d6f756e74206d7573742062652067726561746572207468616e20300000006044820152606401620007f8565b6040516323b872dd60e01b8152336004820152306024820152604481018290527f00000000000000000000000000000000000000000000000000000000000000006001600160a01b0316906323b872dd906064016020604051808303816000875af115801562002575573d6000803e3d6000fd5b505050506040513d601f19601f820116820180604052508101906200259b91906200390d565b620025ba5760405162461bcd60e51b8152600401620007f8906200392d565b336000908152600e602052604090205460ff16620025dd57620025dd3362002b70565b3360009081526008602052604081208054839290620025fe90849062003956565b92505081905550806003600082825462002619919062003956565b9091555050336000908152600f6020526040812060010180548392906200264290849062003956565b9091555050336000818152600f602090815260409182902060018101546002820154600390920154845191825292810191909152918201527f18150bb59fba5ca755274cb48b648bf90f73145f789974ca53c857fa925a36f99060600160405180910390a260035460405133917f7be992b019ae2b814cc7e81328fd30f2a7d6f6602ab4aa03a40a86707b46de8191620026e491858252602082015260400190565b60405180910390a262000e2960018055565b600d81815481106200270757600080fd5b600091825260209091200154905081565b6000818152600b602081905260408220805460018201546006830154600a840154948401546002850180548897606097899788978897889793966001600160a01b039384169693909216949193909260ff80831692610100900416908590620027819062003586565b80601f0160208091040260200160405190810160405280929190818152602001828054620027af9062003586565b8015620028005780601f10620027d45761010080835404028352916020019162002800565b820191906000526020600020905b815481529060010190602001808311620027e257829003601f168201915b50505050509450975097509750975097509750975050919395979092949650565b6200282b62002c29565b6001600160a01b0381166200285757604051631e4fbdf760e01b815260006004820152602401620007f8565b62000e298162002c58565b600254600354600480546040516370a0823160e01b81523092810192909252600093849384938493906001600160a01b037f000000000000000000000000000000000000000000000000000000000000000016906370a0823190602401602060405180830381865afa158015620028dd573d6000803e3d6000fd5b505050506040513d601f19601f82011682018060405250810190620029039190620038d3565b935093509350935090919293565b6000818152600b6020526040812060028054919262002930836200396c565b90915550506002805482546001840154604051929360009385936001600160a01b0390811693169187019062093a8090683635c9adc5dea00000906033907f0000000000000000000000000000000000000000000000000000000000000000906200299b9062002d05565b620029ae98979695949392919062003a77565b604051809103906000f080158015620029cb573d6000803e3d6000fd5b50600083815260066020908152604080832080546001600160a01b0319166001600160a01b038681169182179092558452600a8352818420805460ff1916600190811790915588548216855260078452828520805491820181558552838520018790558754168352600f909152812060020180549293509062002a4e836200396c565b909155505082546001600160a01b03166000818152600f602090815260409182902060018101546002820154600390920154845191825292810191909152918201527f18150bb59fba5ca755274cb48b648bf90f73145f789974ca53c857fa925a36f99060600160405180910390a2825460068401546040516001600160a01b0380851693169185917f35f722dea8b2845bb2ed781bf0b11f8e69e733bda70d447d6cd2d2c072fe8cde9162002b0a9160028a01919062003b84565b60405180910390a4604051829085907fc6a4fd4a703d2a2fe3167ce7f6d62bf96458b7e55042cfaa85d5c7ef3ac56eea90600090a350505050565b60026001540362002b6957604051633ee5aeb560e01b815260040160405180910390fd5b6002600155565b6001600160a01b0381166000818152600e602090815260408083208054600160ff199182168117909255825160a0810184524280825281860187815282860188815260608401898152608085018781528b8b52600f8a529988902094518555915195840195909555935160028301559251600382015594516004909501805490911694151594909417909355519182527fe29d35093005f4d575e1003753426b57a7f64378ba73332eef9c6ccc2b8decd69101620022ad565b6000546001600160a01b0316331462001ed95760405163118cdaa760e01b8152336004820152602401620007f8565b600080546001600160a01b038381166001600160a01b0319831681178455604051919092169283917f8be0079c531659141344cd1fd0a4f28419497f9722a3daafe3b4186f6b6457e09190a35050565b82805482825590600052602060002090810192821562002cf3579160200282015b8281111562002cf3578251829062002ce2908262003616565b509160200191906001019062002cc9565b5062002d0192915062002d13565b5090565b61192e8062003ba983390190565b8082111562002d0157600062002d2a828262002d34565b5060010162002d13565b50805462002d429062003586565b6000825580601f1062002d53575050565b601f01602090049060005260206000209081019062000e2991905b8082111562002d01576000815560010162002d6e565b60006020828403121562002d9757600080fd5b5035919050565b801515811462000e2957600080fd5b634e487b7160e01b600052604160045260246000fd5b604051610100810167ffffffffffffffff8111828210171562002dea5762002dea62002dad565b60405290565b604051601f8201601f1916810167ffffffffffffffff8111828210171562002e1c5762002e1c62002dad565b604052919050565b600067ffffffffffffffff82111562002e415762002e4162002dad565b50601f01601f191660200190565b600082601f83011262002e6157600080fd5b813562002e7862002e728262002e24565b62002df0565b81815284602083860101111562002e8e57600080fd5b816020850160208301376000918101602001919091529392505050565b60008060006060848603121562002ec157600080fd5b83359250602084013562002ed58162002d9e565b9150604084013567ffffffffffffffff81111562002ef257600080fd5b62002f008682870162002e4f565b9150509250925092565b6001600160a01b038116811462000e2957600080fd5b60006020828403121562002f3357600080fd5b813562002f408162002f0a565b9392505050565b6000806040838503121562002f5b57600080fd5b823562002f688162002f0a565b946020939093013593505050565b6007811062000e2957600080fd5b803562002f918162002f76565b919050565b600082601f83011262002fa857600080fd5b8135602067ffffffffffffffff8083111562002fc85762002fc862002dad565b8260051b62002fd983820162002df0565b938452858101830193838101908886111562002ff457600080fd5b84880192505b858310156200303557823584811115620030145760008081fd5b620030248a87838c010162002e4f565b835250918401919084019062002ffa565b98975050505050505050565b600080604083850312156200305557600080fd5b8235620030628162002f0a565b9150602083013567ffffffffffffffff808211156200308057600080fd5b9084019061010082870312156200309657600080fd5b620030a062002dc3565b823582811115620030b057600080fd5b620030be8882860162002e4f565b825250602083013582811115620030d457600080fd5b620030e28882860162002e4f565b602083015250604083013582811115620030fb57600080fd5b620031098882860162002e4f565b6040830152506200311d6060840162002f84565b60608201526080830135608082015260a083013560a082015260c0830135828111156200314957600080fd5b620031578882860162002e4f565b60c08301525060e0830135828111156200317057600080fd5b6200317e8882860162002f96565b60e0830152508093505050509250929050565b634e487b7160e01b600052602160045260246000fd5b6001600160a01b0385811682528481166020830152831660408201526080810160058310620031da57620031da62003191565b82606083015295945050505050565b60005b8381101562003206578181015183820152602001620031ec565b50506000910152565b6000815180845262003229816020860160208601620031e9565b601f01601f19169290920160200192915050565b60c0815260006200325260c08301896200320f565b82810360208401526200326681896200320f565b905060ff8716604084015285606084015282810360808401526200328b81866200320f565b905082810360a0840152620032a181856200320f565b9998505050505050505050565b60078110620032c157620032c162003191565b9052565b60008282518085526020808601955060208260051b8401016020860160005b848110156200331657601f19868403018952620033038383516200320f565b98840198925090830190600101620032e4565b5090979650505050505050565b6001600160a01b0388811682528716602082015260e06040820181905286516101009183018290526000916200335e6101e08501836200320f565b9150602089015160df198086850301838701526200337d84836200320f565b935060408b0151925080868503016101208701526200339d84846200320f565b935060608b01519250620033b6610140870184620032ae565b60808b015161016087015260a08b015161018087015260c08b0151925080868503016101a0870152620033ea84846200320f565b935060e08b0151925080868503016101c087015250506200340c8282620032c5565b91505086606084015262003424608084018715159052565b84151560a084015282810360c08401526200344081856200320f565b9a9950505050505050505050565b6020808252825182820181905260009190848201906040850190845b8181101562003488578351835292840192918401916001016200346a565b50909695505050505050565b600080600080600060a08688031215620034ad57600080fd5b505083359560208501359550604085013594606081013594506080013592509050565b6001600160a01b0388811682528716602082015260e060408201819052600090620034fe908301886200320f565b606083019690965250608081019390935290151560a0830152151560c0909101529392505050565b6020808252600f908201526e2737ba10309036b7b232b930ba37b960891b604082015260600190565b60208082526017908201527f50726f706f73616c20646f6573206e6f74206578697374000000000000000000604082015260600190565b600181811c908216806200359b57607f821691505b602082108103620035bc57634e487b7160e01b600052602260045260246000fd5b50919050565b601f82111562000925576000816000526020600020601f850160051c81016020861015620035ed5750805b601f850160051c820191505b818110156200360e57828155600101620035f9565b505050505050565b815167ffffffffffffffff81111562003633576200363362002dad565b6200364b8162003644845462003586565b84620035c2565b602080601f8311600181146200368357600084156200366a5750858301515b600019600386901b1c1916600185901b1785556200360e565b600085815260208120601f198616915b82811015620036b45788860151825594840194600190910190840162003693565b5085821015620036d35787850151600019600388901b60f8161c191681555b5050505050600190811b01905550565b82151581526040602082015260006200370060408301846200320f565b949350505050565b6000602082840312156200371b57600080fd5b81516005811062002f4057600080fd5b600082601f8301126200373d57600080fd5b81516200374e62002e728262002e24565b8181528460208386010111156200376457600080fd5b62003700826020830160208701620031e9565b805162002f918162002f76565b600080600080600080600060e0888a031215620037a057600080fd5b875167ffffffffffffffff80821115620037b957600080fd5b620037c78b838c016200372b565b985060208a0151915080821115620037de57600080fd5b620037ec8b838c016200372b565b975060408a01519150808211156200380357600080fd5b620038118b838c016200372b565b96506200382160608b0162003777565b955060808a0151945060a08a0151935060c08a01519150808211156200384657600080fd5b50620038558a828b016200372b565b91505092959891949750929550565b634e487b7160e01b600052601160045260246000fd5b808202811582820484141762003894576200389462003864565b92915050565b600082620038b857634e487b7160e01b600052601260045260246000fd5b500490565b8181038181111562003894576200389462003864565b600060208284031215620038e657600080fd5b5051919050565b6000602082840312156200390057600080fd5b815162002f408162002f0a565b6000602082840312156200392057600080fd5b815162002f408162002d9e565b6020808252600f908201526e151c985b9cd9995c8819985a5b1959608a1b604082015260600190565b8082018082111562003894576200389462003864565b60006001820162003981576200398162003864565b5060010190565b60208152600062002f4060208301846200320f565b60008154620039ac8162003586565b808552602060018381168015620039cc5760018114620039e75762003a17565b60ff1985168884015283151560051b88018301955062003a17565b866000528260002060005b8581101562003a0f5781548a8201860152908301908401620039f2565b890184019650505b505050505092915050565b60008282548085526020808601955060208260051b84010185600052602060002060005b848110156200331657858303601f1901895262003a6483836200399d565b9884019892506001918201910162003a46565b8881526001600160a01b038881166020830152871660408201526101006060820181905281810152600062003ab16102008301886200399d565b60ff19808483030161012085015262003ace8260018b016200399d565b9150808483030161014085015262003aea8260028b016200399d565b915062003afb60038a015460ff1690565b62003b0b610160860182620032ae565b50600489015461018085015260058901546101a085015280848303016101c085015262003b3c8260068b016200399d565b915080848303016101e08501525062003b598160078a0162003a22565b9150508560808301528460a08301528360c0830152620032a160e08301846001600160a01b03169052565b60408152600062003b9960408301856200399d565b9050826020830152939250505056fe60806040523480156200001157600080fd5b506040516200192e3803806200192e833981016040819052620000349162000517565b33806200005b57604051631e4fbdf760e01b81526000600482015260240160405180910390fd5b62000066816200020a565b5060018055601a88905560188054610100600160a81b0319166101006001600160a01b038a81169190910291909117909155601980546001600160a01b031916918816919091179055845185906003908190620000c4908262000744565b5060208201516001820190620000db908262000744565b5060408201516002820190620000f2908262000744565b50606082015160038201805460ff1916600183600681111562000119576200011962000810565b02179055506080820151600482015560a0820151600582015560c0820151600682019062000148908262000744565b5060e08201518051620001669160078401916020909101906200025a565b505050601b839055601c829055600280546001600160a01b0319166001600160a01b03831617905542600f819055620001a190859062000826565b6010556018805460ff19169055845160808601516040516001600160a01b038a16928b927f98120a6aaa04295520ab4e01c6c1235dd316e822cc9ff31db7b3f197366d18bd92620001f49291906200084e565b60405180910390a350505050505050506200088b565b600080546001600160a01b038381166001600160a01b0319831681178455604051919092169283917f8be0079c531659141344cd1fd0a4f28419497f9722a3daafe3b4186f6b6457e09190a35050565b828054828255906000526020600020908101928215620002a5579160200282015b82811115620002a5578251829062000294908262000744565b50916020019190600101906200027b565b50620002b3929150620002b7565b5090565b80821115620002b3576000620002ce8282620002d8565b50600101620002b7565b508054620002e690620006b3565b6000825580601f10620002f7575050565b601f0160209004906000526020600020908101906200031791906200031a565b50565b5b80821115620002b357600081556001016200031b565b80516001600160a01b03811681146200034957600080fd5b919050565b634e487b7160e01b600052604160045260246000fd5b60405161010081016001600160401b03811182821017156200038a576200038a6200034e565b60405290565b604051601f8201601f191681016001600160401b0381118282101715620003bb57620003bb6200034e565b604052919050565b60005b83811015620003e0578181015183820152602001620003c6565b50506000910152565b600082601f830112620003fb57600080fd5b81516001600160401b038111156200041757620004176200034e565b6200042c601f8201601f191660200162000390565b8181528460208386010111156200044257600080fd5b62000455826020830160208701620003c3565b949350505050565b8051600781106200034957600080fd5b600082601f8301126200047f57600080fd5b815160206001600160401b03808311156200049e576200049e6200034e565b8260051b620004af83820162000390565b9384528581018301938381019088861115620004ca57600080fd5b84880192505b858310156200050b57825184811115620004ea5760008081fd5b620004fa8a87838c0101620003e9565b8352509184019190840190620004d0565b98975050505050505050565b600080600080600080600080610100808a8c0312156200053657600080fd5b895198506200054860208b0162000331565b97506200055860408b0162000331565b60608b01519097506001600160401b03808211156200057657600080fd5b818c01915082828e0312156200058b57600080fd5b6200059562000364565b9250815181811115620005a757600080fd5b620005b58e828501620003e9565b845250602082015181811115620005cb57600080fd5b620005d98e828501620003e9565b602085015250604082015181811115620005f257600080fd5b620006008e828501620003e9565b60408501525062000614606083016200045d565b60608401526080820151608084015260a082015160a084015260c0820151818111156200064057600080fd5b6200064e8e828501620003e9565b60c08501525060e0820151818111156200066757600080fd5b620006758e8285016200046d565b60e0850152505050809550506080890151935060a0890151925060c08901519150620006a460e08a0162000331565b90509295985092959890939650565b600181811c90821680620006c857607f821691505b602082108103620006e957634e487b7160e01b600052602260045260246000fd5b50919050565b601f8211156200073f576000816000526020600020601f850160051c810160208610156200071a5750805b601f850160051c820191505b818110156200073b5782815560010162000726565b5050505b505050565b81516001600160401b038111156200076057620007606200034e565b6200077881620007718454620006b3565b84620006ef565b602080601f831160018114620007b05760008415620007975750858301515b600019600386901b1c1916600185901b1785556200073b565b600085815260208120601f198616915b82811015620007e157888601518255948401946001909101908401620007c0565b5085821015620008005787850151600019600388901b60f8161c191681555b5050505050600190811b01905550565b634e487b7160e01b600052602160045260246000fd5b808201808211156200084857634e487b7160e01b600052601160045260246000fd5b92915050565b60408152600083518060408401526200086f816060850160208801620003c3565b602083019390935250601f91909101601f191601606001919050565b611093806200089b6000396000f3fe608060405234801561001057600080fd5b50600436106101375760003560e01c8063715018a6116100b8578063b99aeb9a1161007c578063b99aeb9a146102a0578063cc06d3ce146102a8578063d4923d4e146102ef578063da4a4e4a14610345578063da650ec61461034e578063f2fde38b1461037a57600080fd5b8063715018a6146102545780638da5cb5b1461025c5780639070577f1461026d57806394a1354114610275578063a8e4fb901461028857600080fd5b8063373058b8116100ff578063373058b8146101e157806338af3eed146101eb57806342d9a84514610216578063683d2198146102295780636eb8f6841461023c57600080fd5b8063088868e81461013c578063113e208814610158578063200d2ed2146101a35780632accd144146101bd5780632dfca445146101d8575b600080fd5b610145601b5481565b6040519081526020015b60405180910390f35b600b54600c54600d54600e54600f5460105461017695949392919086565b604080519687526020870195909552938501929092526060840152608083015260a082015260c00161014f565b6018546101b09060ff1681565b60405161014f9190610e01565b6101c561038d565b60405161014f9796959493929190610e5b565b610145601a5481565b6101e96105e4565b005b6019546101fe906001600160a01b031681565b6040516001600160a01b03909116815260200161014f565b6101e9610224366004610ed8565b610759565b6002546101fe906001600160a01b031681565b6102446107d3565b604051901515815260200161014f565b6101e9610833565b6000546001600160a01b03166101fe565b6101e9610845565b6101e9610283366004610f0a565b610951565b6018546101fe9061010090046001600160a01b031681565b6101e9610c2c565b6013546014546015546016546017546102c5949392919060ff1685565b6040805195865260208601949094529284019190915260608301521515608082015260a00161014f565b61032c6102fd366004610f34565b6001600160a01b031660009081526011602090815260408083205460129092529091205460ff91821692911690565b60408051921515835260ff90911660208301520161014f565b610145601c5481565b600b54600c54600d54600e5460408051948552602085019390935291830152606082015260800161014f565b6101e9610388366004610f34565b610cf2565b60038054819061039c90610f5d565b80601f01602080910402602001604051908101604052809291908181526020018280546103c890610f5d565b80156104155780601f106103ea57610100808354040283529160200191610415565b820191906000526020600020905b8154815290600101906020018083116103f857829003601f168201915b50505050509080600101805461042a90610f5d565b80601f016020809104026020016040519081016040528092919081815260200182805461045690610f5d565b80156104a35780601f10610478576101008083540402835291602001916104a3565b820191906000526020600020905b81548152906001019060200180831161048657829003601f168201915b5050505050908060020180546104b890610f5d565b80601f01602080910402602001604051908101604052809291908181526020018280546104e490610f5d565b80156105315780601f1061050657610100808354040283529160200191610531565b820191906000526020600020905b81548152906001019060200180831161051457829003601f168201915b505050600384015460048501546005860154600687018054969760ff909416969295509093509061056190610f5d565b80601f016020809104026020016040519081016040528092919081815260200182805461058d90610f5d565b80156105da5780601f106105af576101008083540402835291602001916105da565b820191906000526020600020905b8154815290600101906020018083116105bd57829003601f168201915b5050505050905087565b601054421161063a5760405162461bcd60e51b815260206004820152601b60248201527f566f74696e6720706572696f6420686173206e6f7420656e646564000000000060448201526064015b60405180910390fd5b610642610d30565b600060185460ff16600481111561065b5761065b610dd7565b146106785760405162461bcd60e51b815260040161063190610f97565b6000601b54600b600301541015610691575060026106e8565b600c54600b546000916106a391610fdd565b9050806000036106b657600291506106e6565b601c54600b5482906106c9906064610ff0565b6106d39190611007565b106106e157600191506106e6565b600291505b505b6018805460ff811691839160ff1916600183600481111561070b5761070b610dd7565b0217905550601a547fb0978968e606225988b6464f99ce7e86b0e8770d80eaec1369bb3780e05c64388284604051610744929190611029565b60405180910390a2505061075760018055565b565b610761610d5a565b60138490556014839055601582905560168190556017805460ff19166001179055601a546040805186815260208101869052908101849052606081018390527ff4f4153c1a7414f5c2d83d2d51c3a0077754652f7dae460b37f2b0fa705a72079060800160405180910390a250505050565b6000601b54600b6003015410156107ea5750600090565b600c54600b546000916107fc91610fdd565b90508060000361080e57600091505090565b601c54600b548290610821906064610ff0565b61082b9190611007565b101591505090565b61083b610d5a565b6107576000610d87565b60185461010090046001600160a01b031633148061086d57506000546001600160a01b031633145b6108c35760405162461bcd60e51b815260206004820152602160248201527f4f6e6c792070726f706f736572206f72206f776e65722063616e2063616e63656044820152601b60fa1b6064820152608401610631565b600060185460ff1660048111156108dc576108dc610dd7565b146108f95760405162461bcd60e51b815260040161063190610f97565b6018805460ff81169160049160ff19166001830217905550601a547fb0978968e606225988b6464f99ce7e86b0e8770d80eaec1369bb3780e05c6438826004604051610946929190611029565b60405180910390a250565b600060185460ff16600481111561096a5761096a610dd7565b146109875760405162461bcd60e51b815260040161063190610f97565b60028160ff1611156109d15760405162461bcd60e51b8152602060048201526013602482015272496e76616c696420766f74652063686f69636560681b6044820152606401610631565b3360009081526011602052604090205460ff1615610a215760405162461bcd60e51b815260206004820152600d60248201526c105b1c9958591e481d9bdd1959609a1b6044820152606401610631565b601054421115610a735760405162461bcd60e51b815260206004820152601760248201527f566f74696e6720706572696f642068617320656e6465640000000000000000006044820152606401610631565b6002546040516370a0823160e01b81523360048201526001600160a01b039091169060009082906370a0823190602401602060405180830381865afa158015610ac0573d6000803e3d6000fd5b505050506040513d601f19601f82011682018060405250810190610ae49190611044565b905060008111610b365760405162461bcd60e51b815260206004820152601960248201527f4e6f20766f74696e6720706f77657220617661696c61626c65000000000000006044820152606401610631565b3360009081526011602090815260408083208054600160ff199182161790915560129092528220805490911660ff8616179055600e8054839290610b7b908490610fdd565b909155505060ff8316600103610bab5780600b6000016000828254610ba09190610fdd565b90915550610be69050565b8260ff16600003610bcb5780600b6001016000828254610ba09190610fdd565b80600b6002016000828254610be09190610fdd565b90915550505b601a546040805160ff861681526020810184905233917f2c9deb38f462962eadbd85a9d3a4120503ee091f1582eaaa10aa8c6797651d29910160405180910390a3505050565b610c34610d5a565b600160185460ff166004811115610c4d57610c4d610dd7565b14610ca55760405162461bcd60e51b815260206004820152602260248201527f50726f706f73616c206d7573742062652070617373656420746f206578656375604482015261746560f01b6064820152608401610631565b6018805460ff81169160039160ff19166001830217905550601a547fb0978968e606225988b6464f99ce7e86b0e8770d80eaec1369bb3780e05c6438826003604051610946929190611029565b610cfa610d5a565b6001600160a01b038116610d2457604051631e4fbdf760e01b815260006004820152602401610631565b610d2d81610d87565b50565b600260015403610d5357604051633ee5aeb560e01b815260040160405180910390fd5b6002600155565b6000546001600160a01b031633146107575760405163118cdaa760e01b8152336004820152602401610631565b600080546001600160a01b038381166001600160a01b0319831681178455604051919092169283917f8be0079c531659141344cd1fd0a4f28419497f9722a3daafe3b4186f6b6457e09190a35050565b634e487b7160e01b600052602160045260246000fd5b60058110610dfd57610dfd610dd7565b9052565b60208101610e0f8284610ded565b92915050565b6000815180845260005b81811015610e3b57602081850181015186830182015201610e1f565b506000602082860101526020601f19601f83011685010191505092915050565b60e081526000610e6e60e083018a610e15565b8281036020840152610e80818a610e15565b90508281036040840152610e948189610e15565b905060078710610ea657610ea6610dd7565b8660608401528560808401528460a084015282810360c0840152610eca8185610e15565b9a9950505050505050505050565b60008060008060808587031215610eee57600080fd5b5050823594602084013594506040840135936060013592509050565b600060208284031215610f1c57600080fd5b813560ff81168114610f2d57600080fd5b9392505050565b600060208284031215610f4657600080fd5b81356001600160a01b0381168114610f2d57600080fd5b600181811c90821680610f7157607f821691505b602082108103610f9157634e487b7160e01b600052602260045260246000fd5b50919050565b60208082526016908201527550726f706f73616c206973206e6f742061637469766560501b604082015260600190565b634e487b7160e01b600052601160045260246000fd5b80820180821115610e0f57610e0f610fc7565b8082028115828204841417610e0f57610e0f610fc7565b60008261102457634e487b7160e01b600052601260045260246000fd5b500490565b604081016110378285610ded565b610f2d6020830184610ded565b60006020828403121561105657600080fd5b505191905056fea2646970667358221220c94f64fc21a8257db583f22de75d22a016f051648e224241a270957e95db8e8c64736f6c63430008180033a2646970667358221220a537ba0a746fda4dc8681b78219a2f0f46ffc7d1c7675c496f75ad17602fe7ca64736f6c63430008180033",
  "linkReferences": {},
  "deployedLinkReferences": {}
}