{
  "_format": "hh-sol-artifact-1",
  "contractName": "ClimateDAO",
  "sourceName": "contracts/ClimateDAO.sol",
  "abi": [
    {
      "inputs": [
        {
          "internalType": "address",
          "name": "_climateToken",
          "type": "address"
        }
      ],
      "stateMutability": "nonpayable",
      "type": "constructor"
    },
    {
      "inputs": [
        {
          "internalType": "address",
          "name": "owner",
          "type": "address"
        }
      ],
      "name": "OwnableInvalidOwner",
      "type": "error"
    },
    {
      "inputs": [
        {
          "internalType": "address",
          "name": "account",
          "type": "address"
        }
      ],
      "name": "OwnableUnauthorizedAccount",
      "type": "error"
    },
    {
      "inputs": [],
      "name": "ReentrancyGuardReentrantCall",
      "type": "error"
    },
    {
      "anonymous": false,
      "inputs": [
        {
          "indexed": true,
          "internalType": "uint256",
          "name": "proposalId",
          "type": "uint256"
        },
        {
          "indexed": true,
          "internalType": "address",
          "name": "beneficiary",
          "type": "address"
        },
        {
          "indexed": false,
          "internalType": "uint256",
          "name": "amount",
          "type": "uint256"
        }
      ],
      "name": "FundsDistributed",
      "type": "event"
    },
    {
      "anonymous": false,
      "inputs": [
        {
          "indexed": true,
          "internalType": "address",
          "name": "donor",
          "type": "address"
        },
        {
          "indexed": false,
          "internalType": "uint256",
          "name": "amount",
          "type": "uint256"
        },
        {
          "indexed": false,
          "internalType": "uint256",
          "name": "totalRaised",
          "type": "uint256"
        }
      ],
      "name": "FundsDonated",
      "type": "event"
    },
    {
      "anonymous": false,
      "inputs": [
        {
          "indexed": true,
          "internalType": "address",
          "name": "moderator",
          "type": "address"
        }
      ],
      "name": "ModeratorAdded",
      "type": "event"
    },
    {
      "anonymous": false,
      "inputs": [
        {
          "indexed": true,
          "internalType": "address",
          "name": "moderator",
          "type": "address"
        }
      ],
      "name": "ModeratorRemoved",
      "type": "event"
    },
    {
      "anonymous": false,
      "inputs": [
        {
          "indexed": true,
          "internalType": "address",
          "name": "previousOwner",
          "type": "address"
        },
        {
          "indexed": true,
          "internalType": "address",
          "name": "newOwner",
          "type": "address"
        }
      ],
      "name": "OwnershipTransferred",
      "type": "event"
    },
    {
      "anonymous": false,
      "inputs": [
        {
          "indexed": false,
          "internalType": "uint256",
          "name": "oldFee",
          "type": "uint256"
        },
        {
          "indexed": false,
          "internalType": "uint256",
          "name": "newFee",
          "type": "uint256"
        }
      ],
      "name": "PlatformFeeUpdated",
      "type": "event"
    },
    {
      "anonymous": false,
      "inputs": [
        {
          "indexed": true,
          "internalType": "uint256",
          "name": "proposalId",
          "type": "uint256"
        },
        {
          "indexed": true,
          "internalType": "address",
          "name": "proposer",
          "type": "address"
        },
        {
          "indexed": true,
          "internalType": "address",
          "name": "proposalContract",
          "type": "address"
        },
        {
          "indexed": false,
          "internalType": "string",
          "name": "title",
          "type": "string"
        },
        {
          "indexed": false,
          "internalType": "uint256",
          "name": "requestedAmount",
          "type": "uint256"
        }
      ],
      "name": "ProposalCreated",
      "type": "event"
    },
    {
      "inputs": [],
      "name": "MAJORITY_THRESHOLD",
      "outputs": [
        {
          "internalType": "uint256",
          "name": "",
          "type": "uint256"
        }
      ],
      "stateMutability": "view",
      "type": "function"
    },
    {
      "inputs": [],
      "name": "MAX_PLATFORM_FEE",
      "outputs": [
        {
          "internalType": "uint256",
          "name": "",
          "type": "uint256"
        }
      ],
      "stateMutability": "view",
      "type": "function"
    },
    {
      "inputs": [],
      "name": "MAX_PROPOSAL_AMOUNT",
      "outputs": [
        {
          "internalType": "uint256",
          "name": "",
          "type": "uint256"
        }
      ],
      "stateMutability": "view",
      "type": "function"
    },
    {
      "inputs": [],
      "name": "MIN_PROPOSAL_AMOUNT",
      "outputs": [
        {
          "internalType": "uint256",
          "name": "",
          "type": "uint256"
        }
      ],
      "stateMutability": "view",
      "type": "function"
    },
    {
      "inputs": [],
      "name": "QUORUM_THRESHOLD",
      "outputs": [
        {
          "internalType": "uint256",
          "name": "",
          "type": "uint256"
        }
      ],
      "stateMutability": "view",
      "type": "function"
    },
    {
      "inputs": [],
      "name": "VOTING_DURATION",
      "outputs": [
        {
          "internalType": "uint256",
          "name": "",
          "type": "uint256"
        }
      ],
      "stateMutability": "view",
      "type": "function"
    },
    {
      "inputs": [
        {
          "internalType": "address",
          "name": "moderator",
          "type": "address"
        }
      ],
      "name": "addModerator",
      "outputs": [],
      "stateMutability": "nonpayable",
      "type": "function"
    },
    {
      "inputs": [],
      "name": "climateToken",
      "outputs": [
        {
          "internalType": "contract ClimateToken",
          "name": "",
          "type": "address"
        }
      ],
      "stateMutability": "view",
      "type": "function"
    },
    {
      "inputs": [
        {
          "internalType": "address",
          "name": "beneficiary",
          "type": "address"
        },
        {
          "components": [
            {
              "internalType": "string",
              "name": "title",
              "type": "string"
            },
            {
              "internalType": "string",
              "name": "description",
              "type": "string"
            },
            {
              "internalType": "string",
              "name": "location",
              "type": "string"
            },
            {
              "internalType": "enum Proposal.ProjectCategory",
              "name": "category",
              "type": "uint8"
            },
            {
              "internalType": "uint256",
              "name": "requestedAmount",
              "type": "uint256"
            },
            {
              "internalType": "uint256",
              "name": "duration",
              "type": "uint256"
            },
            {
              "internalType": "string",
              "name": "website",
              "type": "string"
            },
            {
              "internalType": "string[]",
              "name": "images",
              "type": "string[]"
            }
          ],
          "internalType": "struct Proposal.ProjectDetails",
          "name": "projectDetails",
          "type": "tuple"
        }
      ],
      "name": "createProposal",
      "outputs": [
        {
          "internalType": "uint256",
          "name": "",
          "type": "uint256"
        }
      ],
      "stateMutability": "nonpayable",
      "type": "function"
    },
    {
      "inputs": [
        {
          "internalType": "uint256",
          "name": "amount",
          "type": "uint256"
        }
      ],
      "name": "donateFunds",
      "outputs": [],
      "stateMutability": "nonpayable",
      "type": "function"
    },
    {
      "inputs": [
        {
          "internalType": "uint256",
          "name": "proposalId",
          "type": "uint256"
        }
      ],
      "name": "executeProposal",
      "outputs": [],
      "stateMutability": "nonpayable",
      "type": "function"
    },
    {
      "inputs": [],
      "name": "getDAOStats",
      "outputs": [
        {
          "internalType": "uint256",
          "name": "totalProposals",
          "type": "uint256"
        },
        {
          "internalType": "uint256",
          "name": "totalRaised",
          "type": "uint256"
        },
        {
          "internalType": "uint256",
          "name": "totalDistributed",
          "type": "uint256"
        },
        {
          "internalType": "uint256",
          "name": "currentBalance",
          "type": "uint256"
        }
      ],
      "stateMutability": "view",
      "type": "function"
    },
    {
      "inputs": [
        {
          "internalType": "uint256",
          "name": "proposalId",
          "type": "uint256"
        }
      ],
      "name": "getProposalDetails",
      "outputs": [
        {
          "internalType": "address",
          "name": "proposalAddress",
          "type": "address"
        },
        {
          "internalType": "address",
          "name": "proposer",
          "type": "address"
        },
        {
          "internalType": "address",
          "name": "beneficiary",
          "type": "address"
        },
        {
          "internalType": "enum Proposal.ProposalStatus",
          "name": "status",
          "type": "uint8"
        }
      ],
      "stateMutability": "view",
      "type": "function"
    },
    {
      "inputs": [
        {
          "internalType": "address",
          "name": "user",
          "type": "address"
        }
      ],
      "name": "getUserProposals",
      "outputs": [
        {
          "internalType": "uint256[]",
          "name": "",
          "type": "uint256[]"
        }
      ],
      "stateMutability": "view",
      "type": "function"
    },
    {
      "inputs": [
        {
          "internalType": "address",
          "name": "",
          "type": "address"
        }
      ],
      "name": "isModerator",
      "outputs": [
        {
          "internalType": "bool",
          "name": "",
          "type": "bool"
        }
      ],
      "stateMutability": "view",
      "type": "function"
    },
    {
      "inputs": [],
      "name": "owner",
      "outputs": [
        {
          "internalType": "address",
          "name": "",
          "type": "address"
        }
      ],
      "stateMutability": "view",
      "type": "function"
    },
    {
      "inputs": [],
      "name": "platformFee",
      "outputs": [
        {
          "internalType": "uint256",
          "name": "",
          "type": "uint256"
        }
      ],
      "stateMutability": "view",
      "type": "function"
    },
    {
      "inputs": [],
      "name": "proposalCounter",
      "outputs": [
        {
          "internalType": "uint256",
          "name": "",
          "type": "uint256"
        }
      ],
      "stateMutability": "view",
      "type": "function"
    },
    {
      "inputs": [
        {
          "internalType": "uint256",
          "name": "",
          "type": "uint256"
        }
      ],
      "name": "proposals",
      "outputs": [
        {
          "internalType": "address",
          "name": "",
          "type": "address"
        }
      ],
      "stateMutability": "view",
      "type": "function"
    },
    {
      "inputs": [
        {
          "internalType": "address",
          "name": "moderator",
          "type": "address"
        }
      ],
      "name": "removeModerator",
      "outputs": [],
      "stateMutability": "nonpayable",
      "type": "function"
    },
    {
      "inputs": [],
      "name": "renounceOwnership",
      "outputs": [],
      "stateMutability": "nonpayable",
      "type": "function"
    },
    {
      "inputs": [],
      "name": "totalFundsDistributed",
      "outputs": [
        {
          "internalType": "uint256",
          "name": "",
          "type": "uint256"
        }
      ],
      "stateMutability": "view",
      "type": "function"
    },
    {
      "inputs": [],
      "name": "totalFundsRaised",
      "outputs": [
        {
          "internalType": "uint256",
          "name": "",
          "type": "uint256"
        }
      ],
      "stateMutability": "view",
      "type": "function"
    },
    {
      "inputs": [
        {
          "internalType": "address",
          "name": "newOwner",
          "type": "address"
        }
      ],
      "name": "transferOwnership",
      "outputs": [],
      "stateMutability": "nonpayable",
      "type": "function"
    },
    {
      "inputs": [
        {
          "internalType": "uint256",
          "name": "newFee",
          "type": "uint256"
        }
      ],
      "name": "updatePlatformFee",
      "outputs": [],
      "stateMutability": "nonpayable",
      "type": "function"
    },
    {
      "inputs": [
        {
          "internalType": "uint256",
          "name": "proposalId",
          "type": "uint256"
        },
        {
          "internalType": "uint256",
          "name": "co2Reduction",
          "type": "uint256"
        },
        {
          "internalType": "uint256",
          "name": "energyGeneration",
          "type": "uint256"
        },
        {
          "internalType": "uint256",
          "name": "jobsCreated",
          "type": "uint256"
        },
        {
          "internalType": "uint256",
          "name": "aiScore",
          "type": "uint256"
        }
      ],
      "name": "updateProposalImpactMetrics",
      "outputs": [],
      "stateMutability": "nonpayable",
      "type": "function"
    },
    {
      "inputs": [
        {
          "internalType": "address",
          "name": "",
          "type": "address"
        }
      ],
      "name": "userContributions",
      "outputs": [
        {
          "internalType": "uint256",
          "name": "",
          "type": "uint256"
        }
      ],
      "stateMutability": "view",
      "type": "function"
    },
    {
      "inputs": [
        {
          "internalType": "address",
          "name": "",
          "type": "address"
        },
        {
          "internalType": "uint256",
          "name": "",
          "type": "uint256"
        }
      ],
      "name": "userProposals",
      "outputs": [
        {
          "internalType": "uint256",
          "name": "",
          "type": "uint256"
        }
      ],
      "stateMutability": "view",
      "type": "function"
    },
    {
      "inputs": [
        {
          "internalType": "uint256",
          "name": "amount",
          "type": "uint256"
        }
      ],
      "name": "withdrawFees",
      "outputs": [],
      "stateMutability": "nonpayable",
      "type": "function"
    }
  ],
  "bytecode": "0x60a060405260fa6005553480156200001657600080fd5b506040516200857e3803806200857e83398181016040528101906200003c9190620002e3565b33600073ffffffffffffffffffffffffffffffffffffffff168173ffffffffffffffffffffffffffffffffffffffff1603620000b25760006040517f1e4fbdf7000000000000000000000000000000000000000000000000000000008152600401620000a9919062000326565b60405180910390fd5b620000c381620001b260201b60201c565b5060018081905550620000e76785a9785c4c6f00c160c01b6200027660201b60201c565b6200010367c62318f22e191c7960c01b6200027660201b60201c565b8073ffffffffffffffffffffffffffffffffffffffff1660808173ffffffffffffffffffffffffffffffffffffffff168152505062000153677405d5820c7f524660c01b6200027660201b60201c565b6001600960003373ffffffffffffffffffffffffffffffffffffffff1673ffffffffffffffffffffffffffffffffffffffff16815260200190815260200160002060006101000a81548160ff0219169083151502179055505062000343565b60008060009054906101000a900473ffffffffffffffffffffffffffffffffffffffff169050816000806101000a81548173ffffffffffffffffffffffffffffffffffffffff021916908373ffffffffffffffffffffffffffffffffffffffff1602179055508173ffffffffffffffffffffffffffffffffffffffff168173ffffffffffffffffffffffffffffffffffffffff167f8be0079c531659141344cd1fd0a4f28419497f9722a3daafe3b4186f6b6457e060405160405180910390a35050565b50565b600080fd5b600073ffffffffffffffffffffffffffffffffffffffff82169050919050565b6000620002ab826200027e565b9050919050565b620002bd816200029e565b8114620002c957600080fd5b50565b600081519050620002dd81620002b2565b92915050565b600060208284031215620002fc57620002fb62000279565b5b60006200030c84828501620002cc565b91505092915050565b62000320816200029e565b82525050565b60006020820190506200033d600083018462000315565b92915050565b6080516181f56200038960003960008181610b8201528181610cbd0152818161130c015281816113d10152818161150c015281816123b60152612d6b01526181f56000f3fe60806040523480156200001157600080fd5b5060043610620001fc5760003560e01c80635e510b60116200011d578063aa0b598811620000b1578063f2fde38b116200007b578063f2fde38b1462000596578063f540ac2e14620005b6578063fa6f393614620005ec578063ffc4bfde146200062257620001fc565b8063aa0b59881462000514578063b532e4cb1462000534578063d32521a01462000554578063db9b9542146200057457620001fc565b8063869d785f11620000f3578063869d785f14620004905780638da5cb5b14620004b05780639daa94f114620004d2578063a438d20814620004f257620001fc565b80635e510b60146200042c578063715018a6146200044e57806378ef1138146200045a57620001fc565b80633340a17611620001955780633de98b43116200016b5780633de98b4314620003a6578063427c0c7f14620003c857806358462d0c14620003ea5780635e318e07146200040c57620001fc565b80633340a17614620003295780633998a681146200034b5780633b4d01a7146200036d57620001fc565b80630f6ca1a811620001d75780630f6ca1a8146200027957806319bee47414620002af5780631b31527f14620002d157806326232a2e146200030757620001fc565b8063013cf08b14620002015780630c0512e914620002375780630d61b5191462000259575b600080fd5b6200021f60048036038101906200021991906200302d565b62000647565b6040516200022e9190620030a4565b60405180910390f35b620002416200067a565b604051620002509190620030d2565b60405180910390f35b6200027760048036038101906200027191906200302d565b62000680565b005b62000297600480360381019062000291919062003120565b62000f5d565b604051620002a69190620030d2565b60405180910390f35b620002b962000f75565b604051620002c89190620030d2565b60405180910390f35b620002ef6004803603810190620002e9919062003152565b62000f7b565b604051620002fe9190620030d2565b60405180910390f35b6200031162000fad565b604051620003209190620030d2565b60405180910390f35b6200033362000fb3565b604051620003429190620030d2565b60405180910390f35b6200035562000fc1565b604051620003649190620030d2565b60405180910390f35b6200038b60048036038101906200038591906200302d565b62000fc7565b6040516200039d949392919062003219565b60405180910390f35b620003b06200130a565b604051620003bf9190620032d1565b60405180910390f35b620003d26200132e565b604051620003e19190620030d2565b60405180910390f35b620003f462001334565b604051620004039190620030d2565b60405180910390f35b6200042a60048036038101906200042491906200302d565b62001341565b005b6200043662001611565b604051620004459190620030d2565b60405180910390f35b620004586200161e565b005b62000478600480360381019062000472919062003120565b62001636565b604051620004879190620033bc565b60405180910390f35b620004ae6004803603810190620004a8919062003120565b62001711565b005b620004ba620019f6565b604051620004c99190620030a4565b60405180910390f35b620004f06004803603810190620004ea9190620033e0565b62001a1f565b005b620004fc62001dfc565b6040516200050b9190620030d2565b60405180910390f35b6200053260048036038101906200052c91906200302d565b62001e03565b005b6200055260048036038101906200054c919062003120565b62001faa565b005b6200057260048036038101906200056c91906200302d565b62002288565b005b6200057e620025dd565b6040516200058d9190620030d2565b60405180910390f35b620005b46004803603810190620005ae919062003120565b620025e2565b005b620005d46004803603810190620005ce919062003872565b6200266f565b604051620005e39190620030d2565b60405180910390f35b6200060a600480360381019062000604919062003120565b62002cf8565b604051620006199190620038f5565b60405180910390f35b6200062c62002d18565b6040516200063e949392919062003912565b60405180910390f35b60066020528060005260406000206000915054906101000a900473ffffffffffffffffffffffffffffffffffffffff1681565b60025481565b620006966727b016dfb1821c0a60c01b62002e16565b620006a062002e19565b620006b6673162ba2879f589ca60c01b62002e16565b620006cc675c99ff36d7e6906f60c01b62002e16565b620006e267955c4486e16a709660c01b62002e16565b620006f867d9f888105cab9bfb60c01b62002e16565b6200070e6754b6009ed53fecbb60c01b62002e16565b600073ffffffffffffffffffffffffffffffffffffffff166006600083815260200190815260200160002060009054906101000a900473ffffffffffffffffffffffffffffffffffffffff1673ffffffffffffffffffffffffffffffffffffffff1603620007b3576040517f08c379a0000000000000000000000000000000000000000000000000000000008152600401620007aa90620039c0565b60405180910390fd5b620007c967a5e1889bb4c6401560c01b62002e16565b620007df67341f363d911aa21f60c01b62002e16565b620007f5676b03d10df1f3134360c01b62002e16565b60006006600083815260200190815260200160002060009054906101000a900473ffffffffffffffffffffffffffffffffffffffff1690506200084367e7f11f838edc17be60c01b62002e16565b6200085967337a635b598fc95260c01b62002e16565b6200086f67e05dbf5c070ce66f60c01b62002e16565b6001600481111562000886576200088562003199565b5b8173ffffffffffffffffffffffffffffffffffffffff1663200d2ed26040518163ffffffff1660e01b8152600401602060405180830381865afa158015620008d2573d6000803e3d6000fd5b505050506040513d601f19601f82011682018060405250810190620008f8919062003a0a565b60048111156200090d576200090c62003199565b5b1462000950576040517f08c379a0000000000000000000000000000000000000000000000000000000008152600401620009479062003a8c565b60405180910390fd5b620009666715a5ebbd7ab08e8360c01b62002e16565b6200097c671371e1d6da30569760c01b62002e16565b6200099267dcee39c112ae730360c01b62002e16565b8073ffffffffffffffffffffffffffffffffffffffff1663b99aeb9a6040518163ffffffff1660e01b8152600401600060405180830381600087803b158015620009db57600080fd5b505af1158015620009f0573d6000803e3d6000fd5b5050505062000a0a67be2991e7b8d5dd0960c01b62002e16565b62000a20676a57bf0f42a19e4160c01b62002e16565b60008060008060008060008773ffffffffffffffffffffffffffffffffffffffff16632accd1446040518163ffffffff1660e01b8152600401600060405180830381865afa15801562000a77573d6000803e3d6000fd5b505050506040513d6000823e3d601f19601f8201168201806040525081019062000aa2919062003b86565b965096509650965096509650965062000ac667e508511e74b083ae60c01b62002e16565b62000adc67e6a9d1c7227a94a160c01b62002e16565b60006127106005548562000af1919062003ce4565b62000afd919062003d5e565b905062000b1567a06d3a044b6bc11f60c01b62002e16565b62000b2b6737a9199f5f0b898260c01b62002e16565b6000818562000b3b919062003d96565b905062000b5367a1737f81d413d8fb60c01b62002e16565b62000b69679549c430f3b3deca60c01b62002e16565b62000b7f6758abc69c2965fd7360c01b62002e16565b807f000000000000000000000000000000000000000000000000000000000000000073ffffffffffffffffffffffffffffffffffffffff166370a08231306040518263ffffffff1660e01b815260040162000bdb9190620030a4565b602060405180830381865afa15801562000bf9573d6000803e3d6000fd5b505050506040513d601f19601f8201168201806040525081019062000c1f919062003dd1565b101562000c63576040517f08c379a000000000000000000000000000000000000000000000000000000000815260040162000c5a9062003e53565b60405180910390fd5b62000c796725c1d90b7ba469fd60c01b62002e16565b62000c8f6723dad7d183889e7260c01b62002e16565b62000ca567ef6c7477495bd99060c01b62002e16565b62000cbb67bb8a8497a359882260c01b62002e16565b7f000000000000000000000000000000000000000000000000000000000000000073ffffffffffffffffffffffffffffffffffffffff1663a9059cbb8b73ffffffffffffffffffffffffffffffffffffffff166338af3eed6040518163ffffffff1660e01b8152600401602060405180830381865afa15801562000d43573d6000803e3d6000fd5b505050506040513d601f19601f8201168201806040525081019062000d69919062003e8c565b836040518363ffffffff1660e01b815260040162000d8992919062003ebe565b6020604051808303816000875af115801562000da9573d6000803e3d6000fd5b505050506040513d601f19601f8201168201806040525081019062000dcf919062003f1c565b62000e11576040517f08c379a000000000000000000000000000000000000000000000000000000000815260040162000e089062003f9e565b60405180910390fd5b62000e2767bbacd268c15707c560c01b62002e16565b62000e3d67444dde0f5fcfd30b60c01b62002e16565b806004600082825462000e51919062003fc0565b9250508190555062000e6e676e38b51bb1ce335b60c01b62002e16565b62000e8467ad39e2b2e918108760c01b62002e16565b8973ffffffffffffffffffffffffffffffffffffffff166338af3eed6040518163ffffffff1660e01b8152600401602060405180830381865afa15801562000ed0573d6000803e3d6000fd5b505050506040513d601f19601f8201168201806040525081019062000ef6919062003e8c565b73ffffffffffffffffffffffffffffffffffffffff168b7f9f5926601e7fc353505f05fae61282ae5d67b716f95656849456e6aa7bbbbb5f8360405162000f3e9190620030d2565b60405180910390a35050505050505050505062000f5a62002e60565b50565b60086020528060005260406000206000915090505481565b60045481565b6007602052816000526040600020818154811062000f9857600080fd5b90600052602060002001600091509150505481565b60055481565b69152d02c7e14af680000081565b6101f481565b60008060008062000fe367e038db09655e1b6160c01b62002e16565b62000ff967400897c73373a50e60c01b62002e16565b6200100f678aa7742b2ac06f6660c01b62002e16565b6200102567befcf94ba5e295d660c01b62002e16565b600073ffffffffffffffffffffffffffffffffffffffff166006600087815260200190815260200160002060009054906101000a900473ffffffffffffffffffffffffffffffffffffffff1673ffffffffffffffffffffffffffffffffffffffff1603620010ca576040517f08c379a0000000000000000000000000000000000000000000000000000000008152600401620010c190620039c0565b60405180910390fd5b620010e06781b11d3373fea88360c01b62002e16565b620010f667012daf7d853ef3d760c01b62002e16565b6200110c67b5f7556f86e40ef360c01b62002e16565b60006006600087815260200190815260200160002060009054906101000a900473ffffffffffffffffffffffffffffffffffffffff1690506200115a679052f2d4ea6ee3ae60c01b62002e16565b6200117067dbeddbea9352983060c01b62002e16565b6006600087815260200190815260200160002060009054906101000a900473ffffffffffffffffffffffffffffffffffffffff168173ffffffffffffffffffffffffffffffffffffffff1663a8e4fb906040518163ffffffff1660e01b8152600401602060405180830381865afa158015620011f0573d6000803e3d6000fd5b505050506040513d601f19601f8201168201806040525081019062001216919062003e8c565b8273ffffffffffffffffffffffffffffffffffffffff166338af3eed6040518163ffffffff1660e01b8152600401602060405180830381865afa15801562001262573d6000803e3d6000fd5b505050506040513d601f19601f8201168201806040525081019062001288919062003e8c565b8373ffffffffffffffffffffffffffffffffffffffff1663200d2ed26040518163ffffffff1660e01b8152600401602060405180830381865afa158015620012d4573d6000803e3d6000fd5b505050506040513d601f19601f82011682018060405250810190620012fa919062003a0a565b9450945094509450509193509193565b7f000000000000000000000000000000000000000000000000000000000000000081565b60035481565b683635c9adc5dea0000081565b6200135767fd4917307376289960c01b62002e16565b6200136162002e69565b6200137767c23bf76cc8bb3f0f60c01b62002e16565b6200138d6705ef09daefdd670760c01b62002e16565b620013a3673b51db99edd0128360c01b62002e16565b620013b9672dfd83515a6bbf6260c01b62002e16565b620013cf67072abf7df7c5844f60c01b62002e16565b7f000000000000000000000000000000000000000000000000000000000000000073ffffffffffffffffffffffffffffffffffffffff166370a08231306040518263ffffffff1660e01b81526004016200142a9190620030a4565b602060405180830381865afa15801562001448573d6000803e3d6000fd5b505050506040513d601f19601f820116820180604052508101906200146e919062003dd1565b811115620014b3576040517f08c379a0000000000000000000000000000000000000000000000000000000008152600401620014aa906200404b565b60405180910390fd5b620014c967e6523ebd9537e9c760c01b62002e16565b620014df676ffd4266854a5c8160c01b62002e16565b620014f4666a2a3eee9eacdb60c01b62002e16565b6200150a67cf950c59337124c160c01b62002e16565b7f000000000000000000000000000000000000000000000000000000000000000073ffffffffffffffffffffffffffffffffffffffff1663a9059cbb62001550620019f6565b836040518363ffffffff1660e01b81526004016200157092919062003ebe565b6020604051808303816000875af115801562001590573d6000803e3d6000fd5b505050506040513d601f19601f82011682018060405250810190620015b6919062003f1c565b620015f8576040517f08c379a0000000000000000000000000000000000000000000000000000000008152600401620015ef9062003f9e565b60405180910390fd5b6200160e677656f7e65a092d3760c01b62002e16565b50565b683635c9adc5dea0000081565b6200162862002e69565b62001634600062002ef9565b565b60606200164e6792515b125dfef76d60c01b62002e16565b62001664674554cbcf55b4c65d60c01b62002e16565b6200167a67660fb5465926d90060c01b62002e16565b600760008373ffffffffffffffffffffffffffffffffffffffff1673ffffffffffffffffffffffffffffffffffffffff1681526020019081526020016000208054806020026020016040519081016040528092919081815260200182805480156200170557602002820191906000526020600020905b815481526020019060010190808311620016f0575b50505050509050919050565b6200172767d9e5dcfecafb777e60c01b62002e16565b6200173162002e69565b6200174767922aefe5e0f77bd160c01b62002e16565b6200175d673e6d2a090041eb3060c01b62002e16565b6200177367c75e2d8c57747ced60c01b62002e16565b62001789677ea35fdba102866860c01b62002e16565b6200179f676a6bb2b98a0f9cfd60c01b62002e16565b600960008273ffffffffffffffffffffffffffffffffffffffff1673ffffffffffffffffffffffffffffffffffffffff16815260200190815260200160002060009054906101000a900460ff166200182e576040517f08c379a00000000000000000000000000000000000000000000000000000000081526004016200182590620040bd565b60405180910390fd5b62001844674ddf9e433ca49b0860c01b62002e16565b6200185a67fa4c540e9cc43a8560c01b62002e16565b62001870670d43b001e661ca7c60c01b62002e16565b6200188667a76401a7c9e857b960c01b62002e16565b62001890620019f6565b73ffffffffffffffffffffffffffffffffffffffff168173ffffffffffffffffffffffffffffffffffffffff160362001900576040517f08c379a0000000000000000000000000000000000000000000000000000000008152600401620018f7906200412f565b60405180910390fd5b620019166719426f475d15f3bc60c01b62002e16565b6200192c679295ee89427c001f60c01b62002e16565b6000600960008373ffffffffffffffffffffffffffffffffffffffff1673ffffffffffffffffffffffffffffffffffffffff16815260200190815260200160002060006101000a81548160ff0219169083151502179055506200199a6789869dabdc601ac660c01b62002e16565b620019b06726ad39f56659475560c01b62002e16565b8073ffffffffffffffffffffffffffffffffffffffff167f7a9f1e23d5426b34819d173153d59084cc3578d5a129b80bb27df683ac6b227860405160405180910390a250565b60008060009054906101000a900473ffffffffffffffffffffffffffffffffffffffff16905090565b62001a3567271762625dd4531e60c01b62002e16565b62001a4b670456d57ef9c2d81860c01b62002e16565b62001a6167d36a4c43b93511fd60c01b62002e16565b62001a7767eb8c30e68f05a2f760c01b62002e16565b62001a8d67742041459836f2e160c01b62002e16565b600960003373ffffffffffffffffffffffffffffffffffffffff1673ffffffffffffffffffffffffffffffffffffffff16815260200190815260200160002060009054906101000a900460ff16801562001af9575062001af867e6fd12b5bac1c6ca60c01b62002fbd565b5b8062001b58575062001b0a620019f6565b73ffffffffffffffffffffffffffffffffffffffff163373ffffffffffffffffffffffffffffffffffffffff1614801562001b57575062001b566776ec6651dba1ac8460c01b62002fbd565b5b5b62001b9a576040517f08c379a000000000000000000000000000000000000000000000000000000000815260040162001b9190620040bd565b60405180910390fd5b62001bb06718b6a803cec0906b60c01b62002e16565b62001bc667dc977dc9fcf7823160c01b62002e16565b62001bdc67fc1b2c826fafaeeb60c01b62002e16565b62001bf2672cdf926d019e85cc60c01b62002e16565b62001c0867542ec739ca9f5bec60c01b62002e16565b62001c1e676bfa0a5fab65dd1a60c01b62002e16565b62001c346795cf7b381c2c71e960c01b62002e16565b600073ffffffffffffffffffffffffffffffffffffffff166006600087815260200190815260200160002060009054906101000a900473ffffffffffffffffffffffffffffffffffffffff1673ffffffffffffffffffffffffffffffffffffffff160362001cd9576040517f08c379a000000000000000000000000000000000000000000000000000000000815260040162001cd090620039c0565b60405180910390fd5b62001cef67f77e82881c9598d960c01b62002e16565b62001d0567ca4331fe7f5d007e60c01b62002e16565b62001d1b6751524a0088541ec360c01b62002e16565b60006006600087815260200190815260200160002060009054906101000a900473ffffffffffffffffffffffffffffffffffffffff16905062001d696707c3b11569b30bfe60c01b62002e16565b62001d7f67d6e2dc51efd3602560c01b62002e16565b8073ffffffffffffffffffffffffffffffffffffffff166342d9a845868686866040518563ffffffff1660e01b815260040162001dc0949392919062003912565b600060405180830381600087803b15801562001ddb57600080fd5b505af115801562001df0573d6000803e3d6000fd5b50505050505050505050565b62093a8081565b62001e1967645bcd2895377ed460c01b62002e16565b62001e2362002e69565b62001e39671e2414ff2aa97b2a60c01b62002e16565b62001e4f679acce77ce1e41df060c01b62002e16565b62001e656706503564ebae574560c01b62002e16565b62001e7b6730dc0aeffff8529c60c01b62002e16565b62001e9167b26b8ba36f79e08d60c01b62002e16565b6101f481111562001ed9576040517f08c379a000000000000000000000000000000000000000000000000000000000815260040162001ed090620041a1565b60405180910390fd5b62001eef67c12eb17d1c4003fd60c01b62002e16565b62001f05670b6bdf8d64b88e5f60c01b62002e16565b62001f1b6770e355eaf6f0f29d60c01b62002e16565b6000600554905062001f3867cdb73d45ab47f0f060c01b62002e16565b8160058190555062001f5567ee3aebd1d8a5dd2360c01b62002e16565b62001f6b671e2e7498cb56e0f660c01b62002e16565b7fd347e206f25a89b917fc9482f1a2d294d749baa4dc9bde7fb495ee11fe491643818360405162001f9e929190620041c3565b60405180910390a15050565b62001fc067eecd2c93908f92a660c01b62002e16565b62001fca62002e69565b62001fe067f39e7f7129c8a76a60c01b62002e16565b62001ff6678e94748cb1a1e73660c01b62002e16565b6200200c671dfbdabb454367fe60c01b62002e16565b6200202267a55837fbb0ecc6cc60c01b62002e16565b6200203867112a48c043d3c9b960c01b62002e16565b600073ffffffffffffffffffffffffffffffffffffffff168173ffffffffffffffffffffffffffffffffffffffff1603620020aa576040517f08c379a0000000000000000000000000000000000000000000000000000000008152600401620020a19062004240565b60405180910390fd5b620020c0675bf4a6b96697847060c01b62002e16565b620020d66787ec0df9d15476e360c01b62002e16565b620020ec673a6cdbe37774c2ed60c01b62002e16565b6200210267359ab6de283a691360c01b62002e16565b600960008273ffffffffffffffffffffffffffffffffffffffff1673ffffffffffffffffffffffffffffffffffffffff16815260200190815260200160002060009054906101000a900460ff161562002192576040517f08c379a00000000000000000000000000000000000000000000000000000000081526004016200218990620042b2565b60405180910390fd5b620021a8674b95e6b75e9b113a60c01b62002e16565b620021be678d44685c57284ca560c01b62002e16565b6001600960008373ffffffffffffffffffffffffffffffffffffffff1673ffffffffffffffffffffffffffffffffffffffff16815260200190815260200160002060006101000a81548160ff0219169083151502179055506200222c6784a8789179994cdb60c01b62002e16565b6200224267f26a095dfb9c16a660c01b62002e16565b8073ffffffffffffffffffffffffffffffffffffffff167fd378ad41c1a753fd1ba9ec0fcd7970526c175b68545b4a02d6d15e7606fe359660405160405180910390a250565b6200229e6720c8e09887af54b760c01b62002e16565b620022a862002e19565b620022be67e89c856373c11aea60c01b62002e16565b620022d4671ed397f5a13e71cc60c01b62002e16565b620022ea677da7b12a3b41e34860c01b62002e16565b620023006714498920138c7bc260c01b62002e16565b62002316672feb15a27e60057a60c01b62002e16565b600081116200235c576040517f08c379a0000000000000000000000000000000000000000000000000000000008152600401620023539062004324565b60405180910390fd5b6200237267a4e179437a77b29b60c01b62002e16565b62002388677ee97a80e5b147b260c01b62002e16565b6200239e67a34fcd52fd7ee86d60c01b62002e16565b620023b46798dab8a030ddad2360c01b62002e16565b7f000000000000000000000000000000000000000000000000000000000000000073ffffffffffffffffffffffffffffffffffffffff166323b872dd3330846040518463ffffffff1660e01b8152600401620024139392919062004346565b6020604051808303816000875af115801562002433573d6000803e3d6000fd5b505050506040513d601f19601f8201168201806040525081019062002459919062003f1c565b6200249b576040517f08c379a0000000000000000000000000000000000000000000000000000000008152600401620024929062003f9e565b60405180910390fd5b620024b1676b28ace067bdf6b860c01b62002e16565b620024c7679aecf2a3fc5502c160c01b62002e16565b80600860003373ffffffffffffffffffffffffffffffffffffffff1673ffffffffffffffffffffffffffffffffffffffff168152602001908152602001600020600082825462002518919062003fc0565b9250508190555062002535672b2927d8686d458f60c01b62002e16565b806003600082825462002549919062003fc0565b925050819055506200256667c433067db8aa11a460c01b62002e16565b6200257c677db06e68f2aa64c060c01b62002e16565b3373ffffffffffffffffffffffffffffffffffffffff167f7be992b019ae2b814cc7e81328fd30f2a7d6f6602ab4aa03a40a86707b46de8182600354604051620025c8929190620041c3565b60405180910390a2620025da62002e60565b50565b603381565b620025ec62002e69565b600073ffffffffffffffffffffffffffffffffffffffff168173ffffffffffffffffffffffffffffffffffffffff1603620026615760006040517f1e4fbdf7000000000000000000000000000000000000000000000000000000008152600401620026589190620030a4565b60405180910390fd5b6200266c8162002ef9565b50565b60006200268767cc9ab28b6521780060c01b62002e16565b8160800151620026a267d958ed0f8e8a553260c01b62002e16565b620026b867892f22519c403ad960c01b62002e16565b620026ce675fe71c11fa97697b60c01b62002e16565b620026e4679b359324d737c78c60c01b62002e16565b683635c9adc5dea0000081101562002733576040517f08c379a00000000000000000000000000000000000000000000000000000000081526004016200272a90620043d3565b60405180910390fd5b620027496792eab78721c34ab360c01b62002e16565b6200275f6740df4cf2e4cc427160c01b62002e16565b6200277567fdb3ce74f92d5f4760c01b62002e16565b6200278b67103945de303fdead60c01b62002e16565b69152d02c7e14af6800000811115620027db576040517f08c379a0000000000000000000000000000000000000000000000000000000008152600401620027d29062004445565b60405180910390fd5b620027f167bb52f59b40d643e360c01b62002e16565b6200280767edb7f934f1e3a3ef60c01b62002e16565b6200281d67ab8a6708a3ff66b260c01b62002e16565b62002833678fa56dcf784429cc60c01b62002e16565b62002849677dfd610329f8ca5e60c01b62002e16565b6200285f67a904e6a86562ac8c60c01b62002e16565b62002875675381c429b6583b9060c01b62002e16565b600073ffffffffffffffffffffffffffffffffffffffff168473ffffffffffffffffffffffffffffffffffffffff1603620028e7576040517f08c379a0000000000000000000000000000000000000000000000000000000008152600401620028de90620044b7565b60405180910390fd5b620028fd6720bfe09ad3a1e5b860c01b62002e16565b6200291367495522804ef17ab160c01b62002e16565b6200292967412d6a0cdde4463460c01b62002e16565b6200293f67175336a3c0fd294160c01b62002e16565b6000836000015151116200298a576040517f08c379a0000000000000000000000000000000000000000000000000000000008152600401620029819062004529565b60405180910390fd5b620029a067cdb7ab93635e5cf360c01b62002e16565b620029b667140e4c2c1cf5ba3860c01b62002e16565b620029cc6749cc7bc752254bc560c01b62002e16565b620029e267723f35144667d28160c01b62002e16565b60008360200151511162002a2d576040517f08c379a000000000000000000000000000000000000000000000000000000000815260040162002a24906200459b565b60405180910390fd5b62002a43674d1c68ca8669458660c01b62002e16565b62002a5967ca4f5361fab0ba9f60c01b62002e16565b6002600081548092919062002a6e90620045bd565b919050555062002a896721788051953966a960c01b62002e16565b62002a9f67acbd3cc66cf6462d60c01b62002e16565b6000600254905062002abc6777988ef071b7946d60c01b62002e16565b62002ad26737e12a6e372b627e60c01b62002e16565b60008133878762093a80683635c9adc5dea00000603360405162002af69062002fd0565b62002b08979695949392919062004864565b604051809103906000f08015801562002b25573d6000803e3d6000fd5b50905062002b3e67858c8f7adcc4074c60c01b62002e16565b806006600084815260200190815260200160002060006101000a81548173ffffffffffffffffffffffffffffffffffffffff021916908373ffffffffffffffffffffffffffffffffffffffff16021790555062002ba667034f638c9c86583960c01b62002e16565b62002bbc670c944dfa87b45adf60c01b62002e16565b600760003373ffffffffffffffffffffffffffffffffffffffff1673ffffffffffffffffffffffffffffffffffffffff16815260200190815260200160002082908060018154018082558091505060019003906000526020600020016000909190919091505562002c38678e3f71eed9e4e83660c01b62002e16565b62002c4e67aad6b894fcc8879060c01b62002e16565b8073ffffffffffffffffffffffffffffffffffffffff163373ffffffffffffffffffffffffffffffffffffffff16837f35f722dea8b2845bb2ed781bf0b11f8e69e733bda70d447d6cd2d2c072fe8cde8860000151896080015160405162002cb892919062004929565b60405180910390a462002cd66753e23758a13035fb60c01b62002e16565b62002cec6781919a65533fd2d160c01b62002e16565b81935050505092915050565b60096020528060005260406000206000915054906101000a900460ff1681565b60008060008062002d34674ed1e1fd411bd0a060c01b62002e16565b62002d4a671c0c559bef37e42f60c01b62002e16565b62002d60678d9d31c45fdbd74e60c01b62002e16565b6002546003546004547f000000000000000000000000000000000000000000000000000000000000000073ffffffffffffffffffffffffffffffffffffffff166370a08231306040518263ffffffff1660e01b815260040162002dc49190620030a4565b602060405180830381865afa15801562002de2573d6000803e3d6000fd5b505050506040513d601f19601f8201168201806040525081019062002e08919062003dd1565b935093509350935090919293565b50565b60026001540362002e56576040517f3ee5aeb500000000000000000000000000000000000000000000000000000000815260040160405180910390fd5b6002600181905550565b60018081905550565b62002e7362002fc8565b73ffffffffffffffffffffffffffffffffffffffff1662002e93620019f6565b73ffffffffffffffffffffffffffffffffffffffff161462002ef75762002eb962002fc8565b6040517f118cdaa700000000000000000000000000000000000000000000000000000000815260040162002eee9190620030a4565b60405180910390fd5b565b60008060009054906101000a900473ffffffffffffffffffffffffffffffffffffffff169050816000806101000a81548173ffffffffffffffffffffffffffffffffffffffff021916908373ffffffffffffffffffffffffffffffffffffffff1602179055508173ffffffffffffffffffffffffffffffffffffffff168173ffffffffffffffffffffffffffffffffffffffff167f8be0079c531659141344cd1fd0a4f28419497f9722a3daafe3b4186f6b6457e060405160405180910390a35050565b600060019050919050565b600033905090565b613862806200495e83390190565b6000604051905090565b600080fd5b600080fd5b6000819050919050565b620030078162002ff2565b81146200301357600080fd5b50565b600081359050620030278162002ffc565b92915050565b60006020828403121562003046576200304562002fe8565b5b6000620030568482850162003016565b91505092915050565b600073ffffffffffffffffffffffffffffffffffffffff82169050919050565b60006200308c826200305f565b9050919050565b6200309e816200307f565b82525050565b6000602082019050620030bb600083018462003093565b92915050565b620030cc8162002ff2565b82525050565b6000602082019050620030e96000830184620030c1565b92915050565b620030fa816200307f565b81146200310657600080fd5b50565b6000813590506200311a81620030ef565b92915050565b60006020828403121562003139576200313862002fe8565b5b6000620031498482850162003109565b91505092915050565b600080604083850312156200316c576200316b62002fe8565b5b60006200317c8582860162003109565b92505060206200318f8582860162003016565b9150509250929050565b7f4e487b7100000000000000000000000000000000000000000000000000000000600052602160045260246000fd5b60058110620031dc57620031db62003199565b5b50565b6000819050620031ef82620031c8565b919050565b60006200320182620031df565b9050919050565b6200321381620031f4565b82525050565b600060808201905062003230600083018762003093565b6200323f602083018662003093565b6200324e604083018562003093565b6200325d606083018462003208565b95945050505050565b6000819050919050565b6000620032916200328b62003285846200305f565b62003266565b6200305f565b9050919050565b6000620032a58262003270565b9050919050565b6000620032b98262003298565b9050919050565b620032cb81620032ac565b82525050565b6000602082019050620032e86000830184620032c0565b92915050565b600081519050919050565b600082825260208201905092915050565b6000819050602082019050919050565b620033258162002ff2565b82525050565b60006200333983836200331a565b60208301905092915050565b6000602082019050919050565b60006200335f82620032ee565b6200336b8185620032f9565b935062003378836200330a565b8060005b83811015620033af5781516200339388826200332b565b9750620033a08362003345565b9250506001810190506200337c565b5085935050505092915050565b60006020820190508181036000830152620033d8818462003352565b905092915050565b600080600080600060a08688031215620033ff57620033fe62002fe8565b5b60006200340f8882890162003016565b9550506020620034228882890162003016565b9450506040620034358882890162003016565b9350506060620034488882890162003016565b92505060806200345b8882890162003016565b9150509295509295909350565b600080fd5b6000601f19601f8301169050919050565b7f4e487b7100000000000000000000000000000000000000000000000000000000600052604160045260246000fd5b620034b8826200346d565b810181811067ffffffffffffffff82111715620034da57620034d96200347e565b5b80604052505050565b6000620034ef62002fde565b9050620034fd8282620034ad565b919050565b600080fd5b600080fd5b600080fd5b600067ffffffffffffffff8211156200352f576200352e6200347e565b5b6200353a826200346d565b9050602081019050919050565b82818337600083830152505050565b60006200356d620035678462003511565b620034e3565b9050828152602081018484840111156200358c576200358b6200350c565b5b6200359984828562003547565b509392505050565b600082601f830112620035b957620035b862003507565b5b8135620035cb84826020860162003556565b91505092915050565b60078110620035e257600080fd5b50565b600081359050620035f681620035d4565b92915050565b600067ffffffffffffffff8211156200361a57620036196200347e565b5b602082029050602081019050919050565b600080fd5b6000620036476200364184620035fc565b620034e3565b905080838252602082019050602084028301858111156200366d576200366c6200362b565b5b835b81811015620036bb57803567ffffffffffffffff81111562003696576200369562003507565b5b808601620036a58982620035a1565b855260208501945050506020810190506200366f565b5050509392505050565b600082601f830112620036dd57620036dc62003507565b5b8135620036ef84826020860162003630565b91505092915050565b6000610100828403121562003712576200371162003468565b5b6200371f610100620034e3565b9050600082013567ffffffffffffffff81111562003742576200374162003502565b5b6200375084828501620035a1565b600083015250602082013567ffffffffffffffff81111562003777576200377662003502565b5b6200378584828501620035a1565b602083015250604082013567ffffffffffffffff811115620037ac57620037ab62003502565b5b620037ba84828501620035a1565b6040830152506060620037d084828501620035e5565b6060830152506080620037e68482850162003016565b60808301525060a0620037fc8482850162003016565b60a08301525060c082013567ffffffffffffffff81111562003823576200382262003502565b5b6200383184828501620035a1565b60c08301525060e082013567ffffffffffffffff81111562003858576200385762003502565b5b6200386684828501620036c5565b60e08301525092915050565b600080604083850312156200388c576200388b62002fe8565b5b60006200389c8582860162003109565b925050602083013567ffffffffffffffff811115620038c057620038bf62002fed565b5b620038ce85828601620036f8565b9150509250929050565b60008115159050919050565b620038ef81620038d8565b82525050565b60006020820190506200390c6000830184620038e4565b92915050565b6000608082019050620039296000830187620030c1565b620039386020830186620030c1565b620039476040830185620030c1565b620039566060830184620030c1565b95945050505050565b600082825260208201905092915050565b7f50726f706f73616c20646f6573206e6f74206578697374000000000000000000600082015250565b6000620039a86017836200395f565b9150620039b58262003970565b602082019050919050565b60006020820190508181036000830152620039db8162003999565b9050919050565b60058110620039f057600080fd5b50565b60008151905062003a0481620039e2565b92915050565b60006020828403121562003a235762003a2262002fe8565b5b600062003a3384828501620039f3565b91505092915050565b7f50726f706f73616c20686173206e6f7420706173736564000000000000000000600082015250565b600062003a746017836200395f565b915062003a818262003a3c565b602082019050919050565b6000602082019050818103600083015262003aa78162003a65565b9050919050565b60005b8381101562003ace57808201518184015260208101905062003ab1565b60008484015250505050565b600062003af162003aeb8462003511565b620034e3565b90508281526020810184848401111562003b105762003b0f6200350c565b5b62003b1d84828562003aae565b509392505050565b600082601f83011262003b3d5762003b3c62003507565b5b815162003b4f84826020860162003ada565b91505092915050565b60008151905062003b6981620035d4565b92915050565b60008151905062003b808162002ffc565b92915050565b600080600080600080600060e0888a03121562003ba85762003ba762002fe8565b5b600088015167ffffffffffffffff81111562003bc95762003bc862002fed565b5b62003bd78a828b0162003b25565b975050602088015167ffffffffffffffff81111562003bfb5762003bfa62002fed565b5b62003c098a828b0162003b25565b965050604088015167ffffffffffffffff81111562003c2d5762003c2c62002fed565b5b62003c3b8a828b0162003b25565b955050606062003c4e8a828b0162003b58565b945050608062003c618a828b0162003b6f565b93505060a062003c748a828b0162003b6f565b92505060c088015167ffffffffffffffff81111562003c985762003c9762002fed565b5b62003ca68a828b0162003b25565b91505092959891949750929550565b7f4e487b7100000000000000000000000000000000000000000000000000000000600052601160045260246000fd5b600062003cf18262002ff2565b915062003cfe8362002ff2565b925082820262003d0e8162002ff2565b9150828204841483151762003d285762003d2762003cb5565b5b5092915050565b7f4e487b7100000000000000000000000000000000000000000000000000000000600052601260045260246000fd5b600062003d6b8262002ff2565b915062003d788362002ff2565b92508262003d8b5762003d8a62003d2f565b5b828204905092915050565b600062003da38262002ff2565b915062003db08362002ff2565b925082820390508181111562003dcb5762003dca62003cb5565b5b92915050565b60006020828403121562003dea5762003de962002fe8565b5b600062003dfa8482850162003b6f565b91505092915050565b7f496e73756666696369656e742066756e64730000000000000000000000000000600082015250565b600062003e3b6012836200395f565b915062003e488262003e03565b602082019050919050565b6000602082019050818103600083015262003e6e8162003e2c565b9050919050565b60008151905062003e8681620030ef565b92915050565b60006020828403121562003ea55762003ea462002fe8565b5b600062003eb58482850162003e75565b91505092915050565b600060408201905062003ed5600083018562003093565b62003ee46020830184620030c1565b9392505050565b62003ef681620038d8565b811462003f0257600080fd5b50565b60008151905062003f168162003eeb565b92915050565b60006020828403121562003f355762003f3462002fe8565b5b600062003f458482850162003f05565b91505092915050565b7f5472616e73666572206661696c65640000000000000000000000000000000000600082015250565b600062003f86600f836200395f565b915062003f938262003f4e565b602082019050919050565b6000602082019050818103600083015262003fb98162003f77565b9050919050565b600062003fcd8262002ff2565b915062003fda8362002ff2565b925082820190508082111562003ff55762003ff462003cb5565b5b92915050565b7f496e73756666696369656e742062616c616e6365000000000000000000000000600082015250565b6000620040336014836200395f565b9150620040408262003ffb565b602082019050919050565b60006020820190508181036000830152620040668162004024565b9050919050565b7f4e6f742061206d6f64657261746f720000000000000000000000000000000000600082015250565b6000620040a5600f836200395f565b9150620040b2826200406d565b602082019050919050565b60006020820190508181036000830152620040d88162004096565b9050919050565b7f43616e6e6f742072656d6f7665206f776e657200000000000000000000000000600082015250565b6000620041176013836200395f565b91506200412482620040df565b602082019050919050565b600060208201905081810360008301526200414a8162004108565b9050919050565b7f46656520746f6f20686967680000000000000000000000000000000000000000600082015250565b600062004189600c836200395f565b9150620041968262004151565b602082019050919050565b60006020820190508181036000830152620041bc816200417a565b9050919050565b6000604082019050620041da6000830185620030c1565b620041e96020830184620030c1565b9392505050565b7f496e76616c696420616464726573730000000000000000000000000000000000600082015250565b600062004228600f836200395f565b91506200423582620041f0565b602082019050919050565b600060208201905081810360008301526200425b8162004219565b9050919050565b7f416c72656164792061206d6f64657261746f7200000000000000000000000000600082015250565b60006200429a6013836200395f565b9150620042a78262004262565b602082019050919050565b60006020820190508181036000830152620042cd816200428b565b9050919050565b7f416d6f756e74206d7573742062652067726561746572207468616e2030000000600082015250565b60006200430c601d836200395f565b91506200431982620042d4565b602082019050919050565b600060208201905081810360008301526200433f81620042fd565b9050919050565b60006060820190506200435d600083018662003093565b6200436c602083018562003093565b6200437b6040830184620030c1565b949350505050565b7f416d6f756e742062656c6f77206d696e696d756d000000000000000000000000600082015250565b6000620043bb6014836200395f565b9150620043c88262004383565b602082019050919050565b60006020820190508181036000830152620043ee81620043ac565b9050919050565b7f416d6f756e742061626f7665206d6178696d756d000000000000000000000000600082015250565b60006200442d6014836200395f565b91506200443a82620043f5565b602082019050919050565b6000602082019050818103600083015262004460816200441e565b9050919050565b7f496e76616c69642062656e656669636961727900000000000000000000000000600082015250565b60006200449f6013836200395f565b9150620044ac8262004467565b602082019050919050565b60006020820190508181036000830152620044d28162004490565b9050919050565b7f5469746c65207265717569726564000000000000000000000000000000000000600082015250565b600062004511600e836200395f565b91506200451e82620044d9565b602082019050919050565b60006020820190508181036000830152620045448162004502565b9050919050565b7f4465736372697074696f6e207265717569726564000000000000000000000000600082015250565b6000620045836014836200395f565b915062004590826200454b565b602082019050919050565b60006020820190508181036000830152620045b68162004574565b9050919050565b6000620045ca8262002ff2565b91507fffffffffffffffffffffffffffffffffffffffffffffffffffffffffffffffff8203620045ff57620045fe62003cb5565b5b600182019050919050565b600081519050919050565b600082825260208201905092915050565b600062004633826200460a565b6200463f818562004615565b93506200465181856020860162003aae565b6200465c816200346d565b840191505092915050565b600781106200467b576200467a62003199565b5b50565b60008190506200468e8262004667565b919050565b6000620046a0826200467e565b9050919050565b620046b28162004693565b82525050565b600081519050919050565b600082825260208201905092915050565b6000819050602082019050919050565b6000620046f2838362004626565b905092915050565b6000602082019050919050565b60006200471482620046b8565b620047208185620046c3565b9350836020820285016200473485620046d4565b8060005b85811015620047765784840389528151620047548582620046e4565b94506200476183620046fa565b925060208a0199505060018101905062004738565b50829750879550505050505092915050565b6000610100830160008301518482036000860152620047a8828262004626565b91505060208301518482036020860152620047c4828262004626565b91505060408301518482036040860152620047e0828262004626565b9150506060830151620047f76060860182620046a7565b5060808301516200480c60808601826200331a565b5060a08301516200482160a08601826200331a565b5060c083015184820360c08601526200483b828262004626565b91505060e083015184820360e086015262004857828262004707565b9150508091505092915050565b600060e0820190506200487b600083018a620030c1565b6200488a602083018962003093565b62004899604083018862003093565b8181036060830152620048ad818762004788565b9050620048be6080830186620030c1565b620048cd60a0830185620030c1565b620048dc60c0830184620030c1565b98975050505050505050565b6000620048f5826200460a565b6200490181856200395f565b93506200491381856020860162003aae565b6200491e816200346d565b840191505092915050565b60006040820190508181036000830152620049458185620048e8565b9050620049566020830184620030c1565b939250505056fe60806040523480156200001157600080fd5b506040516200386238038062003862833981810160405281019062000037919062000abf565b33600073ffffffffffffffffffffffffffffffffffffffff168173ffffffffffffffffffffffffffffffffffffffff1603620000ad5760006040517f1e4fbdf7000000000000000000000000000000000000000000000000000000008152600401620000a4919062000ba2565b60405180910390fd5b620000be816200043060201b60201c565b5060018081905550620000e2672a5e5bad14deffb860c01b620004f460201b60201c565b620000fe67c6342985631e813160c01b620004f460201b60201c565b86601981905550620001216760bea3a6c3a1511e60c01b620004f460201b60201c565b85601760016101000a81548173ffffffffffffffffffffffffffffffffffffffff021916908373ffffffffffffffffffffffffffffffffffffffff1602179055506200017e6731fb70320a6ca03060c01b620004f460201b60201c565b84601860006101000a81548173ffffffffffffffffffffffffffffffffffffffff021916908373ffffffffffffffffffffffffffffffffffffffff160217905550620001db675c2356bc544ba86360c01b620004f460201b60201c565b8360026000820151816000019081620001f5919062000e00565b5060208201518160010190816200020d919062000e00565b50604082015181600201908162000225919062000e00565b5060608201518160030160006101000a81548160ff0219169083600681111562000254576200025362000ee7565b5b02179055506080820151816004015560a0820151816005015560c082015181600601908162000284919062000e00565b5060e0820151816007019080519060200190620002a3929190620004f7565b50905050620002c36705bf5cd90fff771960c01b620004f460201b60201c565b81601a81905550620002e6676c9f4ff1c0bb953960c01b620004f460201b60201c565b80601b819055506200030967671eb6a3b0efc67760c01b620004f460201b60201c565b42600a600401819055506200032f67e848620d43af061660c01b620004f460201b60201c565b82426200033d919062000f45565b600a600501819055506200036267917a4f4b85e1b7b360c01b620004f460201b60201c565b6000601760006101000a81548160ff021916908360048111156200038b576200038a62000ee7565b5b0217905550620003ac670a65107e3b01ec9060c01b620004f460201b60201c565b620003c867ea61ad07cf30a21160c01b620004f460201b60201c565b8573ffffffffffffffffffffffffffffffffffffffff16877f98120a6aaa04295520ab4e01c6c1235dd316e822cc9ff31db7b3f197366d18bd866000015187608001516040516200041b92919062000fe3565b60405180910390a35050505050505062001017565b60008060009054906101000a900473ffffffffffffffffffffffffffffffffffffffff169050816000806101000a81548173ffffffffffffffffffffffffffffffffffffffff021916908373ffffffffffffffffffffffffffffffffffffffff1602179055508173ffffffffffffffffffffffffffffffffffffffff168173ffffffffffffffffffffffffffffffffffffffff167f8be0079c531659141344cd1fd0a4f28419497f9722a3daafe3b4186f6b6457e060405160405180910390a35050565b50565b82805482825590600052602060002090810192821562000544579160200282015b828111156200054357825182908162000532919062000e00565b509160200191906001019062000518565b5b50905062000553919062000557565b5090565b5b808211156200057b57600081816200057191906200057f565b5060010162000558565b5090565b5080546200058d9062000bf9565b6000825580601f10620005a15750620005c2565b601f016020900490600052602060002090810190620005c19190620005c5565b5b50565b5b80821115620005e0576000816000905550600101620005c6565b5090565b6000604051905090565b600080fd5b600080fd5b6000819050919050565b6200060d81620005f8565b81146200061957600080fd5b50565b6000815190506200062d8162000602565b92915050565b600073ffffffffffffffffffffffffffffffffffffffff82169050919050565b6000620006608262000633565b9050919050565b620006728162000653565b81146200067e57600080fd5b50565b600081519050620006928162000667565b92915050565b600080fd5b6000601f19601f8301169050919050565b7f4e487b7100000000000000000000000000000000000000000000000000000000600052604160045260246000fd5b620006e8826200069d565b810181811067ffffffffffffffff821117156200070a5762000709620006ae565b5b80604052505050565b60006200071f620005e4565b90506200072d8282620006dd565b919050565b600080fd5b600080fd5b600080fd5b600067ffffffffffffffff8211156200075f576200075e620006ae565b5b6200076a826200069d565b9050602081019050919050565b60005b83811015620007975780820151818401526020810190506200077a565b60008484015250505050565b6000620007ba620007b48462000741565b62000713565b905082815260208101848484011115620007d957620007d86200073c565b5b620007e684828562000777565b509392505050565b600082601f83011262000806576200080562000737565b5b815162000818848260208601620007a3565b91505092915050565b600781106200082f57600080fd5b50565b600081519050620008438162000821565b92915050565b600067ffffffffffffffff821115620008675762000866620006ae565b5b602082029050602081019050919050565b600080fd5b6000620008946200088e8462000849565b62000713565b90508083825260208201905060208402830185811115620008ba57620008b962000878565b5b835b818110156200090857805167ffffffffffffffff811115620008e357620008e262000737565b5b808601620008f28982620007ee565b85526020850194505050602081019050620008bc565b5050509392505050565b600082601f8301126200092a576200092962000737565b5b81516200093c8482602086016200087d565b91505092915050565b600061010082840312156200095f576200095e62000698565b5b6200096c61010062000713565b9050600082015167ffffffffffffffff8111156200098f576200098e62000732565b5b6200099d84828501620007ee565b600083015250602082015167ffffffffffffffff811115620009c457620009c362000732565b5b620009d284828501620007ee565b602083015250604082015167ffffffffffffffff811115620009f957620009f862000732565b5b62000a0784828501620007ee565b604083015250606062000a1d8482850162000832565b606083015250608062000a33848285016200061c565b60808301525060a062000a49848285016200061c565b60a08301525060c082015167ffffffffffffffff81111562000a705762000a6f62000732565b5b62000a7e84828501620007ee565b60c08301525060e082015167ffffffffffffffff81111562000aa55762000aa462000732565b5b62000ab38482850162000912565b60e08301525092915050565b600080600080600080600060e0888a03121562000ae15762000ae0620005ee565b5b600062000af18a828b016200061c565b975050602062000b048a828b0162000681565b965050604062000b178a828b0162000681565b955050606088015167ffffffffffffffff81111562000b3b5762000b3a620005f3565b5b62000b498a828b0162000945565b945050608062000b5c8a828b016200061c565b93505060a062000b6f8a828b016200061c565b92505060c062000b828a828b016200061c565b91505092959891949750929550565b62000b9c8162000653565b82525050565b600060208201905062000bb9600083018462000b91565b92915050565b600081519050919050565b7f4e487b7100000000000000000000000000000000000000000000000000000000600052602260045260246000fd5b6000600282049050600182168062000c1257607f821691505b60208210810362000c285762000c2762000bca565b5b50919050565b60008190508160005260206000209050919050565b60006020601f8301049050919050565b600082821b905092915050565b60006008830262000c927fffffffffffffffffffffffffffffffffffffffffffffffffffffffffffffffff8262000c53565b62000c9e868362000c53565b95508019841693508086168417925050509392505050565b6000819050919050565b600062000ce162000cdb62000cd584620005f8565b62000cb6565b620005f8565b9050919050565b6000819050919050565b62000cfd8362000cc0565b62000d1562000d0c8262000ce8565b84845462000c60565b825550505050565b600090565b62000d2c62000d1d565b62000d3981848462000cf2565b505050565b5b8181101562000d615762000d5560008262000d22565b60018101905062000d3f565b5050565b601f82111562000db05762000d7a8162000c2e565b62000d858462000c43565b8101602085101562000d95578190505b62000dad62000da48562000c43565b83018262000d3e565b50505b505050565b600082821c905092915050565b600062000dd56000198460080262000db5565b1980831691505092915050565b600062000df0838362000dc2565b9150826002028217905092915050565b62000e0b8262000bbf565b67ffffffffffffffff81111562000e275762000e26620006ae565b5b62000e33825462000bf9565b62000e4082828562000d65565b600060209050601f83116001811462000e78576000841562000e63578287015190505b62000e6f858262000de2565b86555062000edf565b601f19841662000e888662000c2e565b60005b8281101562000eb25784890151825560018201915060208501945060208101905062000e8b565b8683101562000ed2578489015162000ece601f89168262000dc2565b8355505b6001600288020188555050505b505050505050565b7f4e487b7100000000000000000000000000000000000000000000000000000000600052602160045260246000fd5b7f4e487b7100000000000000000000000000000000000000000000000000000000600052601160045260246000fd5b600062000f5282620005f8565b915062000f5f83620005f8565b925082820190508082111562000f7a5762000f7962000f16565b5b92915050565b600082825260208201905092915050565b600062000f9e8262000bbf565b62000faa818562000f80565b935062000fbc81856020860162000777565b62000fc7816200069d565b840191505092915050565b62000fdd81620005f8565b82525050565b6000604082019050818103600083015262000fff818562000f91565b905062001010602083018462000fd2565b9392505050565b61283b80620010276000396000f3fe608060405234801561001057600080fd5b506004361061012c5760003560e01c80638da5cb5b116100ad578063d4923d4e11610071578063d4923d4e146102b0578063da4a4e4a146102e1578063da650ec6146102ff578063f2fde38b14610320578063f9135be91461033c5761012c565b80638da5cb5b1461023e5780639070577f1461025c578063a8e4fb9014610266578063b99aeb9a14610284578063cc06d3ce1461028e5761012c565b8063373058b8116100f4578063373058b8146101d257806338af3eed146101dc57806342d9a845146101fa5780636eb8f68414610216578063715018a6146102345761012c565b8063088868e814610131578063113e20881461014f578063200d2ed2146101725780632accd144146101905780632dfca445146101b4575b600080fd5b610139610358565b6040516101469190611d3f565b60405180910390f35b61015761035e565b60405161016996959493929190611d5a565b60405180910390f35b61017a610388565b6040516101879190611e32565b60405180910390f35b61019861039b565b6040516101ab9796959493929190611f25565b60405180910390f35b6101bc6105f8565b6040516101c99190611d3f565b60405180910390f35b6101da6105fe565b005b6101e4610a2b565b6040516101f19190611ff1565b60405180910390f35b610214600480360381019061020f919061203d565b610a51565b005b61021e610bad565b60405161022b91906120bf565b60405180910390f35b61023c610d70565b005b610246610d84565b6040516102539190611ff1565b60405180910390f35b610264610dad565b005b61026e6110bf565b60405161027b9190611ff1565b60405180910390f35b61028c6110e5565b005b6102966112d2565b6040516102a79594939291906120da565b60405180910390f35b6102ca60048036038101906102c59190612159565b611303565b6040516102d89291906121a2565b60405180910390f35b6102e96113eb565b6040516102f69190611d3f565b60405180910390f35b6103076113f1565b60405161031794939291906121cb565b60405180910390f35b61033a60048036038101906103359190612159565b611459565b005b6103566004803603810190610351919061223c565b6114df565b005b601a5481565b600a8060000154908060010154908060020154908060030154908060040154908060050154905086565b601760009054906101000a900460ff1681565b60028060000180546103ac906122ab565b80601f01602080910402602001604051908101604052809291908181526020018280546103d8906122ab565b80156104255780601f106103fa57610100808354040283529160200191610425565b820191906000526020600020905b81548152906001019060200180831161040857829003601f168201915b50505050509080600101805461043a906122ab565b80601f0160208091040260200160405190810160405280929190818152602001828054610466906122ab565b80156104b35780601f10610488576101008083540402835291602001916104b3565b820191906000526020600020905b81548152906001019060200180831161049657829003601f168201915b5050505050908060020180546104c8906122ab565b80601f01602080910402602001604051908101604052809291908181526020018280546104f4906122ab565b80156105415780601f1061051657610100808354040283529160200191610541565b820191906000526020600020905b81548152906001019060200180831161052457829003601f168201915b5050505050908060030160009054906101000a900460ff1690806004015490806005015490806006018054610575906122ab565b80601f01602080910402602001604051908101604052809291908181526020018280546105a1906122ab565b80156105ee5780601f106105c3576101008083540402835291602001916105ee565b820191906000526020600020905b8154815290600101906020018083116105d157829003601f168201915b5050505050905087565b60195481565b6106126734dd8ad9c4f9b97c60c01b611b76565b61062667127cc137df5a857c60c01b611b76565b61063a67b4e1253684cdc59360c01b611b76565b61064e674c6bc380edb929aa60c01b611b76565b6106626796573275c90a4bb460c01b611b76565b600a6005015442116106a9576040517f08c379a00000000000000000000000000000000000000000000000000000000081526004016106a090612328565b60405180910390fd5b6106bd6790d0f383b7b916b360c01b611b76565b6106d167ee9ee1cfd217f45d60c01b611b76565b6106e5674e1958f24206df3660c01b611b76565b6106f967db3636583d2373b860c01b611b76565b610701611b79565b61071567aceb3f663e835de660c01b611b76565b610729670489f08939a3d6b260c01b611b76565b61073d677108088ddd05455c60c01b611b76565b610751677150e3bfdb9dc08760c01b611b76565b61076567e25958d130e9e15660c01b611b76565b6000600481111561077957610778611dbb565b5b601760009054906101000a900460ff16600481111561079b5761079a611dbb565b5b146107db576040517f08c379a00000000000000000000000000000000000000000000000000000000081526004016107d290612394565b60405180910390fd5b6107ef675cd09bcdb380eee260c01b611b76565b6108026669d04ab08127d060c01b611b76565b61081667a573410a0349e67260c01b611b76565b600061082c67f709d2046c15e3ae60c01b611b76565b61084067b85066276ce8f25d60c01b611b76565b601a54600a6003015410156108805761086367d8c626dd3cd2e2a660c01b611b76565b6108776749f3c45904da546360c01b611b76565b60029050610941565b610894678534ddd3ff13660960c01b611b76565b6108a867d95b0b5d5a8a73dd60c01b611b76565b601b54600a60010154600a600001546108c191906123e3565b6064600a600001546108d39190612417565b6108dd9190612488565b10610913576108f667fae27218ffba81b860c01b611b76565b61090a6714c13279d3a5b85960c01b611b76565b60019050610940565b61092767389e8865717ef45f60c01b611b76565b61093b6770f2db2491dec02860c01b611b76565b600290505b5b610955677387633669907ef660c01b611b76565b61096967ffb8503335c9099460c01b611b76565b6000601760009054906101000a900460ff169050610991676b6083f045ab853d60c01b611b76565b81601760006101000a81548160ff021916908360048111156109b6576109b5611dbb565b5b02179055506109cf670372ce1f8d6b426860c01b611b76565b6109e367a7606573f35a4c1160c01b611b76565b6019547fb0978968e606225988b6464f99ce7e86b0e8770d80eaec1369bb3780e05c64388284604051610a179291906124b9565b60405180910390a25050610a29611bbf565b565b601860009054906101000a900473ffffffffffffffffffffffffffffffffffffffff1681565b610a65675a6da9d83e5fb2fc60c01b611b76565b610a6d611bc8565b610a8167cb6c79c284378bc060c01b611b76565b610a9567ee8c6c301c3f200260c01b611b76565b610aa9670a78ef7dd81345fe60c01b611b76565b83601260000181905550610ac767050aa6d73285a06560c01b611b76565b82601260010181905550610ae56722f676e11e8d6daf60c01b611b76565b81601260020181905550610b0367a6b5088354066bb860c01b611b76565b80601260030181905550610b2167466edd9290ec193e60c01b611b76565b6001601260040160006101000a81548160ff021916908315150217905550610b5367c167ef3776937ced60c01b611b76565b610b6767a1b73f15096ab18660c01b611b76565b6019547ff4f4153c1a7414f5c2d83d2d51c3a0077754652f7dae460b37f2b0fa705a720785858585604051610b9f94939291906121cb565b60405180910390a250505050565b6000610bc3670bea4d0599fce5ed60c01b611b76565b610bd7676ff3a960100cfd5960c01b611b76565b610beb672d56d9b3336ffa6460c01b611b76565b601a54600a600301541015610c3f57610c0e67b7497c6fb54ad16360c01b611b76565b610c22675705f7883974d3a560c01b611b76565b610c36679016dbd95f20163a60c01b611b76565b60009050610d6d565b610c536706d9defa83bbcff460c01b611b76565b610c67678443fdf70bf0bf7160c01b611b76565b610c7b67b5bd65aef42cf80360c01b611b76565b6000600a60010154600a60000154610c9391906123e3565b9050610ca9678c79c2078db4463560c01b611b76565b610cbd67b1af0aaec21889ce60c01b611b76565b60008103610d0b57610cd9676836ff4b0087415b60c01b611b76565b610ced679ee183c65ea0180d60c01b611b76565b610d016772fb226834c9c03860c01b611b76565b6000915050610d6d565b610d1f67ddb181c4dd6fcec960c01b611b76565b610d3367e5794b100bf6ff5f60c01b611b76565b610d4767efe3e882d1b38be660c01b611b76565b601b54816064600a60000154610d5d9190612417565b610d679190612488565b10159150505b90565b610d78611bc8565b610d826000611c4f565b565b60008060009054906101000a900473ffffffffffffffffffffffffffffffffffffffff16905090565b610dc1679229de39d14555f460c01b611b76565b610dd567db5d223a060a29dd60c01b611b76565b610de96705ee67e8dcff0e8d60c01b611b76565b610dfd6721452da543f2493960c01b611b76565b601760019054906101000a900473ffffffffffffffffffffffffffffffffffffffff1673ffffffffffffffffffffffffffffffffffffffff163373ffffffffffffffffffffffffffffffffffffffff16148015610e6a5750610e6967f989aaf913deac8460c01b611d13565b5b80610ec35750610e78610d84565b73ffffffffffffffffffffffffffffffffffffffff163373ffffffffffffffffffffffffffffffffffffffff16148015610ec25750610ec1673e87e8a79de590ee60c01b611d13565b5b5b610f02576040517f08c379a0000000000000000000000000000000000000000000000000000000008152600401610ef990612554565b60405180910390fd5b610f1667030bd5717a926fa360c01b611b76565b610f2a671b0ba38c960230a760c01b611b76565b610f3e674b0e29ba4f9aa77760c01b611b76565b610f52672a43f4aefecb2a6360c01b611b76565b60006004811115610f6657610f65611dbb565b5b601760009054906101000a900460ff166004811115610f8857610f87611dbb565b5b14610fc8576040517f08c379a0000000000000000000000000000000000000000000000000000000008152600401610fbf90612394565b60405180910390fd5b610fdc6788857136a521594c60c01b611b76565b610ff067dbcd4d7d06ad7c8760c01b611b76565b61100467696f061d8c8f675760c01b611b76565b6000601760009054906101000a900460ff16905061102c6768ced4eb3f38363e60c01b611b76565b6004601760006101000a81548160ff0219169083600481111561105257611051611dbb565b5b021790555061106b67bc7eee8fd5e5f20660c01b611b76565b61107f678245d5c9031c273d60c01b611b76565b6019547fb0978968e606225988b6464f99ce7e86b0e8770d80eaec1369bb3780e05c64388260046040516110b49291906124b9565b60405180910390a250565b601760019054906101000a900473ffffffffffffffffffffffffffffffffffffffff1681565b6110f9671a816870fc80c84660c01b611b76565b611101611bc8565b611115674c4882492560718c60c01b611b76565b61112967c9eb16aabfa5668760c01b611b76565b61113d67fcf8fb611a55bf3b60c01b611b76565b611151673d49763061a01b8f60c01b611b76565b611165676fb061a914adb95860c01b611b76565b6001600481111561117957611178611dbb565b5b601760009054906101000a900460ff16600481111561119b5761119a611dbb565b5b146111db576040517f08c379a00000000000000000000000000000000000000000000000000000000081526004016111d2906125e6565b60405180910390fd5b6111ef67d613d35d67597f2660c01b611b76565b6112036786b31c0eb9e294b860c01b611b76565b611217674c38c9def4f8bcc060c01b611b76565b6000601760009054906101000a900460ff16905061123f67996178786d60227560c01b611b76565b6003601760006101000a81548160ff0219169083600481111561126557611264611dbb565b5b021790555061127e678c6267b4953583ef60c01b611b76565b61129267d1f97c0196753dc560c01b611b76565b6019547fb0978968e606225988b6464f99ce7e86b0e8770d80eaec1369bb3780e05c64388260036040516112c79291906124b9565b60405180910390a250565b60128060000154908060010154908060020154908060030154908060040160009054906101000a900460ff16905085565b60008061131a678de4a89d83ca730060c01b611b76565b61132e67b473a8c63b8583a760c01b611b76565b611342678100b2e3e56cbc3960c01b611b76565b600a60060160008473ffffffffffffffffffffffffffffffffffffffff1673ffffffffffffffffffffffffffffffffffffffff16815260200190815260200160002060009054906101000a900460ff16600a60070160008573ffffffffffffffffffffffffffffffffffffffff1673ffffffffffffffffffffffffffffffffffffffff16815260200190815260200160002060009054906101000a900460ff1691509150915091565b601b5481565b60008060008061140b67cfd66765d1dd7aa060c01b611b76565b61141f67828b3c240ff0c64b60c01b611b76565b6114336789e7f0b34829371f60c01b611b76565b600a60000154600a60010154600a60020154600a60030154935093509350935090919293565b611461611bc8565b600073ffffffffffffffffffffffffffffffffffffffff168173ffffffffffffffffffffffffffffffffffffffff16036114d35760006040517f1e4fbdf70000000000000000000000000000000000000000000000000000000081526004016114ca9190611ff1565b60405180910390fd5b6114dc81611c4f565b50565b6114f36757c24a70dcc0432860c01b611b76565b611507676d1bc1788c027bd760c01b611b76565b61151b67bff9f439ef603bbf60c01b611b76565b61152f67f1d589e57194a9cd60c01b611b76565b6115436786a8792c46c881bd60c01b611b76565b6000600481111561155757611556611dbb565b5b601760009054906101000a900460ff16600481111561157957611578611dbb565b5b146115b9576040517f08c379a00000000000000000000000000000000000000000000000000000000081526004016115b090612394565b60405180910390fd5b6115cd67acf2861bf9c22dce60c01b611b76565b6115e1677e6382187dfd948760c01b611b76565b6115f5671a3c8424fbcc0b9a60c01b611b76565b6116096743692eb2e9720f0d60c01b611b76565b61161d677e347694b632fbb760c01b611b76565b611631671f53d565fb6e915c60c01b611b76565b611645677ff6cb96945520ce60c01b611b76565b60028260ff16111561168c576040517f08c379a000000000000000000000000000000000000000000000000000000000815260040161168390612652565b60405180910390fd5b6116a067afadcfd8d199f2e260c01b611b76565b6116b467e94f346a2832f23d60c01b611b76565b6116c867b21cc011ccd006d060c01b611b76565b6116dc671cd513662a62eec860c01b611b76565b600a60060160003373ffffffffffffffffffffffffffffffffffffffff1673ffffffffffffffffffffffffffffffffffffffff16815260200190815260200160002060009054906101000a900460ff161561176c576040517f08c379a0000000000000000000000000000000000000000000000000000000008152600401611763906126be565b60405180910390fd5b6117806750a720adb2a59db560c01b611b76565b61179467fd95c652c271b56760c01b611b76565b6117a86712bba4559b9d418f60c01b611b76565b6117bc67a82bbb876cf7feda60c01b611b76565b600a60050154421115611804576040517f08c379a00000000000000000000000000000000000000000000000000000000081526004016117fb9061272a565b60405180910390fd5b6118186751759ed35b792a8060c01b611b76565b61182c670a41bd76fce3639d60c01b611b76565b611840677014b21fa4a51a2e60c01b611b76565b611854676a96603b84ab940860c01b611b76565b60008111611897576040517f08c379a000000000000000000000000000000000000000000000000000000000815260040161188e906127bc565b60405180910390fd5b6118ab671dff86fcf062c04e60c01b611b76565b6118bf6776f74dde5a69e7a260c01b611b76565b6001600a60060160003373ffffffffffffffffffffffffffffffffffffffff1673ffffffffffffffffffffffffffffffffffffffff16815260200190815260200160002060006101000a81548160ff02191690831515021790555061192e67523c960a5b5911ee60c01b611b76565b81600a60070160003373ffffffffffffffffffffffffffffffffffffffff1673ffffffffffffffffffffffffffffffffffffffff16815260200190815260200160002060006101000a81548160ff021916908360ff16021790555061199d679d3bdc7b7ff128ac60c01b611b76565b80600a60030160008282546119b291906123e3565b925050819055506119cd6728801197caa5c37b60c01b611b76565b6119e1677e5b5bba772b444360c01b611b76565b60018260ff1603611a3557611a0067f3162a91b5c23b8f60c01b611b76565b611a1467fec8b9b523966c5060c01b611b76565b80600a6000016000828254611a2991906123e3565b92505081905550611af7565b611a4967bdcb28b05c2abb4460c01b611b76565b611a5d67be13a6786fbf960a60c01b611b76565b60008260ff1603611ab157611a7c675294aaf91f59d13b60c01b611b76565b611a9067a9ff60333dafb63560c01b611b76565b80600a6001016000828254611aa591906123e3565b92505081905550611af6565b611ac567983209c70677aa0660c01b611b76565b611ad96750df07070a3af91460c01b611b76565b80600a6002016000828254611aee91906123e3565b925050819055505b5b611b0b6770e640ee290159cf60c01b611b76565b611b1f679e544d47fd95fbc060c01b611b76565b6019543373ffffffffffffffffffffffffffffffffffffffff167f2c9deb38f462962eadbd85a9d3a4120503ee091f1582eaaa10aa8c6797651d298484604051611b6a9291906127dc565b60405180910390a35050565b50565b600260015403611bb5576040517f3ee5aeb500000000000000000000000000000000000000000000000000000000815260040160405180910390fd5b6002600181905550565b60018081905550565b611bd0611d1e565b73ffffffffffffffffffffffffffffffffffffffff16611bee610d84565b73ffffffffffffffffffffffffffffffffffffffff1614611c4d57611c11611d1e565b6040517f118cdaa7000000000000000000000000000000000000000000000000000000008152600401611c449190611ff1565b60405180910390fd5b565b60008060009054906101000a900473ffffffffffffffffffffffffffffffffffffffff169050816000806101000a81548173ffffffffffffffffffffffffffffffffffffffff021916908373ffffffffffffffffffffffffffffffffffffffff1602179055508173ffffffffffffffffffffffffffffffffffffffff168173ffffffffffffffffffffffffffffffffffffffff167f8be0079c531659141344cd1fd0a4f28419497f9722a3daafe3b4186f6b6457e060405160405180910390a35050565b600060019050919050565b600033905090565b6000819050919050565b611d3981611d26565b82525050565b6000602082019050611d546000830184611d30565b92915050565b600060c082019050611d6f6000830189611d30565b611d7c6020830188611d30565b611d896040830187611d30565b611d966060830186611d30565b611da36080830185611d30565b611db060a0830184611d30565b979650505050505050565b7f4e487b7100000000000000000000000000000000000000000000000000000000600052602160045260246000fd5b60058110611dfb57611dfa611dbb565b5b50565b6000819050611e0c82611dea565b919050565b6000611e1c82611dfe565b9050919050565b611e2c81611e11565b82525050565b6000602082019050611e476000830184611e23565b92915050565b600081519050919050565b600082825260208201905092915050565b60005b83811015611e87578082015181840152602081019050611e6c565b60008484015250505050565b6000601f19601f8301169050919050565b6000611eaf82611e4d565b611eb98185611e58565b9350611ec9818560208601611e69565b611ed281611e93565b840191505092915050565b60078110611eee57611eed611dbb565b5b50565b6000819050611eff82611edd565b919050565b6000611f0f82611ef1565b9050919050565b611f1f81611f04565b82525050565b600060e0820190508181036000830152611f3f818a611ea4565b90508181036020830152611f538189611ea4565b90508181036040830152611f678188611ea4565b9050611f766060830187611f16565b611f836080830186611d30565b611f9060a0830185611d30565b81810360c0830152611fa28184611ea4565b905098975050505050505050565b600073ffffffffffffffffffffffffffffffffffffffff82169050919050565b6000611fdb82611fb0565b9050919050565b611feb81611fd0565b82525050565b60006020820190506120066000830184611fe2565b92915050565b600080fd5b61201a81611d26565b811461202557600080fd5b50565b60008135905061203781612011565b92915050565b600080600080608085870312156120575761205661200c565b5b600061206587828801612028565b945050602061207687828801612028565b935050604061208787828801612028565b925050606061209887828801612028565b91505092959194509250565b60008115159050919050565b6120b9816120a4565b82525050565b60006020820190506120d460008301846120b0565b92915050565b600060a0820190506120ef6000830188611d30565b6120fc6020830187611d30565b6121096040830186611d30565b6121166060830185611d30565b61212360808301846120b0565b9695505050505050565b61213681611fd0565b811461214157600080fd5b50565b6000813590506121538161212d565b92915050565b60006020828403121561216f5761216e61200c565b5b600061217d84828501612144565b91505092915050565b600060ff82169050919050565b61219c81612186565b82525050565b60006040820190506121b760008301856120b0565b6121c46020830184612193565b9392505050565b60006080820190506121e06000830187611d30565b6121ed6020830186611d30565b6121fa6040830185611d30565b6122076060830184611d30565b95945050505050565b61221981612186565b811461222457600080fd5b50565b60008135905061223681612210565b92915050565b600080604083850312156122535761225261200c565b5b600061226185828601612227565b925050602061227285828601612028565b9150509250929050565b7f4e487b7100000000000000000000000000000000000000000000000000000000600052602260045260246000fd5b600060028204905060018216806122c357607f821691505b6020821081036122d6576122d561227c565b5b50919050565b7f566f74696e6720706572696f6420686173206e6f7420656e6465640000000000600082015250565b6000612312601b83611e58565b915061231d826122dc565b602082019050919050565b6000602082019050818103600083015261234181612305565b9050919050565b7f50726f706f73616c206973206e6f742061637469766500000000000000000000600082015250565b600061237e601683611e58565b915061238982612348565b602082019050919050565b600060208201905081810360008301526123ad81612371565b9050919050565b7f4e487b7100000000000000000000000000000000000000000000000000000000600052601160045260246000fd5b60006123ee82611d26565b91506123f983611d26565b9250828201905080821115612411576124106123b4565b5b92915050565b600061242282611d26565b915061242d83611d26565b925082820261243b81611d26565b91508282048414831517612452576124516123b4565b5b5092915050565b7f4e487b7100000000000000000000000000000000000000000000000000000000600052601260045260246000fd5b600061249382611d26565b915061249e83611d26565b9250826124ae576124ad612459565b5b828204905092915050565b60006040820190506124ce6000830185611e23565b6124db6020830184611e23565b9392505050565b7f4f6e6c792070726f706f736572206f72206f776e65722063616e2063616e636560008201527f6c00000000000000000000000000000000000000000000000000000000000000602082015250565b600061253e602183611e58565b9150612549826124e2565b604082019050919050565b6000602082019050818103600083015261256d81612531565b9050919050565b7f50726f706f73616c206d7573742062652070617373656420746f20657865637560008201527f7465000000000000000000000000000000000000000000000000000000000000602082015250565b60006125d0602283611e58565b91506125db82612574565b604082019050919050565b600060208201905081810360008301526125ff816125c3565b9050919050565b7f496e76616c696420766f74652063686f69636500000000000000000000000000600082015250565b600061263c601383611e58565b915061264782612606565b602082019050919050565b6000602082019050818103600083015261266b8161262f565b9050919050565b7f416c726561647920766f74656400000000000000000000000000000000000000600082015250565b60006126a8600d83611e58565b91506126b382612672565b602082019050919050565b600060208201905081810360008301526126d78161269b565b9050919050565b7f566f74696e6720706572696f642068617320656e646564000000000000000000600082015250565b6000612714601783611e58565b915061271f826126de565b602082019050919050565b6000602082019050818103600083015261274381612707565b9050919050565b7f566f74696e6720776569676874206d757374206265206772656174657220746860008201527f616e203000000000000000000000000000000000000000000000000000000000602082015250565b60006127a6602483611e58565b91506127b18261274a565b604082019050919050565b600060208201905081810360008301526127d581612799565b9050919050565b60006040820190506127f16000830185612193565b6127fe6020830184611d30565b939250505056fea26469706673582212204e457027ab673e7209229379d7df5c960db943a7950904a8b3b4a35140474cba64736f6c63430008180033a2646970667358221220d23afd4c061e7b114d091e1d54e035d4f993cfb199d9d95ac4241238aa84836564736f6c63430008180033",
  "linkReferences": {},
  "deployedLinkReferences": {}
}