{
  "_format": "hh-sol-artifact-1",
  "contractName": "ClimateDAO",
  "sourceName": "contracts/ClimateDAO.sol",
  "abi": [
    {
      "inputs": [
        {
          "internalType": "address",
          "name": "_climateToken",
          "type": "address"
        }
      ],
      "stateMutability": "nonpayable",
      "type": "constructor"
    },
    {
      "inputs": [
        {
          "internalType": "address",
          "name": "owner",
          "type": "address"
        }
      ],
      "name": "OwnableInvalidOwner",
      "type": "error"
    },
    {
      "inputs": [
        {
          "internalType": "address",
          "name": "account",
          "type": "address"
        }
      ],
      "name": "OwnableUnauthorizedAccount",
      "type": "error"
    },
    {
      "inputs": [],
      "name": "ReentrancyGuardReentrantCall",
      "type": "error"
    },
    {
      "anonymous": false,
      "inputs": [
        {
          "indexed": true,
          "internalType": "uint256",
          "name": "proposalId",
          "type": "uint256"
        },
        {
          "indexed": true,
          "internalType": "address",
          "name": "beneficiary",
          "type": "address"
        },
        {
          "indexed": false,
          "internalType": "uint256",
          "name": "amount",
          "type": "uint256"
        }
      ],
      "name": "FundsDistributed",
      "type": "event"
    },
    {
      "anonymous": false,
      "inputs": [
        {
          "indexed": true,
          "internalType": "address",
          "name": "donor",
          "type": "address"
        },
        {
          "indexed": false,
          "internalType": "uint256",
          "name": "amount",
          "type": "uint256"
        },
        {
          "indexed": false,
          "internalType": "uint256",
          "name": "totalRaised",
          "type": "uint256"
        }
      ],
      "name": "FundsDonated",
      "type": "event"
    },
    {
      "anonymous": false,
      "inputs": [
        {
          "indexed": true,
          "internalType": "address",
          "name": "moderator",
          "type": "address"
        }
      ],
      "name": "ModeratorAdded",
      "type": "event"
    },
    {
      "anonymous": false,
      "inputs": [
        {
          "indexed": true,
          "internalType": "address",
          "name": "moderator",
          "type": "address"
        }
      ],
      "name": "ModeratorRemoved",
      "type": "event"
    },
    {
      "anonymous": false,
      "inputs": [
        {
          "indexed": true,
          "internalType": "address",
          "name": "previousOwner",
          "type": "address"
        },
        {
          "indexed": true,
          "internalType": "address",
          "name": "newOwner",
          "type": "address"
        }
      ],
      "name": "OwnershipTransferred",
      "type": "event"
    },
    {
      "anonymous": false,
      "inputs": [
        {
          "indexed": false,
          "internalType": "uint256",
          "name": "oldFee",
          "type": "uint256"
        },
        {
          "indexed": false,
          "internalType": "uint256",
          "name": "newFee",
          "type": "uint256"
        }
      ],
      "name": "PlatformFeeUpdated",
      "type": "event"
    },
    {
      "anonymous": false,
      "inputs": [
        {
          "indexed": true,
          "internalType": "uint256",
          "name": "pendingId",
          "type": "uint256"
        },
        {
          "indexed": true,
          "internalType": "uint256",
          "name": "proposalId",
          "type": "uint256"
        }
      ],
      "name": "ProposalApproved",
      "type": "event"
    },
    {
      "anonymous": false,
      "inputs": [
        {
          "indexed": true,
          "internalType": "uint256",
          "name": "proposalId",
          "type": "uint256"
        },
        {
          "indexed": true,
          "internalType": "address",
          "name": "proposer",
          "type": "address"
        },
        {
          "indexed": true,
          "internalType": "address",
          "name": "proposalContract",
          "type": "address"
        },
        {
          "indexed": false,
          "internalType": "string",
          "name": "title",
          "type": "string"
        },
        {
          "indexed": false,
          "internalType": "uint256",
          "name": "requestedAmount",
          "type": "uint256"
        }
      ],
      "name": "ProposalCreated",
      "type": "event"
    },
    {
      "anonymous": false,
      "inputs": [
        {
          "indexed": true,
          "internalType": "uint256",
          "name": "pendingId",
          "type": "uint256"
        },
        {
          "indexed": false,
          "internalType": "bool",
          "name": "approved",
          "type": "bool"
        },
        {
          "indexed": false,
          "internalType": "string",
          "name": "reviewNotes",
          "type": "string"
        }
      ],
      "name": "ProposalReviewed",
      "type": "event"
    },
    {
      "anonymous": false,
      "inputs": [
        {
          "indexed": true,
          "internalType": "uint256",
          "name": "pendingId",
          "type": "uint256"
        },
        {
          "indexed": true,
          "internalType": "address",
          "name": "proposer",
          "type": "address"
        },
        {
          "indexed": false,
          "internalType": "string",
          "name": "title",
          "type": "string"
        }
      ],
      "name": "ProposalSubmitted",
      "type": "event"
    },
    {
      "anonymous": false,
      "inputs": [
        {
          "indexed": true,
          "internalType": "address",
          "name": "user",
          "type": "address"
        },
        {
          "indexed": false,
          "internalType": "uint256",
          "name": "totalContributions",
          "type": "uint256"
        },
        {
          "indexed": false,
          "internalType": "uint256",
          "name": "proposalCount",
          "type": "uint256"
        },
        {
          "indexed": false,
          "internalType": "uint256",
          "name": "voteCount",
          "type": "uint256"
        }
      ],
      "name": "UserProfileUpdated",
      "type": "event"
    },
    {
      "anonymous": false,
      "inputs": [
        {
          "indexed": true,
          "internalType": "address",
          "name": "user",
          "type": "address"
        },
        {
          "indexed": false,
          "internalType": "uint256",
          "name": "timestamp",
          "type": "uint256"
        }
      ],
      "name": "UserRegistered",
      "type": "event"
    },
    {
      "inputs": [],
      "name": "MAJORITY_THRESHOLD",
      "outputs": [
        {
          "internalType": "uint256",
          "name": "",
          "type": "uint256"
        }
      ],
      "stateMutability": "view",
      "type": "function"
    },
    {
      "inputs": [],
      "name": "MAX_PLATFORM_FEE",
      "outputs": [
        {
          "internalType": "uint256",
          "name": "",
          "type": "uint256"
        }
      ],
      "stateMutability": "view",
      "type": "function"
    },
    {
      "inputs": [],
      "name": "MAX_PROPOSAL_AMOUNT",
      "outputs": [
        {
          "internalType": "uint256",
          "name": "",
          "type": "uint256"
        }
      ],
      "stateMutability": "view",
      "type": "function"
    },
    {
      "inputs": [],
      "name": "MIN_PROPOSAL_AMOUNT",
      "outputs": [
        {
          "internalType": "uint256",
          "name": "",
          "type": "uint256"
        }
      ],
      "stateMutability": "view",
      "type": "function"
    },
    {
      "inputs": [],
      "name": "QUORUM_THRESHOLD",
      "outputs": [
        {
          "internalType": "uint256",
          "name": "",
          "type": "uint256"
        }
      ],
      "stateMutability": "view",
      "type": "function"
    },
    {
      "inputs": [],
      "name": "VOTING_DURATION",
      "outputs": [
        {
          "internalType": "uint256",
          "name": "",
          "type": "uint256"
        }
      ],
      "stateMutability": "view",
      "type": "function"
    },
    {
      "inputs": [
        {
          "internalType": "address",
          "name": "moderator",
          "type": "address"
        }
      ],
      "name": "addModerator",
      "outputs": [],
      "stateMutability": "nonpayable",
      "type": "function"
    },
    {
      "inputs": [],
      "name": "climateToken",
      "outputs": [
        {
          "internalType": "contract ClimateToken",
          "name": "",
          "type": "address"
        }
      ],
      "stateMutability": "view",
      "type": "function"
    },
    {
      "inputs": [
        {
          "internalType": "uint256",
          "name": "amount",
          "type": "uint256"
        }
      ],
      "name": "donateFunds",
      "outputs": [],
      "stateMutability": "nonpayable",
      "type": "function"
    },
    {
      "inputs": [
        {
          "internalType": "uint256",
          "name": "proposalId",
          "type": "uint256"
        }
      ],
      "name": "executeProposal",
      "outputs": [],
      "stateMutability": "nonpayable",
      "type": "function"
    },
    {
      "inputs": [],
      "name": "getDAOStats",
      "outputs": [
        {
          "internalType": "uint256",
          "name": "totalProposals",
          "type": "uint256"
        },
        {
          "internalType": "uint256",
          "name": "totalRaised",
          "type": "uint256"
        },
        {
          "internalType": "uint256",
          "name": "totalDistributed",
          "type": "uint256"
        },
        {
          "internalType": "uint256",
          "name": "currentBalance",
          "type": "uint256"
        }
      ],
      "stateMutability": "view",
      "type": "function"
    },
    {
      "inputs": [
        {
          "internalType": "uint256",
          "name": "pendingId",
          "type": "uint256"
        }
      ],
      "name": "getPendingProposal",
      "outputs": [
        {
          "internalType": "address",
          "name": "proposer",
          "type": "address"
        },
        {
          "internalType": "address",
          "name": "beneficiary",
          "type": "address"
        },
        {
          "internalType": "string",
          "name": "title",
          "type": "string"
        },
        {
          "internalType": "uint256",
          "name": "requestedAmount",
          "type": "uint256"
        },
        {
          "internalType": "uint256",
          "name": "submissionTime",
          "type": "uint256"
        },
        {
          "internalType": "bool",
          "name": "isReviewed",
          "type": "bool"
        },
        {
          "internalType": "bool",
          "name": "isApproved",
          "type": "bool"
        }
      ],
      "stateMutability": "view",
      "type": "function"
    },
    {
      "inputs": [
        {
          "internalType": "uint256",
          "name": "pendingId",
          "type": "uint256"
        }
      ],
      "name": "getPendingProposalDetails",
      "outputs": [
        {
          "internalType": "string",
          "name": "description",
          "type": "string"
        },
        {
          "internalType": "string",
          "name": "location",
          "type": "string"
        },
        {
          "internalType": "uint8",
          "name": "category",
          "type": "uint8"
        },
        {
          "internalType": "uint256",
          "name": "duration",
          "type": "uint256"
        },
        {
          "internalType": "string",
          "name": "website",
          "type": "string"
        },
        {
          "internalType": "string",
          "name": "reviewNotes",
          "type": "string"
        }
      ],
      "stateMutability": "view",
      "type": "function"
    },
    {
      "inputs": [],
      "name": "getPendingProposalIds",
      "outputs": [
        {
          "internalType": "uint256[]",
          "name": "",
          "type": "uint256[]"
        }
      ],
      "stateMutability": "view",
      "type": "function"
    },
    {
      "inputs": [],
      "name": "getPendingProposalsCount",
      "outputs": [
        {
          "internalType": "uint256",
          "name": "",
          "type": "uint256"
        }
      ],
      "stateMutability": "view",
      "type": "function"
    },
    {
      "inputs": [
        {
          "internalType": "uint256",
          "name": "proposalId",
          "type": "uint256"
        }
      ],
      "name": "getProposalDetails",
      "outputs": [
        {
          "internalType": "address",
          "name": "proposalAddress",
          "type": "address"
        },
        {
          "internalType": "address",
          "name": "proposer",
          "type": "address"
        },
        {
          "internalType": "address",
          "name": "beneficiary",
          "type": "address"
        },
        {
          "internalType": "enum Proposal.ProposalStatus",
          "name": "status",
          "type": "uint8"
        }
      ],
      "stateMutability": "view",
      "type": "function"
    },
    {
      "inputs": [
        {
          "internalType": "address",
          "name": "user",
          "type": "address"
        }
      ],
      "name": "getUserInfo",
      "outputs": [
        {
          "components": [
            {
              "internalType": "uint256",
              "name": "registrationTimestamp",
              "type": "uint256"
            },
            {
              "internalType": "uint256",
              "name": "totalContributions",
              "type": "uint256"
            },
            {
              "internalType": "uint256",
              "name": "proposalCount",
              "type": "uint256"
            },
            {
              "internalType": "uint256",
              "name": "voteCount",
              "type": "uint256"
            },
            {
              "internalType": "bool",
              "name": "isActive",
              "type": "bool"
            }
          ],
          "internalType": "struct ClimateDAO.UserInfo",
          "name": "",
          "type": "tuple"
        }
      ],
      "stateMutability": "view",
      "type": "function"
    },
    {
      "inputs": [
        {
          "internalType": "address",
          "name": "user",
          "type": "address"
        }
      ],
      "name": "getUserProposals",
      "outputs": [
        {
          "internalType": "uint256[]",
          "name": "",
          "type": "uint256[]"
        }
      ],
      "stateMutability": "view",
      "type": "function"
    },
    {
      "inputs": [
        {
          "internalType": "address",
          "name": "",
          "type": "address"
        }
      ],
      "name": "isModerator",
      "outputs": [
        {
          "internalType": "bool",
          "name": "",
          "type": "bool"
        }
      ],
      "stateMutability": "view",
      "type": "function"
    },
    {
      "inputs": [
        {
          "internalType": "address",
          "name": "user",
          "type": "address"
        }
      ],
      "name": "isUserRegistered",
      "outputs": [
        {
          "internalType": "bool",
          "name": "",
          "type": "bool"
        }
      ],
      "stateMutability": "view",
      "type": "function"
    },
    {
      "inputs": [],
      "name": "owner",
      "outputs": [
        {
          "internalType": "address",
          "name": "",
          "type": "address"
        }
      ],
      "stateMutability": "view",
      "type": "function"
    },
    {
      "inputs": [],
      "name": "pendingProposalCounter",
      "outputs": [
        {
          "internalType": "uint256",
          "name": "",
          "type": "uint256"
        }
      ],
      "stateMutability": "view",
      "type": "function"
    },
    {
      "inputs": [
        {
          "internalType": "uint256",
          "name": "",
          "type": "uint256"
        }
      ],
      "name": "pendingProposalIds",
      "outputs": [
        {
          "internalType": "uint256",
          "name": "",
          "type": "uint256"
        }
      ],
      "stateMutability": "view",
      "type": "function"
    },
    {
      "inputs": [
        {
          "internalType": "uint256",
          "name": "",
          "type": "uint256"
        }
      ],
      "name": "pendingProposals",
      "outputs": [
        {
          "internalType": "address",
          "name": "proposer",
          "type": "address"
        },
        {
          "internalType": "address",
          "name": "beneficiary",
          "type": "address"
        },
        {
          "components": [
            {
              "internalType": "string",
              "name": "title",
              "type": "string"
            },
            {
              "internalType": "string",
              "name": "description",
              "type": "string"
            },
            {
              "internalType": "string",
              "name": "location",
              "type": "string"
            },
            {
              "internalType": "enum Proposal.ProjectCategory",
              "name": "category",
              "type": "uint8"
            },
            {
              "internalType": "uint256",
              "name": "requestedAmount",
              "type": "uint256"
            },
            {
              "internalType": "uint256",
              "name": "duration",
              "type": "uint256"
            },
            {
              "internalType": "string",
              "name": "website",
              "type": "string"
            },
            {
              "internalType": "string[]",
              "name": "images",
              "type": "string[]"
            }
          ],
          "internalType": "struct Proposal.ProjectDetails",
          "name": "projectDetails",
          "type": "tuple"
        },
        {
          "internalType": "uint256",
          "name": "submissionTime",
          "type": "uint256"
        },
        {
          "internalType": "bool",
          "name": "isReviewed",
          "type": "bool"
        },
        {
          "internalType": "bool",
          "name": "isApproved",
          "type": "bool"
        },
        {
          "internalType": "string",
          "name": "reviewNotes",
          "type": "string"
        }
      ],
      "stateMutability": "view",
      "type": "function"
    },
    {
      "inputs": [],
      "name": "platformFee",
      "outputs": [
        {
          "internalType": "uint256",
          "name": "",
          "type": "uint256"
        }
      ],
      "stateMutability": "view",
      "type": "function"
    },
    {
      "inputs": [],
      "name": "proposalCounter",
      "outputs": [
        {
          "internalType": "uint256",
          "name": "",
          "type": "uint256"
        }
      ],
      "stateMutability": "view",
      "type": "function"
    },
    {
      "inputs": [
        {
          "internalType": "uint256",
          "name": "",
          "type": "uint256"
        }
      ],
      "name": "proposals",
      "outputs": [
        {
          "internalType": "address",
          "name": "",
          "type": "address"
        }
      ],
      "stateMutability": "view",
      "type": "function"
    },
    {
      "inputs": [
        {
          "internalType": "address",
          "name": "user",
          "type": "address"
        }
      ],
      "name": "registerUser",
      "outputs": [],
      "stateMutability": "nonpayable",
      "type": "function"
    },
    {
      "inputs": [
        {
          "internalType": "address",
          "name": "",
          "type": "address"
        }
      ],
      "name": "registeredUsers",
      "outputs": [
        {
          "internalType": "bool",
          "name": "",
          "type": "bool"
        }
      ],
      "stateMutability": "view",
      "type": "function"
    },
    {
      "inputs": [
        {
          "internalType": "address",
          "name": "moderator",
          "type": "address"
        }
      ],
      "name": "removeModerator",
      "outputs": [],
      "stateMutability": "nonpayable",
      "type": "function"
    },
    {
      "inputs": [],
      "name": "renounceOwnership",
      "outputs": [],
      "stateMutability": "nonpayable",
      "type": "function"
    },
    {
      "inputs": [
        {
          "internalType": "uint256",
          "name": "pendingId",
          "type": "uint256"
        },
        {
          "internalType": "bool",
          "name": "approved",
          "type": "bool"
        },
        {
          "internalType": "string",
          "name": "reviewNotes",
          "type": "string"
        }
      ],
      "name": "reviewProposal",
      "outputs": [],
      "stateMutability": "nonpayable",
      "type": "function"
    },
    {
      "inputs": [
        {
          "internalType": "address",
          "name": "beneficiary",
          "type": "address"
        },
        {
          "components": [
            {
              "internalType": "string",
              "name": "title",
              "type": "string"
            },
            {
              "internalType": "string",
              "name": "description",
              "type": "string"
            },
            {
              "internalType": "string",
              "name": "location",
              "type": "string"
            },
            {
              "internalType": "enum Proposal.ProjectCategory",
              "name": "category",
              "type": "uint8"
            },
            {
              "internalType": "uint256",
              "name": "requestedAmount",
              "type": "uint256"
            },
            {
              "internalType": "uint256",
              "name": "duration",
              "type": "uint256"
            },
            {
              "internalType": "string",
              "name": "website",
              "type": "string"
            },
            {
              "internalType": "string[]",
              "name": "images",
              "type": "string[]"
            }
          ],
          "internalType": "struct Proposal.ProjectDetails",
          "name": "projectDetails",
          "type": "tuple"
        }
      ],
      "name": "submitProposal",
      "outputs": [
        {
          "internalType": "uint256",
          "name": "",
          "type": "uint256"
        }
      ],
      "stateMutability": "nonpayable",
      "type": "function"
    },
    {
      "inputs": [],
      "name": "totalFundsDistributed",
      "outputs": [
        {
          "internalType": "uint256",
          "name": "",
          "type": "uint256"
        }
      ],
      "stateMutability": "view",
      "type": "function"
    },
    {
      "inputs": [],
      "name": "totalFundsRaised",
      "outputs": [
        {
          "internalType": "uint256",
          "name": "",
          "type": "uint256"
        }
      ],
      "stateMutability": "view",
      "type": "function"
    },
    {
      "inputs": [
        {
          "internalType": "address",
          "name": "newOwner",
          "type": "address"
        }
      ],
      "name": "transferOwnership",
      "outputs": [],
      "stateMutability": "nonpayable",
      "type": "function"
    },
    {
      "inputs": [
        {
          "internalType": "uint256",
          "name": "newFee",
          "type": "uint256"
        }
      ],
      "name": "updatePlatformFee",
      "outputs": [],
      "stateMutability": "nonpayable",
      "type": "function"
    },
    {
      "inputs": [
        {
          "internalType": "uint256",
          "name": "proposalId",
          "type": "uint256"
        },
        {
          "internalType": "uint256",
          "name": "co2Reduction",
          "type": "uint256"
        },
        {
          "internalType": "uint256",
          "name": "energyGeneration",
          "type": "uint256"
        },
        {
          "internalType": "uint256",
          "name": "jobsCreated",
          "type": "uint256"
        },
        {
          "internalType": "uint256",
          "name": "aiScore",
          "type": "uint256"
        }
      ],
      "name": "updateProposalImpactMetrics",
      "outputs": [],
      "stateMutability": "nonpayable",
      "type": "function"
    },
    {
      "inputs": [
        {
          "internalType": "address",
          "name": "user",
          "type": "address"
        }
      ],
      "name": "updateUserVoteCount",
      "outputs": [],
      "stateMutability": "nonpayable",
      "type": "function"
    },
    {
      "inputs": [
        {
          "internalType": "address",
          "name": "",
          "type": "address"
        }
      ],
      "name": "userContributions",
      "outputs": [
        {
          "internalType": "uint256",
          "name": "",
          "type": "uint256"
        }
      ],
      "stateMutability": "view",
      "type": "function"
    },
    {
      "inputs": [
        {
          "internalType": "address",
          "name": "",
          "type": "address"
        },
        {
          "internalType": "uint256",
          "name": "",
          "type": "uint256"
        }
      ],
      "name": "userProposals",
      "outputs": [
        {
          "internalType": "uint256",
          "name": "",
          "type": "uint256"
        }
      ],
      "stateMutability": "view",
      "type": "function"
    },
    {
      "inputs": [
        {
          "internalType": "address",
          "name": "",
          "type": "address"
        }
      ],
      "name": "userRegistry",
      "outputs": [
        {
          "internalType": "uint256",
          "name": "registrationTimestamp",
          "type": "uint256"
        },
        {
          "internalType": "uint256",
          "name": "totalContributions",
          "type": "uint256"
        },
        {
          "internalType": "uint256",
          "name": "proposalCount",
          "type": "uint256"
        },
        {
          "internalType": "uint256",
          "name": "voteCount",
          "type": "uint256"
        },
        {
          "internalType": "bool",
          "name": "isActive",
          "type": "bool"
        }
      ],
      "stateMutability": "view",
      "type": "function"
    },
    {
      "inputs": [
        {
          "internalType": "address",
          "name": "",
          "type": "address"
        }
      ],
      "name": "validProposal",
      "outputs": [
        {
          "internalType": "bool",
          "name": "",
          "type": "bool"
        }
      ],
      "stateMutability": "view",
      "type": "function"
    },
    {
      "inputs": [
        {
          "internalType": "uint256",
          "name": "amount",
          "type": "uint256"
        }
      ],
      "name": "withdrawFees",
      "outputs": [],
      "stateMutability": "nonpayable",
      "type": "function"
    }
  ],
  "bytecode": "0x60a060405260fa6005553480156200001657600080fd5b50604051620055ea380380620055ea8339810160408190526200003991620001b9565b33806200006057604051631e4fbdf760e01b81526000600482015260240160405180910390fd5b6200006b81620000ab565b5060018080556001600160a01b038216608052336000818152600960205260409020805460ff1916909217909155620000a490620000fb565b50620001eb565b600080546001600160a01b038381166001600160a01b0319831681178455604051919092169283917f8be0079c531659141344cd1fd0a4f28419497f9722a3daafe3b4186f6b6457e09190a35050565b6001600160a01b0381166000818152600e602090815260408083208054600160ff199182168117909255825160a0810184524280825281860187815282860188815260608401898152608085018781528b8b52600f8a529988902094518555915195840195909555935160028301559251600382015594516004909501805490911694151594909417909355519182527fe29d35093005f4d575e1003753426b57a7f64378ba73332eef9c6ccc2b8decd6910160405180910390a250565b600060208284031215620001cc57600080fd5b81516001600160a01b0381168114620001e457600080fd5b9392505050565b6080516153b9620002316000396000818161046d01528181610b7701528181610c2c01528181611501015281816115c101528181612523015261289501526153b96000f3fe60806040523480156200001157600080fd5b5060043610620002a95760003560e01c80636386c1c7116200016d578063aa0b598811620000d3578063db9b95421162000092578063db9b95421462000709578063f21803dc1462000712578063f2fde38b146200073e578063fa6f39361462000755578063fef0f8de146200077b578063ffc4bfde146200078557600080fd5b8063aa0b598814620006a3578063b532e4cb14620006ba578063b7613f5714620006d1578063d32521a014620006db578063d68bda0314620006f257600080fd5b80637fe0dd32116200012c5780637fe0dd3214620005d3578063869d785f14620006415780638da5cb5b14620006585780639daa94f1146200066a578063a2b9b7cf1462000681578063a438d208146200069857600080fd5b80636386c1c714620004f057806364dd86c2146200054c5780636a61cf611462000577578063715018a614620005a357806378ef113814620005ad57600080fd5b806326232a2e11620002135780633dfff9cb11620001d25780633dfff9cb146200048f5780633ef8f3831462000498578063427c0c7f14620004be57806358462d0c14620004c85780635e318e0714620004d95780635e510b6014620004c857600080fd5b806326232a2e14620004185780633340a17614620004225780633998a68114620004345780633b4d01a7146200043e5780633de98b43146200046757600080fd5b80630f6ca1a8116200026c5780630f6ca1a81462000377578063163f7522146200039a57806319bee47414620003c95780631b31527f14620003d35780631d194d7114620003ea5780632199d5cd146200040157600080fd5b8063013cf08b14620002ae578063047fe09a14620002f75780630c0512e914620003105780630d61b51914620003295780630e50cee51462000340575b600080fd5b620002da620002bf36600462002d61565b6006602052600090815260409020546001600160a01b031681565b6040516001600160a01b0390911681526020015b60405180910390f35b6200030e6200030836600462002e88565b620007b0565b005b6200031a60025481565b604051908152602001620002ee565b6200030e6200033a36600462002d61565b6200092a565b620003666200035136600462002efd565b600e6020526000908152604090205460ff1681565b6040519015158152602001620002ee565b6200031a6200038836600462002efd565b60086020526000908152604090205481565b62000366620003ab36600462002efd565b6001600160a01b03166000908152600e602052604090205460ff1690565b6200031a60045481565b6200031a620003e436600462002f24565b62000e2c565b6200031a620003fb3660046200301e565b62000e5e565b6200030e6200041236600462002efd565b62001232565b6200031a60055481565b6200031a69152d02c7e14af680000081565b6200031a6101f481565b620004556200044f36600462002d61565b6200134c565b604051620002ee949392919062003184565b620002da7f000000000000000000000000000000000000000000000000000000000000000081565b600d546200031a565b62000366620004a936600462002efd565b600a6020526000908152604090205460ff1681565b6200031a60035481565b6200031a683635c9adc5dea0000081565b6200030e620004ea36600462002d61565b620014e2565b620005076200050136600462002efd565b62001694565b604051620002ee9190600060a0820190508251825260208301516020830152604083015160408301526060830151606083015260808301511515608083015292915050565b620005636200055d36600462002d61565b62001786565b604051620002ee969594939291906200321a565b6200058e6200058836600462002d61565b62001a3e565b604051620002ee979695949392919062003300565b6200030e62001ec3565b620005c4620005be36600462002efd565b62001edb565b604051620002ee91906200342b565b62000616620005e436600462002efd565b600f60205260009081526040902080546001820154600283015460038401546004909401549293919290919060ff1685565b6040805195865260208601949094529284019190915260608301521515608082015260a001620002ee565b6200030e6200065236600462002efd565b62001f49565b6000546001600160a01b0316620002da565b6200030e6200067b36600462003471565b6200203b565b6200030e6200069236600462002efd565b62002146565b6200031a62093a8081565b6200030e620006b436600462002d61565b620022b8565b6200030e620006cb36600462002efd565b6200234a565b620005c46200244b565b6200030e620006ec36600462002d61565b620024a5565b6200031a6200070336600462002d61565b620026f6565b6200031a603381565b620007296200072336600462002d61565b62002718565b604051620002ee9796959493929190620034ad565b6200030e6200074f36600462002efd565b62002821565b620003666200076636600462002efd565b60096020526000908152604090205460ff1681565b6200031a600c5481565b6200078f62002862565b604080519485526020850193909352918301526060820152608001620002ee565b3360009081526009602052604090205460ff1680620007d957506000546001600160a01b031633145b620008015760405162461bcd60e51b8152600401620007f89062003503565b60405180910390fd5b6000838152600b60205260409020546001600160a01b0316620008385760405162461bcd60e51b8152600401620007f8906200352c565b6000838152600b60208190526040909120015460ff16156200089d5760405162461bcd60e51b815260206004820152601960248201527f50726f706f73616c20616c7265616479207265766965776564000000000000006044820152606401620007f8565b6000838152600b6020819052604090912090810180548415156101000261ffff19909116176001179055600c01620008d68282620035f3565b50827f101db68036d705420f12037000ce45c0dc2eccdbb451e04644912e8dc0b228a983836040516200090b929190620036c0565b60405180910390a281156200092557620009258362002911565b505050565b6200093462002b22565b6000818152600660205260409020546001600160a01b03166200096b5760405162461bcd60e51b8152600401620007f8906200352c565b6000818152600660205260409020546001600160a01b03166001816001600160a01b031663200d2ed26040518163ffffffff1660e01b8152600401602060405180830381865afa158015620009c4573d6000803e3d6000fd5b505050506040513d601f19601f82011682018060405250810190620009ea9190620036e5565b6004811115620009fe57620009fe6200316e565b1462000a4d5760405162461bcd60e51b815260206004820152601760248201527f50726f706f73616c20686173206e6f74207061737365640000000000000000006044820152606401620007f8565b806001600160a01b031663b99aeb9a6040518163ffffffff1660e01b8152600401600060405180830381600087803b15801562000a8957600080fd5b505af115801562000a9e573d6000803e3d6000fd5b505050506000806000806000806000876001600160a01b0316632accd1446040518163ffffffff1660e01b8152600401600060405180830381865afa15801562000aec573d6000803e3d6000fd5b505050506040513d6000823e601f3d908101601f1916820160405262000b16919081019062003761565b965096509650965096509650965060006127106005548562000b39919062003857565b62000b45919062003877565b9050600062000b5582866200389a565b6040516370a0823160e01b815230600482015290915081906001600160a01b037f000000000000000000000000000000000000000000000000000000000000000016906370a0823190602401602060405180830381865afa15801562000bbf573d6000803e3d6000fd5b505050506040513d601f19601f8201168201806040525081019062000be59190620038b0565b101562000c2a5760405162461bcd60e51b8152602060048201526012602482015271496e73756666696369656e742066756e647360701b6044820152606401620007f8565b7f00000000000000000000000000000000000000000000000000000000000000006001600160a01b031663a9059cbb8b6001600160a01b03166338af3eed6040518163ffffffff1660e01b8152600401602060405180830381865afa15801562000c98573d6000803e3d6000fd5b505050506040513d601f19601f8201168201806040525081019062000cbe9190620038ca565b6040516001600160e01b031960e084901b1681526001600160a01b039091166004820152602481018490526044016020604051808303816000875af115801562000d0c573d6000803e3d6000fd5b505050506040513d601f19601f8201168201806040525081019062000d329190620038ea565b62000d515760405162461bcd60e51b8152600401620007f8906200390a565b806004600082825462000d65919062003933565b92505081905550896001600160a01b03166338af3eed6040518163ffffffff1660e01b8152600401602060405180830381865afa15801562000dab573d6000803e3d6000fd5b505050506040513d601f19601f8201168201806040525081019062000dd19190620038ca565b6001600160a01b03168b7f9f5926601e7fc353505f05fae61282ae5d67b716f95656849456e6aa7bbbbb5f8360405162000e0d91815260200190565b60405180910390a35050505050505050505062000e2960018055565b50565b6007602052816000526040600020818154811062000e4957600080fd5b90600052602060002001600091509150505481565b60008160800151683635c9adc5dea0000081101562000eb75760405162461bcd60e51b8152602060048201526014602482015273416d6f756e742062656c6f77206d696e696d756d60601b6044820152606401620007f8565b69152d02c7e14af680000081111562000f0a5760405162461bcd60e51b8152602060048201526014602482015273416d6f756e742061626f7665206d6178696d756d60601b6044820152606401620007f8565b6001600160a01b03841662000f585760405162461bcd60e51b8152602060048201526013602482015272496e76616c69642062656e656669636961727960681b6044820152606401620007f8565b82515162000f9a5760405162461bcd60e51b815260206004820152600e60248201526d151a5d1b19481c995c5d5a5c995960921b6044820152606401620007f8565b60008360200151511162000fe85760405162461bcd60e51b815260206004820152601460248201527311195cd8dc9a5c1d1a5bdb881c995c5d5a5c995960621b6044820152606401620007f8565b336000908152600e602052604090205460ff166200100b576200100b3362002b4d565b600c80549060006200101d8362003949565b9091555050600c546040805160e0810182523381526001600160a01b03878116602080840191825283850189815242606086015260006080860181905260a086018190528651808401885281815260c0870152878152600b909252949020835181549084166001600160a01b03199182161782559151600182018054919094169216919091179091559151805191929160028301908190620010c09082620035f3565b5060208201516001820190620010d79082620035f3565b5060408201516002820190620010ee9082620035f3565b50606082015160038201805460ff191660018360068111156200111557620011156200316e565b02179055506080820151600482015560a0820151600582015560c08201516006820190620011449082620035f3565b5060e082015180516200116291600784019160209091019062002c85565b5050506060820151600a8201556080820151600b8201805460a085015115156101000261ff00199315159390931661ffff199091161791909117905560c0820151600c820190620011b49082620035f3565b5050600d80546001810182556000919091527fd7b6990105719101dabeb77144f2a3385c8033acd3af97e9423a695e81ad1eb501829055508351604051339183917fba63161e1c7e096aaf63cb63b137eeea26b870df0007c6e2ad029bae55d6517991620012229162003965565b60405180910390a3949350505050565b6001600160a01b0381166200127c5760405162461bcd60e51b815260206004820152600f60248201526e496e76616c6964206164647265737360881b6044820152606401620007f8565b336001600160a01b03821614620012d65760405162461bcd60e51b815260206004820152601f60248201527f4f6e6c792074686520757365722063616e2073656c662d7265676973746572006044820152606401620007f8565b6001600160a01b0381166000908152600e602052604090205460ff1615620013415760405162461bcd60e51b815260206004820152601760248201527f5573657220616c726561647920726567697374657265640000000000000000006044820152606401620007f8565b62000e298162002b4d565b6000818152600660205260408120548190819081906001600160a01b0316620013895760405162461bcd60e51b8152600401620007f8906200352c565b600085815260066020908152604091829020548251630a8e4fb960e41b815292516001600160a01b03909116928392839263a8e4fb909260048082019392918290030181865afa158015620013e2573d6000803e3d6000fd5b505050506040513d601f19601f82011682018060405250810190620014089190620038ca565b826001600160a01b03166338af3eed6040518163ffffffff1660e01b8152600401602060405180830381865afa15801562001447573d6000803e3d6000fd5b505050506040513d601f19601f820116820180604052508101906200146d9190620038ca565b836001600160a01b031663200d2ed26040518163ffffffff1660e01b8152600401602060405180830381865afa158015620014ac573d6000803e3d6000fd5b505050506040513d601f19601f82011682018060405250810190620014d29190620036e5565b9450945094509450509193509193565b620014ec62002c06565b6040516370a0823160e01b81523060048201527f00000000000000000000000000000000000000000000000000000000000000006001600160a01b0316906370a0823190602401602060405180830381865afa15801562001551573d6000803e3d6000fd5b505050506040513d601f19601f82011682018060405250810190620015779190620038b0565b811115620015bf5760405162461bcd60e51b8152602060048201526014602482015273496e73756666696369656e742062616c616e636560601b6044820152606401620007f8565b7f00000000000000000000000000000000000000000000000000000000000000006001600160a01b031663a9059cbb620016016000546001600160a01b031690565b6040516001600160e01b031960e084901b1681526001600160a01b039091166004820152602481018490526044016020604051808303816000875af11580156200164f573d6000803e3d6000fd5b505050506040513d601f19601f82011682018060405250810190620016759190620038ea565b62000e295760405162461bcd60e51b8152600401620007f8906200390a565b620016c96040518060a00160405280600081526020016000815260200160008152602001600081526020016000151581525090565b6001600160a01b0382166000908152600e602052604090205460ff16620017295760405162461bcd60e51b8152602060048201526013602482015272155cd95c881b9bdd081c9959da5cdd195c9959606a1b6044820152606401620007f8565b506001600160a01b03166000908152600f6020908152604091829020825160a081018452815481526001820154928101929092526002810154928201929092526003820154606082015260049091015460ff161515608082015290565b6000818152600b60205260408120600581015460609283929091829184918291906003820190600483019060ff166006811115620017c857620017c86200316e565b600784015483546008860190600c8701908690620017e69062003563565b80601f0160208091040260200160405190810160405280929190818152602001828054620018149062003563565b8015620018655780601f10620018395761010080835404028352916020019162001865565b820191906000526020600020905b8154815290600101906020018083116200184757829003601f168201915b505050505095508480546200187a9062003563565b80601f0160208091040260200160405190810160405280929190818152602001828054620018a89062003563565b8015620018f95780601f10620018cd57610100808354040283529160200191620018f9565b820191906000526020600020905b815481529060010190602001808311620018db57829003601f168201915b505050505094508180546200190e9062003563565b80601f01602080910402602001604051908101604052809291908181526020018280546200193c9062003563565b80156200198d5780601f1062001961576101008083540402835291602001916200198d565b820191906000526020600020905b8154815290600101906020018083116200196f57829003601f168201915b50505050509150808054620019a29062003563565b80601f0160208091040260200160405190810160405280929190818152602001828054620019d09062003563565b801562001a215780601f10620019f55761010080835404028352916020019162001a21565b820191906000526020600020905b81548152906001019060200180831162001a0357829003601f168201915b505050505090509650965096509650965096505091939550919395565b600b602052600090815260409081902080546001820154835161010081019094526002830180546001600160a01b03938416959290931693928290829062001a869062003563565b80601f016020809104026020016040519081016040528092919081815260200182805462001ab49062003563565b801562001b055780601f1062001ad95761010080835404028352916020019162001b05565b820191906000526020600020905b81548152906001019060200180831162001ae757829003601f168201915b5050505050815260200160018201805462001b209062003563565b80601f016020809104026020016040519081016040528092919081815260200182805462001b4e9062003563565b801562001b9f5780601f1062001b735761010080835404028352916020019162001b9f565b820191906000526020600020905b81548152906001019060200180831162001b8157829003601f168201915b5050505050815260200160028201805462001bba9062003563565b80601f016020809104026020016040519081016040528092919081815260200182805462001be89062003563565b801562001c395780601f1062001c0d5761010080835404028352916020019162001c39565b820191906000526020600020905b81548152906001019060200180831162001c1b57829003601f168201915b5050509183525050600382015460209091019060ff16600681111562001c635762001c636200316e565b600681111562001c775762001c776200316e565b8152602001600482015481526020016005820154815260200160068201805462001ca19062003563565b80601f016020809104026020016040519081016040528092919081815260200182805462001ccf9062003563565b801562001d205780601f1062001cf45761010080835404028352916020019162001d20565b820191906000526020600020905b81548152906001019060200180831162001d0257829003601f168201915b5050505050815260200160078201805480602002602001604051908101604052809291908181526020016000905b8282101562001e0457838290600052602060002001805462001d709062003563565b80601f016020809104026020016040519081016040528092919081815260200182805462001d9e9062003563565b801562001def5780601f1062001dc35761010080835404028352916020019162001def565b820191906000526020600020905b81548152906001019060200180831162001dd157829003601f168201915b50505050508152602001906001019062001d4e565b50505091525050600a820154600b830154600c840180549394929360ff808416946101009094041692919062001e3a9062003563565b80601f016020809104026020016040519081016040528092919081815260200182805462001e689062003563565b801562001eb95780601f1062001e8d5761010080835404028352916020019162001eb9565b820191906000526020600020905b81548152906001019060200180831162001e9b57829003601f168201915b5050505050905087565b62001ecd62002c06565b62001ed9600062002c35565b565b6001600160a01b03811660009081526007602090815260409182902080548351818402810184019094528084526060939283018282801562001f3d57602002820191906000526020600020905b81548152602001906001019080831162001f28575b50505050509050919050565b62001f5362002c06565b6001600160a01b03811660009081526009602052604090205460ff1662001f8e5760405162461bcd60e51b8152600401620007f89062003503565b6000546001600160a01b03166001600160a01b0316816001600160a01b03160362001ff25760405162461bcd60e51b815260206004820152601360248201527221b0b73737ba103932b6b7bb329037bbb732b960691b6044820152606401620007f8565b6001600160a01b038116600081815260096020526040808220805460ff19169055517f7a9f1e23d5426b34819d173153d59084cc3578d5a129b80bb27df683ac6b22789190a250565b3360009081526009602052604090205460ff16806200206457506000546001600160a01b031633145b620020835760405162461bcd60e51b8152600401620007f89062003503565b6000858152600660205260409020546001600160a01b0316620020ba5760405162461bcd60e51b8152600401620007f8906200352c565b600085815260066020526040908190205490516342d9a84560e01b8152600481018690526024810185905260448101849052606481018390526001600160a01b039091169081906342d9a84590608401600060405180830381600087803b1580156200212557600080fd5b505af11580156200213a573d6000803e3d6000fd5b50505050505050505050565b6001600160a01b0381166000908152600e602052604090205460ff16620021a65760405162461bcd60e51b8152602060048201526013602482015272155cd95c881b9bdd081c9959da5cdd195c9959606a1b6044820152606401620007f8565b336000908152600a602052604090205460ff166200221d5760405162461bcd60e51b815260206004820152602d60248201527f4f6e6c792070726f706f73616c20636f6e7472616374732063616e207570646160448201526c1d19481d9bdd194818dbdd5b9d609a1b6064820152608401620007f8565b6001600160a01b0381166000908152600f60205260408120600301805491620022468362003949565b90915550506001600160a01b0381166000818152600f602090815260409182902060018101546002820154600390920154845191825292810191909152918201527f18150bb59fba5ca755274cb48b648bf90f73145f789974ca53c857fa925a36f9906060015b60405180910390a250565b620022c262002c06565b6101f4811115620023055760405162461bcd60e51b815260206004820152600c60248201526b08ccaca40e8dede40d0d2ced60a31b6044820152606401620007f8565b600580549082905560408051828152602081018490527fd347e206f25a89b917fc9482f1a2d294d749baa4dc9bde7fb495ee11fe491643910160405180910390a15050565b6200235462002c06565b6001600160a01b0381166200239e5760405162461bcd60e51b815260206004820152600f60248201526e496e76616c6964206164647265737360881b6044820152606401620007f8565b6001600160a01b03811660009081526009602052604090205460ff1615620023ff5760405162461bcd60e51b815260206004820152601360248201527220b63932b0b23c90309036b7b232b930ba37b960691b6044820152606401620007f8565b6001600160a01b038116600081815260096020526040808220805460ff19166001179055517fd378ad41c1a753fd1ba9ec0fcd7970526c175b68545b4a02d6d15e7606fe35969190a250565b6060600d8054806020026020016040519081016040528092919081815260200182805480156200249b57602002820191906000526020600020905b81548152602001906001019080831162002486575b5050505050905090565b620024af62002b22565b60008111620025015760405162461bcd60e51b815260206004820152601d60248201527f416d6f756e74206d7573742062652067726561746572207468616e20300000006044820152606401620007f8565b6040516323b872dd60e01b8152336004820152306024820152604481018290527f00000000000000000000000000000000000000000000000000000000000000006001600160a01b0316906323b872dd906064016020604051808303816000875af115801562002575573d6000803e3d6000fd5b505050506040513d601f19601f820116820180604052508101906200259b9190620038ea565b620025ba5760405162461bcd60e51b8152600401620007f8906200390a565b336000908152600e602052604090205460ff16620025dd57620025dd3362002b4d565b3360009081526008602052604081208054839290620025fe90849062003933565b92505081905550806003600082825462002619919062003933565b9091555050336000908152600f6020526040812060010180548392906200264290849062003933565b9091555050336000818152600f602090815260409182902060018101546002820154600390920154845191825292810191909152918201527f18150bb59fba5ca755274cb48b648bf90f73145f789974ca53c857fa925a36f99060600160405180910390a260035460405133917f7be992b019ae2b814cc7e81328fd30f2a7d6f6602ab4aa03a40a86707b46de8191620026e491858252602082015260400190565b60405180910390a262000e2960018055565b600d81815481106200270757600080fd5b600091825260209091200154905081565b6000818152600b602081905260408220805460018201546006830154600a840154948401546002850180548897606097899788978897889793966001600160a01b039384169693909216949193909260ff80831692610100900416908590620027819062003563565b80601f0160208091040260200160405190810160405280929190818152602001828054620027af9062003563565b8015620028005780601f10620027d45761010080835404028352916020019162002800565b820191906000526020600020905b815481529060010190602001808311620027e257829003601f168201915b50505050509450975097509750975097509750975050919395979092949650565b6200282b62002c06565b6001600160a01b0381166200285757604051631e4fbdf760e01b815260006004820152602401620007f8565b62000e298162002c35565b600254600354600480546040516370a0823160e01b81523092810192909252600093849384938493906001600160a01b037f000000000000000000000000000000000000000000000000000000000000000016906370a0823190602401602060405180830381865afa158015620028dd573d6000803e3d6000fd5b505050506040513d601f19601f82011682018060405250810190620029039190620038b0565b935093509350935090919293565b6000818152600b60205260408120600280549192620029308362003949565b90915550506002805482546001840154604051929360009385936001600160a01b0390811693169187019062093a8090683635c9adc5dea0000090603390620029799062002ce2565b6200298b979695949392919062003a54565b604051809103906000f080158015620029a8573d6000803e3d6000fd5b50600083815260066020908152604080832080546001600160a01b0319166001600160a01b038681169182179092558452600a8352818420805460ff1916600190811790915588548216855260078452828520805491820181558552838520018790558754168352600f909152812060020180549293509062002a2b8362003949565b909155505082546001600160a01b03166000818152600f602090815260409182902060018101546002820154600390920154845191825292810191909152918201527f18150bb59fba5ca755274cb48b648bf90f73145f789974ca53c857fa925a36f99060600160405180910390a2825460068401546040516001600160a01b0380851693169185917f35f722dea8b2845bb2ed781bf0b11f8e69e733bda70d447d6cd2d2c072fe8cde9162002ae79160028a01919062003b5b565b60405180910390a4604051829085907fc6a4fd4a703d2a2fe3167ce7f6d62bf96458b7e55042cfaa85d5c7ef3ac56eea90600090a350505050565b60026001540362002b4657604051633ee5aeb560e01b815260040160405180910390fd5b6002600155565b6001600160a01b0381166000818152600e602090815260408083208054600160ff199182168117909255825160a0810184524280825281860187815282860188815260608401898152608085018781528b8b52600f8a529988902094518555915195840195909555935160028301559251600382015594516004909501805490911694151594909417909355519182527fe29d35093005f4d575e1003753426b57a7f64378ba73332eef9c6ccc2b8decd69101620022ad565b6000546001600160a01b0316331462001ed95760405163118cdaa760e01b8152336004820152602401620007f8565b600080546001600160a01b038381166001600160a01b0319831681178455604051919092169283917f8be0079c531659141344cd1fd0a4f28419497f9722a3daafe3b4186f6b6457e09190a35050565b82805482825590600052602060002090810192821562002cd0579160200282015b8281111562002cd0578251829062002cbf9082620035f3565b509160200191906001019062002ca6565b5062002cde92915062002cf0565b5090565b6118048062003b8083390190565b8082111562002cde57600062002d07828262002d11565b5060010162002cf0565b50805462002d1f9062003563565b6000825580601f1062002d30575050565b601f01602090049060005260206000209081019062000e2991905b8082111562002cde576000815560010162002d4b565b60006020828403121562002d7457600080fd5b5035919050565b801515811462000e2957600080fd5b634e487b7160e01b600052604160045260246000fd5b604051610100810167ffffffffffffffff8111828210171562002dc75762002dc762002d8a565b60405290565b604051601f8201601f1916810167ffffffffffffffff8111828210171562002df95762002df962002d8a565b604052919050565b600067ffffffffffffffff82111562002e1e5762002e1e62002d8a565b50601f01601f191660200190565b600082601f83011262002e3e57600080fd5b813562002e5562002e4f8262002e01565b62002dcd565b81815284602083860101111562002e6b57600080fd5b816020850160208301376000918101602001919091529392505050565b60008060006060848603121562002e9e57600080fd5b83359250602084013562002eb28162002d7b565b9150604084013567ffffffffffffffff81111562002ecf57600080fd5b62002edd8682870162002e2c565b9150509250925092565b6001600160a01b038116811462000e2957600080fd5b60006020828403121562002f1057600080fd5b813562002f1d8162002ee7565b9392505050565b6000806040838503121562002f3857600080fd5b823562002f458162002ee7565b946020939093013593505050565b6007811062000e2957600080fd5b803562002f6e8162002f53565b919050565b600082601f83011262002f8557600080fd5b8135602067ffffffffffffffff8083111562002fa55762002fa562002d8a565b8260051b62002fb683820162002dcd565b938452858101830193838101908886111562002fd157600080fd5b84880192505b85831015620030125782358481111562002ff15760008081fd5b620030018a87838c010162002e2c565b835250918401919084019062002fd7565b98975050505050505050565b600080604083850312156200303257600080fd5b82356200303f8162002ee7565b9150602083013567ffffffffffffffff808211156200305d57600080fd5b9084019061010082870312156200307357600080fd5b6200307d62002da0565b8235828111156200308d57600080fd5b6200309b8882860162002e2c565b825250602083013582811115620030b157600080fd5b620030bf8882860162002e2c565b602083015250604083013582811115620030d857600080fd5b620030e68882860162002e2c565b604083015250620030fa6060840162002f61565b60608201526080830135608082015260a083013560a082015260c0830135828111156200312657600080fd5b620031348882860162002e2c565b60c08301525060e0830135828111156200314d57600080fd5b6200315b8882860162002f73565b60e0830152508093505050509250929050565b634e487b7160e01b600052602160045260246000fd5b6001600160a01b0385811682528481166020830152831660408201526080810160058310620031b757620031b76200316e565b82606083015295945050505050565b60005b83811015620031e3578181015183820152602001620031c9565b50506000910152565b6000815180845262003206816020860160208601620031c6565b601f01601f19169290920160200192915050565b60c0815260006200322f60c0830189620031ec565b8281036020840152620032438189620031ec565b905060ff871660408401528560608401528281036080840152620032688186620031ec565b905082810360a08401526200327e8185620031ec565b9998505050505050505050565b600781106200329e576200329e6200316e565b9052565b60008282518085526020808601955060208260051b8401016020860160005b84811015620032f357601f19868403018952620032e0838351620031ec565b98840198925090830190600101620032c1565b5090979650505050505050565b6001600160a01b0388811682528716602082015260e06040820181905286516101009183018290526000916200333b6101e0850183620031ec565b9150602089015160df198086850301838701526200335a8483620031ec565b935060408b0151925080868503016101208701526200337a8484620031ec565b935060608b01519250620033936101408701846200328b565b60808b015161016087015260a08b015161018087015260c08b0151925080868503016101a0870152620033c78484620031ec565b935060e08b0151925080868503016101c08701525050620033e98282620032a2565b91505086606084015262003401608084018715159052565b84151560a084015282810360c08401526200341d8185620031ec565b9a9950505050505050505050565b6020808252825182820181905260009190848201906040850190845b81811015620034655783518352928401929184019160010162003447565b50909695505050505050565b600080600080600060a086880312156200348a57600080fd5b505083359560208501359550604085013594606081013594506080013592509050565b6001600160a01b0388811682528716602082015260e060408201819052600090620034db90830188620031ec565b606083019690965250608081019390935290151560a0830152151560c0909101529392505050565b6020808252600f908201526e2737ba10309036b7b232b930ba37b960891b604082015260600190565b60208082526017908201527f50726f706f73616c20646f6573206e6f74206578697374000000000000000000604082015260600190565b600181811c908216806200357857607f821691505b6020821081036200359957634e487b7160e01b600052602260045260246000fd5b50919050565b601f82111562000925576000816000526020600020601f850160051c81016020861015620035ca5750805b601f850160051c820191505b81811015620035eb57828155600101620035d6565b505050505050565b815167ffffffffffffffff81111562003610576200361062002d8a565b620036288162003621845462003563565b846200359f565b602080601f831160018114620036605760008415620036475750858301515b600019600386901b1c1916600185901b178555620035eb565b600085815260208120601f198616915b82811015620036915788860151825594840194600190910190840162003670565b5085821015620036b05787850151600019600388901b60f8161c191681555b5050505050600190811b01905550565b8215158152604060208201526000620036dd6040830184620031ec565b949350505050565b600060208284031215620036f857600080fd5b81516005811062002f1d57600080fd5b600082601f8301126200371a57600080fd5b81516200372b62002e4f8262002e01565b8181528460208386010111156200374157600080fd5b620036dd826020830160208701620031c6565b805162002f6e8162002f53565b600080600080600080600060e0888a0312156200377d57600080fd5b875167ffffffffffffffff808211156200379657600080fd5b620037a48b838c0162003708565b985060208a0151915080821115620037bb57600080fd5b620037c98b838c0162003708565b975060408a0151915080821115620037e057600080fd5b620037ee8b838c0162003708565b9650620037fe60608b0162003754565b955060808a0151945060a08a0151935060c08a01519150808211156200382357600080fd5b50620038328a828b0162003708565b91505092959891949750929550565b634e487b7160e01b600052601160045260246000fd5b808202811582820484141762003871576200387162003841565b92915050565b6000826200389557634e487b7160e01b600052601260045260246000fd5b500490565b8181038181111562003871576200387162003841565b600060208284031215620038c357600080fd5b5051919050565b600060208284031215620038dd57600080fd5b815162002f1d8162002ee7565b600060208284031215620038fd57600080fd5b815162002f1d8162002d7b565b6020808252600f908201526e151c985b9cd9995c8819985a5b1959608a1b604082015260600190565b8082018082111562003871576200387162003841565b6000600182016200395e576200395e62003841565b5060010190565b60208152600062002f1d6020830184620031ec565b60008154620039898162003563565b808552602060018381168015620039a95760018114620039c457620039f4565b60ff1985168884015283151560051b880183019550620039f4565b866000528260002060005b85811015620039ec5781548a8201860152908301908401620039cf565b890184019650505b505050505092915050565b60008282548085526020808601955060208260051b84010185600052602060002060005b84811015620032f357858303601f1901895262003a4183836200397a565b9884019892506001918201910162003a23565b8781526001600160a01b0387811660208301528616604082015260e06060820181905261010090820181905260009062003a936101e08401886200397a565b60df1980858303018386015262003aae8260018b016200397a565b9250808584030161012086015262003aca8360028b016200397a565b925062003adb60038a015460ff1690565b915062003aed6101408601836200328b565b6004890154610160860152600589015461018086015280858403016101a086015262003b1d8360068b016200397a565b925080858403016101c0860152505062003b3b8160078901620039ff565b6080840196909652505060a081019290925260c090910152949350505050565b60408152600062003b7060408301856200397a565b9050826020830152939250505056fe60806040523480156200001157600080fd5b5060405162001804380380620018048339810160408190526200003491620004fb565b33806200005b57604051631e4fbdf760e01b81526000600482015260240160405180910390fd5b6200006681620001ee565b5060018055601987905560178054610100600160a81b0319166101006001600160a01b038981169190910291909117909155601880546001600160a01b031916918716919091179055835184906002908190620000c4908262000713565b5060208201516001820190620000db908262000713565b5060408201516002820190620000f2908262000713565b50606082015160038201805460ff19166001836006811115620001195762000119620007df565b02179055506080820151600482015560a0820151600582015560c0820151600682019062000148908262000713565b5060e08201518051620001669160078401916020909101906200023e565b505050601a829055601b81905542600e81905562000186908490620007f5565b600f556017805460ff19169055835160808501516040516001600160a01b038916928a927f98120a6aaa04295520ab4e01c6c1235dd316e822cc9ff31db7b3f197366d18bd92620001d99291906200081d565b60405180910390a3505050505050506200085a565b600080546001600160a01b038381166001600160a01b0319831681178455604051919092169283917f8be0079c531659141344cd1fd0a4f28419497f9722a3daafe3b4186f6b6457e09190a35050565b82805482825590600052602060002090810192821562000289579160200282015b8281111562000289578251829062000278908262000713565b50916020019190600101906200025f565b50620002979291506200029b565b5090565b8082111562000297576000620002b28282620002bc565b506001016200029b565b508054620002ca9062000682565b6000825580601f10620002db575050565b601f016020900490600052602060002090810190620002fb9190620002fe565b50565b5b80821115620002975760008155600101620002ff565b80516001600160a01b03811681146200032d57600080fd5b919050565b634e487b7160e01b600052604160045260246000fd5b60405161010081016001600160401b03811182821017156200036e576200036e62000332565b60405290565b604051601f8201601f191681016001600160401b03811182821017156200039f576200039f62000332565b604052919050565b60005b83811015620003c4578181015183820152602001620003aa565b50506000910152565b600082601f830112620003df57600080fd5b81516001600160401b03811115620003fb57620003fb62000332565b62000410601f8201601f191660200162000374565b8181528460208386010111156200042657600080fd5b62000439826020830160208701620003a7565b949350505050565b8051600781106200032d57600080fd5b600082601f8301126200046357600080fd5b815160206001600160401b038083111562000482576200048262000332565b8260051b6200049383820162000374565b9384528581018301938381019088861115620004ae57600080fd5b84880192505b85831015620004ef57825184811115620004ce5760008081fd5b620004de8a87838c0101620003cd565b8352509184019190840190620004b4565b98975050505050505050565b600080600080600080600060e0888a0312156200051757600080fd5b87519650620005296020890162000315565b9550620005396040890162000315565b60608901519095506001600160401b03808211156200055757600080fd5b90890190610100828c0312156200056d57600080fd5b6200057762000348565b8251828111156200058757600080fd5b620005958d828601620003cd565b825250602083015182811115620005ab57600080fd5b620005b98d828601620003cd565b602083015250604083015182811115620005d257600080fd5b620005e08d828601620003cd565b604083015250620005f46060840162000441565b60608201526080830151608082015260a083015160a082015260c0830151828111156200062057600080fd5b6200062e8d828601620003cd565b60c08301525060e0830151828111156200064757600080fd5b620006558d82860162000451565b60e0830152508096505050506080880151925060a0880151915060c0880151905092959891949750929550565b600181811c908216806200069757607f821691505b602082108103620006b857634e487b7160e01b600052602260045260246000fd5b50919050565b601f8211156200070e576000816000526020600020601f850160051c81016020861015620006e95750805b601f850160051c820191505b818110156200070a57828155600101620006f5565b5050505b505050565b81516001600160401b038111156200072f576200072f62000332565b620007478162000740845462000682565b84620006be565b602080601f8311600181146200077f5760008415620007665750858301515b600019600386901b1c1916600185901b1785556200070a565b600085815260208120601f198616915b82811015620007b0578886015182559484019460019091019084016200078f565b5085821015620007cf5787850151600019600388901b60f8161c191681555b5050505050600190811b01905550565b634e487b7160e01b600052602160045260246000fd5b808201808211156200081757634e487b7160e01b600052601160045260246000fd5b92915050565b60408152600083518060408401526200083e816060850160208801620003a7565b602083019390935250601f91909101601f191601606001919050565b610f9a806200086a6000396000f3fe608060405234801561001057600080fd5b506004361061012c5760003560e01c80638da5cb5b116100ad578063cc06d3ce11610071578063cc06d3ce1461028a578063d4923d4e146102d1578063da4a4e4a14610327578063da650ec614610330578063f2fde38b1461035c57600080fd5b80638da5cb5b1461023e5780639070577f1461024f57806394a1354114610257578063a8e4fb901461026a578063b99aeb9a1461028257600080fd5b8063373058b8116100f4578063373058b8146101d657806338af3eed146101e057806342d9a8451461020b5780636eb8f6841461021e578063715018a61461023657600080fd5b8063088868e814610131578063113e20881461014d578063200d2ed2146101985780632accd144146101b25780632dfca445146101cd575b600080fd5b61013a601a5481565b6040519081526020015b60405180910390f35b600a54600b54600c54600d54600e54600f5461016b95949392919086565b604080519687526020870195909552938501929092526060840152608083015260a082015260c001610144565b6017546101a59060ff1681565b6040516101449190610d21565b6101ba61036f565b6040516101449796959493929190610d7b565b61013a60195481565b6101de6105c6565b005b6018546101f3906001600160a01b031681565b6040516001600160a01b039091168152602001610144565b6101de610219366004610df8565b61073b565b6102266107b5565b6040519015158152602001610144565b6101de610815565b6000546001600160a01b03166101f3565b6101de610827565b6101de610265366004610e2a565b610933565b6017546101f39061010090046001600160a01b031681565b6101de610b4c565b6012546013546014546015546016546102a7949392919060ff1685565b6040805195865260208601949094529284019190915260608301521515608082015260a001610144565b61030e6102df366004610e54565b6001600160a01b031660009081526010602090815260408083205460119092529091205460ff91821692911690565b60408051921515835260ff909116602083015201610144565b61013a601b5481565b600a54600b54600c54600d54604080519485526020850193909352918301526060820152608001610144565b6101de61036a366004610e54565b610c12565b60028054819061037e90610e7d565b80601f01602080910402602001604051908101604052809291908181526020018280546103aa90610e7d565b80156103f75780601f106103cc576101008083540402835291602001916103f7565b820191906000526020600020905b8154815290600101906020018083116103da57829003601f168201915b50505050509080600101805461040c90610e7d565b80601f016020809104026020016040519081016040528092919081815260200182805461043890610e7d565b80156104855780601f1061045a57610100808354040283529160200191610485565b820191906000526020600020905b81548152906001019060200180831161046857829003601f168201915b50505050509080600201805461049a90610e7d565b80601f01602080910402602001604051908101604052809291908181526020018280546104c690610e7d565b80156105135780601f106104e857610100808354040283529160200191610513565b820191906000526020600020905b8154815290600101906020018083116104f657829003601f168201915b505050600384015460048501546005860154600687018054969760ff909416969295509093509061054390610e7d565b80601f016020809104026020016040519081016040528092919081815260200182805461056f90610e7d565b80156105bc5780601f10610591576101008083540402835291602001916105bc565b820191906000526020600020905b81548152906001019060200180831161059f57829003601f168201915b5050505050905087565b600f54421161061c5760405162461bcd60e51b815260206004820152601b60248201527f566f74696e6720706572696f6420686173206e6f7420656e646564000000000060448201526064015b60405180910390fd5b610624610c50565b600060175460ff16600481111561063d5761063d610cf7565b1461065a5760405162461bcd60e51b815260040161061390610eb7565b6000601a54600a600301541015610673575060026106ca565b600b54600a5460009161068591610efd565b90508060000361069857600291506106c8565b601b54600a5482906106ab906064610f10565b6106b59190610f27565b106106c357600191506106c8565b600291505b505b6017805460ff811691839160ff191660018360048111156106ed576106ed610cf7565b02179055506019547fb0978968e606225988b6464f99ce7e86b0e8770d80eaec1369bb3780e05c64388284604051610726929190610f49565b60405180910390a2505061073960018055565b565b610743610c7a565b60128490556013839055601482905560158190556016805460ff191660011790556019546040805186815260208101869052908101849052606081018390527ff4f4153c1a7414f5c2d83d2d51c3a0077754652f7dae460b37f2b0fa705a72079060800160405180910390a250505050565b6000601a54600a6003015410156107cc5750600090565b600b54600a546000916107de91610efd565b9050806000036107f057600091505090565b601b54600a548290610803906064610f10565b61080d9190610f27565b101591505090565b61081d610c7a565b6107396000610ca7565b60175461010090046001600160a01b031633148061084f57506000546001600160a01b031633145b6108a55760405162461bcd60e51b815260206004820152602160248201527f4f6e6c792070726f706f736572206f72206f776e65722063616e2063616e63656044820152601b60fa1b6064820152608401610613565b600060175460ff1660048111156108be576108be610cf7565b146108db5760405162461bcd60e51b815260040161061390610eb7565b6017805460ff81169160049160ff191660018302179055506019547fb0978968e606225988b6464f99ce7e86b0e8770d80eaec1369bb3780e05c6438826004604051610928929190610f49565b60405180910390a250565b600060175460ff16600481111561094c5761094c610cf7565b146109695760405162461bcd60e51b815260040161061390610eb7565b60028160ff1611156109b35760405162461bcd60e51b8152602060048201526013602482015272496e76616c696420766f74652063686f69636560681b6044820152606401610613565b3360009081526010602052604090205460ff1615610a035760405162461bcd60e51b815260206004820152600d60248201526c105b1c9958591e481d9bdd1959609a1b6044820152606401610613565b600f54421115610a555760405162461bcd60e51b815260206004820152601760248201527f566f74696e6720706572696f642068617320656e6465640000000000000000006044820152606401610613565b60013360009081526010602090815260408083208054600160ff199182161790915560119092528220805490911660ff8516179055600d8054839290610a9c908490610efd565b909155505060ff8216600103610acc5780600a6000016000828254610ac19190610efd565b90915550610b079050565b8160ff16600003610aec5780600a6001016000828254610ac19190610efd565b80600a6002016000828254610b019190610efd565b90915550505b6019546040805160ff851681526020810184905233917f2c9deb38f462962eadbd85a9d3a4120503ee091f1582eaaa10aa8c6797651d29910160405180910390a35050565b610b54610c7a565b600160175460ff166004811115610b6d57610b6d610cf7565b14610bc55760405162461bcd60e51b815260206004820152602260248201527f50726f706f73616c206d7573742062652070617373656420746f206578656375604482015261746560f01b6064820152608401610613565b6017805460ff81169160039160ff191660018302179055506019547fb0978968e606225988b6464f99ce7e86b0e8770d80eaec1369bb3780e05c6438826003604051610928929190610f49565b610c1a610c7a565b6001600160a01b038116610c4457604051631e4fbdf760e01b815260006004820152602401610613565b610c4d81610ca7565b50565b600260015403610c7357604051633ee5aeb560e01b815260040160405180910390fd5b6002600155565b6000546001600160a01b031633146107395760405163118cdaa760e01b8152336004820152602401610613565b600080546001600160a01b038381166001600160a01b0319831681178455604051919092169283917f8be0079c531659141344cd1fd0a4f28419497f9722a3daafe3b4186f6b6457e09190a35050565b634e487b7160e01b600052602160045260246000fd5b60058110610d1d57610d1d610cf7565b9052565b60208101610d2f8284610d0d565b92915050565b6000815180845260005b81811015610d5b57602081850181015186830182015201610d3f565b506000602082860101526020601f19601f83011685010191505092915050565b60e081526000610d8e60e083018a610d35565b8281036020840152610da0818a610d35565b90508281036040840152610db48189610d35565b905060078710610dc657610dc6610cf7565b8660608401528560808401528460a084015282810360c0840152610dea8185610d35565b9a9950505050505050505050565b60008060008060808587031215610e0e57600080fd5b5050823594602084013594506040840135936060013592509050565b600060208284031215610e3c57600080fd5b813560ff81168114610e4d57600080fd5b9392505050565b600060208284031215610e6657600080fd5b81356001600160a01b0381168114610e4d57600080fd5b600181811c90821680610e9157607f821691505b602082108103610eb157634e487b7160e01b600052602260045260246000fd5b50919050565b60208082526016908201527550726f706f73616c206973206e6f742061637469766560501b604082015260600190565b634e487b7160e01b600052601160045260246000fd5b80820180821115610d2f57610d2f610ee7565b8082028115828204841417610d2f57610d2f610ee7565b600082610f4457634e487b7160e01b600052601260045260246000fd5b500490565b60408101610f578285610d0d565b610e4d6020830184610d0d56fea26469706673582212201eddb2c3dcdd3ac431821f00352ecbf1182f6ff6adfbb1c3e6b2503ce044588564736f6c63430008180033a2646970667358221220fb307ce2b51f90b67729f76faaef9cddf6055498045a4e4caa620f92694e3b4f64736f6c63430008180033",
  "linkReferences": {},
  "deployedLinkReferences": {}
}