{
  "_format": "hh-sol-artifact-1",
  "contractName": "Proposal",
  "sourceName": "contracts/Proposal.sol",
  "abi": [
    {
      "inputs": [
        {
          "internalType": "uint256",
          "name": "_proposalId",
          "type": "uint256"
        },
        {
          "internalType": "address",
          "name": "_proposer",
          "type": "address"
        },
        {
          "internalType": "address",
          "name": "_beneficiary",
          "type": "address"
        },
        {
          "components": [
            {
              "internalType": "string",
              "name": "title",
              "type": "string"
            },
            {
              "internalType": "string",
              "name": "description",
              "type": "string"
            },
            {
              "internalType": "string",
              "name": "location",
              "type": "string"
            },
            {
              "internalType": "enum Proposal.ProjectCategory",
              "name": "category",
              "type": "uint8"
            },
            {
              "internalType": "uint256",
              "name": "requestedAmount",
              "type": "uint256"
            },
            {
              "internalType": "uint256",
              "name": "duration",
              "type": "uint256"
            },
            {
              "internalType": "string",
              "name": "website",
              "type": "string"
            },
            {
              "internalType": "string[]",
              "name": "images",
              "type": "string[]"
            }
          ],
          "internalType": "struct Proposal.ProjectDetails",
          "name": "_projectDetails",
          "type": "tuple"
        },
        {
          "internalType": "uint256",
          "name": "_votingDuration",
          "type": "uint256"
        },
        {
          "internalType": "uint256",
          "name": "_quorumRequired",
          "type": "uint256"
        },
        {
          "internalType": "uint256",
          "name": "_majorityThreshold",
          "type": "uint256"
        }
      ],
      "stateMutability": "nonpayable",
      "type": "constructor"
    },
    {
      "inputs": [
        {
          "internalType": "address",
          "name": "owner",
          "type": "address"
        }
      ],
      "name": "OwnableInvalidOwner",
      "type": "error"
    },
    {
      "inputs": [
        {
          "internalType": "address",
          "name": "account",
          "type": "address"
        }
      ],
      "name": "OwnableUnauthorizedAccount",
      "type": "error"
    },
    {
      "inputs": [],
      "name": "ReentrancyGuardReentrantCall",
      "type": "error"
    },
    {
      "anonymous": false,
      "inputs": [
        {
          "indexed": true,
          "internalType": "uint256",
          "name": "proposalId",
          "type": "uint256"
        },
        {
          "indexed": false,
          "internalType": "uint256",
          "name": "co2Reduction",
          "type": "uint256"
        },
        {
          "indexed": false,
          "internalType": "uint256",
          "name": "energyGeneration",
          "type": "uint256"
        },
        {
          "indexed": false,
          "internalType": "uint256",
          "name": "jobsCreated",
          "type": "uint256"
        },
        {
          "indexed": false,
          "internalType": "uint256",
          "name": "aiScore",
          "type": "uint256"
        }
      ],
      "name": "ImpactMetricsUpdated",
      "type": "event"
    },
    {
      "anonymous": false,
      "inputs": [
        {
          "indexed": true,
          "internalType": "address",
          "name": "previousOwner",
          "type": "address"
        },
        {
          "indexed": true,
          "internalType": "address",
          "name": "newOwner",
          "type": "address"
        }
      ],
      "name": "OwnershipTransferred",
      "type": "event"
    },
    {
      "anonymous": false,
      "inputs": [
        {
          "indexed": true,
          "internalType": "uint256",
          "name": "proposalId",
          "type": "uint256"
        },
        {
          "indexed": true,
          "internalType": "address",
          "name": "proposer",
          "type": "address"
        },
        {
          "indexed": false,
          "internalType": "string",
          "name": "title",
          "type": "string"
        },
        {
          "indexed": false,
          "internalType": "uint256",
          "name": "requestedAmount",
          "type": "uint256"
        }
      ],
      "name": "ProposalCreated",
      "type": "event"
    },
    {
      "anonymous": false,
      "inputs": [
        {
          "indexed": true,
          "internalType": "uint256",
          "name": "proposalId",
          "type": "uint256"
        },
        {
          "indexed": false,
          "internalType": "enum Proposal.ProposalStatus",
          "name": "oldStatus",
          "type": "uint8"
        },
        {
          "indexed": false,
          "internalType": "enum Proposal.ProposalStatus",
          "name": "newStatus",
          "type": "uint8"
        }
      ],
      "name": "ProposalStatusChanged",
      "type": "event"
    },
    {
      "anonymous": false,
      "inputs": [
        {
          "indexed": true,
          "internalType": "address",
          "name": "voter",
          "type": "address"
        },
        {
          "indexed": true,
          "internalType": "uint256",
          "name": "proposalId",
          "type": "uint256"
        },
        {
          "indexed": false,
          "internalType": "uint8",
          "name": "choice",
          "type": "uint8"
        },
        {
          "indexed": false,
          "internalType": "uint256",
          "name": "weight",
          "type": "uint256"
        }
      ],
      "name": "VoteCast",
      "type": "event"
    },
    {
      "inputs": [],
      "name": "beneficiary",
      "outputs": [
        {
          "internalType": "address",
          "name": "",
          "type": "address"
        }
      ],
      "stateMutability": "view",
      "type": "function"
    },
    {
      "inputs": [],
      "name": "cancelProposal",
      "outputs": [],
      "stateMutability": "nonpayable",
      "type": "function"
    },
    {
      "inputs": [
        {
          "internalType": "uint8",
          "name": "choice",
          "type": "uint8"
        },
        {
          "internalType": "uint256",
          "name": "weight",
          "type": "uint256"
        }
      ],
      "name": "castVote",
      "outputs": [],
      "stateMutability": "nonpayable",
      "type": "function"
    },
    {
      "inputs": [],
      "name": "executeProposal",
      "outputs": [],
      "stateMutability": "nonpayable",
      "type": "function"
    },
    {
      "inputs": [
        {
          "internalType": "address",
          "name": "voter",
          "type": "address"
        }
      ],
      "name": "getUserVote",
      "outputs": [
        {
          "internalType": "bool",
          "name": "hasVoted",
          "type": "bool"
        },
        {
          "internalType": "uint8",
          "name": "choice",
          "type": "uint8"
        }
      ],
      "stateMutability": "view",
      "type": "function"
    },
    {
      "inputs": [],
      "name": "getVotingResults",
      "outputs": [
        {
          "internalType": "uint256",
          "name": "forVotes",
          "type": "uint256"
        },
        {
          "internalType": "uint256",
          "name": "againstVotes",
          "type": "uint256"
        },
        {
          "internalType": "uint256",
          "name": "abstainVotes",
          "type": "uint256"
        },
        {
          "internalType": "uint256",
          "name": "totalVotes",
          "type": "uint256"
        }
      ],
      "stateMutability": "view",
      "type": "function"
    },
    {
      "inputs": [],
      "name": "hasPassed",
      "outputs": [
        {
          "internalType": "bool",
          "name": "passed",
          "type": "bool"
        }
      ],
      "stateMutability": "view",
      "type": "function"
    },
    {
      "inputs": [],
      "name": "impactMetrics",
      "outputs": [
        {
          "internalType": "uint256",
          "name": "expectedCO2Reduction",
          "type": "uint256"
        },
        {
          "internalType": "uint256",
          "name": "expectedEnergyGeneration",
          "type": "uint256"
        },
        {
          "internalType": "uint256",
          "name": "expectedJobsCreated",
          "type": "uint256"
        },
        {
          "internalType": "uint256",
          "name": "aiImpactScore",
          "type": "uint256"
        },
        {
          "internalType": "bool",
          "name": "aiAnalysisComplete",
          "type": "bool"
        }
      ],
      "stateMutability": "view",
      "type": "function"
    },
    {
      "inputs": [],
      "name": "majorityThreshold",
      "outputs": [
        {
          "internalType": "uint256",
          "name": "",
          "type": "uint256"
        }
      ],
      "stateMutability": "view",
      "type": "function"
    },
    {
      "inputs": [],
      "name": "markAsExecuted",
      "outputs": [],
      "stateMutability": "nonpayable",
      "type": "function"
    },
    {
      "inputs": [],
      "name": "owner",
      "outputs": [
        {
          "internalType": "address",
          "name": "",
          "type": "address"
        }
      ],
      "stateMutability": "view",
      "type": "function"
    },
    {
      "inputs": [],
      "name": "projectDetails",
      "outputs": [
        {
          "internalType": "string",
          "name": "title",
          "type": "string"
        },
        {
          "internalType": "string",
          "name": "description",
          "type": "string"
        },
        {
          "internalType": "string",
          "name": "location",
          "type": "string"
        },
        {
          "internalType": "enum Proposal.ProjectCategory",
          "name": "category",
          "type": "uint8"
        },
        {
          "internalType": "uint256",
          "name": "requestedAmount",
          "type": "uint256"
        },
        {
          "internalType": "uint256",
          "name": "duration",
          "type": "uint256"
        },
        {
          "internalType": "string",
          "name": "website",
          "type": "string"
        }
      ],
      "stateMutability": "view",
      "type": "function"
    },
    {
      "inputs": [],
      "name": "proposalId",
      "outputs": [
        {
          "internalType": "uint256",
          "name": "",
          "type": "uint256"
        }
      ],
      "stateMutability": "view",
      "type": "function"
    },
    {
      "inputs": [],
      "name": "proposer",
      "outputs": [
        {
          "internalType": "address",
          "name": "",
          "type": "address"
        }
      ],
      "stateMutability": "view",
      "type": "function"
    },
    {
      "inputs": [],
      "name": "quorumRequired",
      "outputs": [
        {
          "internalType": "uint256",
          "name": "",
          "type": "uint256"
        }
      ],
      "stateMutability": "view",
      "type": "function"
    },
    {
      "inputs": [],
      "name": "renounceOwnership",
      "outputs": [],
      "stateMutability": "nonpayable",
      "type": "function"
    },
    {
      "inputs": [],
      "name": "status",
      "outputs": [
        {
          "internalType": "enum Proposal.ProposalStatus",
          "name": "",
          "type": "uint8"
        }
      ],
      "stateMutability": "view",
      "type": "function"
    },
    {
      "inputs": [
        {
          "internalType": "address",
          "name": "newOwner",
          "type": "address"
        }
      ],
      "name": "transferOwnership",
      "outputs": [],
      "stateMutability": "nonpayable",
      "type": "function"
    },
    {
      "inputs": [
        {
          "internalType": "uint256",
          "name": "co2Reduction",
          "type": "uint256"
        },
        {
          "internalType": "uint256",
          "name": "energyGeneration",
          "type": "uint256"
        },
        {
          "internalType": "uint256",
          "name": "jobsCreated",
          "type": "uint256"
        },
        {
          "internalType": "uint256",
          "name": "aiScore",
          "type": "uint256"
        }
      ],
      "name": "updateImpactMetrics",
      "outputs": [],
      "stateMutability": "nonpayable",
      "type": "function"
    },
    {
      "inputs": [],
      "name": "votingData",
      "outputs": [
        {
          "internalType": "uint256",
          "name": "forVotes",
          "type": "uint256"
        },
        {
          "internalType": "uint256",
          "name": "againstVotes",
          "type": "uint256"
        },
        {
          "internalType": "uint256",
          "name": "abstainVotes",
          "type": "uint256"
        },
        {
          "internalType": "uint256",
          "name": "totalVotes",
          "type": "uint256"
        },
        {
          "internalType": "uint256",
          "name": "startTime",
          "type": "uint256"
        },
        {
          "internalType": "uint256",
          "name": "endTime",
          "type": "uint256"
        }
      ],
      "stateMutability": "view",
      "type": "function"
    }
  ],
  "bytecode": "0x60806040523480156200001157600080fd5b5060405162001852380380620018528339810160408190526200003491620004fb565b33806200005b57604051631e4fbdf760e01b81526000600482015260240160405180910390fd5b6200006681620001ee565b5060018055601987905560178054610100600160a81b0319166101006001600160a01b038981169190910291909117909155601880546001600160a01b031916918716919091179055835184906002908190620000c4908262000713565b5060208201516001820190620000db908262000713565b5060408201516002820190620000f2908262000713565b50606082015160038201805460ff19166001836006811115620001195762000119620007df565b02179055506080820151600482015560a0820151600582015560c0820151600682019062000148908262000713565b5060e08201518051620001669160078401916020909101906200023e565b505050601a829055601b81905542600e81905562000186908490620007f5565b600f556017805460ff19169055835160808501516040516001600160a01b038916928a927f98120a6aaa04295520ab4e01c6c1235dd316e822cc9ff31db7b3f197366d18bd92620001d99291906200081d565b60405180910390a3505050505050506200085a565b600080546001600160a01b038381166001600160a01b0319831681178455604051919092169283917f8be0079c531659141344cd1fd0a4f28419497f9722a3daafe3b4186f6b6457e09190a35050565b82805482825590600052602060002090810192821562000289579160200282015b8281111562000289578251829062000278908262000713565b50916020019190600101906200025f565b50620002979291506200029b565b5090565b8082111562000297576000620002b28282620002bc565b506001016200029b565b508054620002ca9062000682565b6000825580601f10620002db575050565b601f016020900490600052602060002090810190620002fb9190620002fe565b50565b5b80821115620002975760008155600101620002ff565b80516001600160a01b03811681146200032d57600080fd5b919050565b634e487b7160e01b600052604160045260246000fd5b60405161010081016001600160401b03811182821017156200036e576200036e62000332565b60405290565b604051601f8201601f191681016001600160401b03811182821017156200039f576200039f62000332565b604052919050565b60005b83811015620003c4578181015183820152602001620003aa565b50506000910152565b600082601f830112620003df57600080fd5b81516001600160401b03811115620003fb57620003fb62000332565b62000410601f8201601f191660200162000374565b8181528460208386010111156200042657600080fd5b62000439826020830160208701620003a7565b949350505050565b8051600781106200032d57600080fd5b600082601f8301126200046357600080fd5b815160206001600160401b038083111562000482576200048262000332565b8260051b6200049383820162000374565b9384528581018301938381019088861115620004ae57600080fd5b84880192505b85831015620004ef57825184811115620004ce5760008081fd5b620004de8a87838c0101620003cd565b8352509184019190840190620004b4565b98975050505050505050565b600080600080600080600060e0888a0312156200051757600080fd5b87519650620005296020890162000315565b9550620005396040890162000315565b60608901519095506001600160401b03808211156200055757600080fd5b90890190610100828c0312156200056d57600080fd5b6200057762000348565b8251828111156200058757600080fd5b620005958d828601620003cd565b825250602083015182811115620005ab57600080fd5b620005b98d828601620003cd565b602083015250604083015182811115620005d257600080fd5b620005e08d828601620003cd565b604083015250620005f46060840162000441565b60608201526080830151608082015260a083015160a082015260c0830151828111156200062057600080fd5b6200062e8d828601620003cd565b60c08301525060e0830151828111156200064757600080fd5b620006558d82860162000451565b60e0830152508096505050506080880151925060a0880151915060c0880151905092959891949750929550565b600181811c908216806200069757607f821691505b602082108103620006b857634e487b7160e01b600052602260045260246000fd5b50919050565b601f8211156200070e576000816000526020600020601f850160051c81016020861015620006e95750805b601f850160051c820191505b818110156200070a57828155600101620006f5565b5050505b505050565b81516001600160401b038111156200072f576200072f62000332565b620007478162000740845462000682565b84620006be565b602080601f8311600181146200077f5760008415620007665750858301515b600019600386901b1c1916600185901b1785556200070a565b600085815260208120601f198616915b82811015620007b0578886015182559484019460019091019084016200078f565b5085821015620007cf5787850151600019600388901b60f8161c191681555b5050505050600190811b01905550565b634e487b7160e01b600052602160045260246000fd5b808201808211156200081757634e487b7160e01b600052601160045260246000fd5b92915050565b60408152600083518060408401526200083e816060850160208801620003a7565b602083019390935250601f91909101601f191601606001919050565b610fe8806200086a6000396000f3fe608060405234801561001057600080fd5b506004361061012c5760003560e01c80638da5cb5b116100ad578063d4923d4e11610071578063d4923d4e146102be578063da4a4e4a14610314578063da650ec61461031d578063f2fde38b14610349578063f9135be91461035c57600080fd5b80638da5cb5b1461023e5780639070577f1461024f578063a8e4fb9014610257578063b99aeb9a1461026f578063cc06d3ce1461027757600080fd5b8063373058b8116100f4578063373058b8146101d657806338af3eed146101e057806342d9a8451461020b5780636eb8f6841461021e578063715018a61461023657600080fd5b8063088868e814610131578063113e20881461014d578063200d2ed2146101985780632accd144146101b25780632dfca445146101cd575b600080fd5b61013a601a5481565b6040519081526020015b60405180910390f35b600a54600b54600c54600d54600e54600f5461016b95949392919086565b604080519687526020870195909552938501929092526060840152608083015260a082015260c001610144565b6017546101a59060ff1681565b6040516101449190610d60565b6101ba61036f565b6040516101449796959493929190610dba565b61013a60195481565b6101de6105c6565b005b6018546101f3906001600160a01b031681565b6040516001600160a01b039091168152602001610144565b6101de610219366004610e37565b610720565b61022661079a565b6040519015158152602001610144565b6101de6107fa565b6000546001600160a01b03166101f3565b6101de61080c565b6017546101f39061010090046001600160a01b031681565b6101de610918565b601254601354601454601554601654610294949392919060ff1685565b6040805195865260208601949094529284019190915260608301521515608082015260a001610144565b6102fb6102cc366004610e69565b6001600160a01b031660009081526010602090815260408083205460119092529091205460ff91821692911690565b60408051921515835260ff909116602083015201610144565b61013a601b5481565b600a54600b54600c54600d54604080519485526020850193909352918301526060820152608001610144565b6101de610357366004610e69565b6109de565b6101de61036a366004610e99565b610a1c565b60028054819061037e90610ecb565b80601f01602080910402602001604051908101604052809291908181526020018280546103aa90610ecb565b80156103f75780601f106103cc576101008083540402835291602001916103f7565b820191906000526020600020905b8154815290600101906020018083116103da57829003601f168201915b50505050509080600101805461040c90610ecb565b80601f016020809104026020016040519081016040528092919081815260200182805461043890610ecb565b80156104855780601f1061045a57610100808354040283529160200191610485565b820191906000526020600020905b81548152906001019060200180831161046857829003601f168201915b50505050509080600201805461049a90610ecb565b80601f01602080910402602001604051908101604052809291908181526020018280546104c690610ecb565b80156105135780601f106104e857610100808354040283529160200191610513565b820191906000526020600020905b8154815290600101906020018083116104f657829003601f168201915b505050600384015460048501546005860154600687018054969760ff909416969295509093509061054390610ecb565b80601f016020809104026020016040519081016040528092919081815260200182805461056f90610ecb565b80156105bc5780601f10610591576101008083540402835291602001916105bc565b820191906000526020600020905b81548152906001019060200180831161059f57829003601f168201915b5050505050905087565b600f54421161061c5760405162461bcd60e51b815260206004820152601b60248201527f566f74696e6720706572696f6420686173206e6f7420656e646564000000000060448201526064015b60405180910390fd5b610624610c8f565b600060175460ff16600481111561063d5761063d610d36565b1461065a5760405162461bcd60e51b815260040161061390610f05565b6000601a54600a600301541015610673575060026106af565b601b54600b54600a546106869190610f4b565b600a54610694906064610f5e565b61069e9190610f75565b106106ab575060016106af565b5060025b6017805460ff811691839160ff191660018360048111156106d2576106d2610d36565b02179055506019547fb0978968e606225988b6464f99ce7e86b0e8770d80eaec1369bb3780e05c6438828460405161070b929190610f97565b60405180910390a2505061071e60018055565b565b610728610cb9565b60128490556013839055601482905560158190556016805460ff191660011790556019546040805186815260208101869052908101849052606081018390527ff4f4153c1a7414f5c2d83d2d51c3a0077754652f7dae460b37f2b0fa705a72079060800160405180910390a250505050565b6000601a54600a6003015410156107b15750600090565b600b54600a546000916107c391610f4b565b9050806000036107d557600091505090565b601b54600a5482906107e8906064610f5e565b6107f29190610f75565b101591505090565b610802610cb9565b61071e6000610ce6565b60175461010090046001600160a01b031633148061083457506000546001600160a01b031633145b61088a5760405162461bcd60e51b815260206004820152602160248201527f4f6e6c792070726f706f736572206f72206f776e65722063616e2063616e63656044820152601b60fa1b6064820152608401610613565b600060175460ff1660048111156108a3576108a3610d36565b146108c05760405162461bcd60e51b815260040161061390610f05565b6017805460ff81169160049160ff191660018302179055506019547fb0978968e606225988b6464f99ce7e86b0e8770d80eaec1369bb3780e05c643882600460405161090d929190610f97565b60405180910390a250565b610920610cb9565b600160175460ff16600481111561093957610939610d36565b146109915760405162461bcd60e51b815260206004820152602260248201527f50726f706f73616c206d7573742062652070617373656420746f206578656375604482015261746560f01b6064820152608401610613565b6017805460ff81169160039160ff191660018302179055506019547fb0978968e606225988b6464f99ce7e86b0e8770d80eaec1369bb3780e05c643882600360405161090d929190610f97565b6109e6610cb9565b6001600160a01b038116610a1057604051631e4fbdf760e01b815260006004820152602401610613565b610a1981610ce6565b50565b600060175460ff166004811115610a3557610a35610d36565b14610a525760405162461bcd60e51b815260040161061390610f05565b60028260ff161115610a9c5760405162461bcd60e51b8152602060048201526013602482015272496e76616c696420766f74652063686f69636560681b6044820152606401610613565b3360009081526010602052604090205460ff1615610aec5760405162461bcd60e51b815260206004820152600d60248201526c105b1c9958591e481d9bdd1959609a1b6044820152606401610613565b600f54421115610b3e5760405162461bcd60e51b815260206004820152601760248201527f566f74696e6720706572696f642068617320656e6465640000000000000000006044820152606401610613565b60008111610b9a5760405162461bcd60e51b8152602060048201526024808201527f566f74696e6720776569676874206d75737420626520677265617465722074686044820152630616e20360e41b6064820152608401610613565b3360009081526010602090815260408083208054600160ff199182161790915560119092528220805490911660ff8516179055600d8054839290610bdf908490610f4b565b909155505060ff8216600103610c0f5780600a6000016000828254610c049190610f4b565b90915550610c4a9050565b8160ff16600003610c2f5780600a6001016000828254610c049190610f4b565b80600a6002016000828254610c449190610f4b565b90915550505b6019546040805160ff851681526020810184905233917f2c9deb38f462962eadbd85a9d3a4120503ee091f1582eaaa10aa8c6797651d29910160405180910390a35050565b600260015403610cb257604051633ee5aeb560e01b815260040160405180910390fd5b6002600155565b6000546001600160a01b0316331461071e5760405163118cdaa760e01b8152336004820152602401610613565b600080546001600160a01b038381166001600160a01b0319831681178455604051919092169283917f8be0079c531659141344cd1fd0a4f28419497f9722a3daafe3b4186f6b6457e09190a35050565b634e487b7160e01b600052602160045260246000fd5b60058110610d5c57610d5c610d36565b9052565b60208101610d6e8284610d4c565b92915050565b6000815180845260005b81811015610d9a57602081850181015186830182015201610d7e565b506000602082860101526020601f19601f83011685010191505092915050565b60e081526000610dcd60e083018a610d74565b8281036020840152610ddf818a610d74565b90508281036040840152610df38189610d74565b905060078710610e0557610e05610d36565b8660608401528560808401528460a084015282810360c0840152610e298185610d74565b9a9950505050505050505050565b60008060008060808587031215610e4d57600080fd5b5050823594602084013594506040840135936060013592509050565b600060208284031215610e7b57600080fd5b81356001600160a01b0381168114610e9257600080fd5b9392505050565b60008060408385031215610eac57600080fd5b823560ff81168114610ebd57600080fd5b946020939093013593505050565b600181811c90821680610edf57607f821691505b602082108103610eff57634e487b7160e01b600052602260045260246000fd5b50919050565b60208082526016908201527550726f706f73616c206973206e6f742061637469766560501b604082015260600190565b634e487b7160e01b600052601160045260246000fd5b80820180821115610d6e57610d6e610f35565b8082028115828204841417610d6e57610d6e610f35565b600082610f9257634e487b7160e01b600052601260045260246000fd5b500490565b60408101610fa58285610d4c565b610e926020830184610d4c56fea264697066735822122046840e9b2bd291f17c0e0d74bf434d8095781a786ba01930e24d0ad0ace121e164736f6c63430008180033",
  "linkReferences": {},
  "deployedLinkReferences": {}
}