{
  "_format": "hh-sol-artifact-1",
  "contractName": "Proposal",
  "sourceName": "contracts/Proposal.sol",
  "abi": [
    {
      "inputs": [
        {
          "internalType": "uint256",
          "name": "_proposalId",
          "type": "uint256"
        },
        {
          "internalType": "address",
          "name": "_proposer",
          "type": "address"
        },
        {
          "internalType": "address",
          "name": "_beneficiary",
          "type": "address"
        },
        {
          "components": [
            {
              "internalType": "string",
              "name": "title",
              "type": "string"
            },
            {
              "internalType": "string",
              "name": "description",
              "type": "string"
            },
            {
              "internalType": "string",
              "name": "location",
              "type": "string"
            },
            {
              "internalType": "enum Proposal.ProjectCategory",
              "name": "category",
              "type": "uint8"
            },
            {
              "internalType": "uint256",
              "name": "requestedAmount",
              "type": "uint256"
            },
            {
              "internalType": "uint256",
              "name": "duration",
              "type": "uint256"
            },
            {
              "internalType": "string",
              "name": "website",
              "type": "string"
            },
            {
              "internalType": "string[]",
              "name": "images",
              "type": "string[]"
            }
          ],
          "internalType": "struct Proposal.ProjectDetails",
          "name": "_projectDetails",
          "type": "tuple"
        },
        {
          "internalType": "uint256",
          "name": "_votingDuration",
          "type": "uint256"
        },
        {
          "internalType": "uint256",
          "name": "_quorumRequired",
          "type": "uint256"
        },
        {
          "internalType": "uint256",
          "name": "_majorityThreshold",
          "type": "uint256"
        },
        {
          "internalType": "address",
          "name": "_climateTokenAddress",
          "type": "address"
        }
      ],
      "stateMutability": "nonpayable",
      "type": "constructor"
    },
    {
      "inputs": [
        {
          "internalType": "address",
          "name": "owner",
          "type": "address"
        }
      ],
      "name": "OwnableInvalidOwner",
      "type": "error"
    },
    {
      "inputs": [
        {
          "internalType": "address",
          "name": "account",
          "type": "address"
        }
      ],
      "name": "OwnableUnauthorizedAccount",
      "type": "error"
    },
    {
      "inputs": [],
      "name": "ReentrancyGuardReentrantCall",
      "type": "error"
    },
    {
      "anonymous": false,
      "inputs": [
        {
          "indexed": true,
          "internalType": "uint256",
          "name": "proposalId",
          "type": "uint256"
        },
        {
          "indexed": false,
          "internalType": "uint256",
          "name": "co2Reduction",
          "type": "uint256"
        },
        {
          "indexed": false,
          "internalType": "uint256",
          "name": "energyGeneration",
          "type": "uint256"
        },
        {
          "indexed": false,
          "internalType": "uint256",
          "name": "jobsCreated",
          "type": "uint256"
        },
        {
          "indexed": false,
          "internalType": "uint256",
          "name": "aiScore",
          "type": "uint256"
        }
      ],
      "name": "ImpactMetricsUpdated",
      "type": "event"
    },
    {
      "anonymous": false,
      "inputs": [
        {
          "indexed": true,
          "internalType": "address",
          "name": "previousOwner",
          "type": "address"
        },
        {
          "indexed": true,
          "internalType": "address",
          "name": "newOwner",
          "type": "address"
        }
      ],
      "name": "OwnershipTransferred",
      "type": "event"
    },
    {
      "anonymous": false,
      "inputs": [
        {
          "indexed": true,
          "internalType": "uint256",
          "name": "proposalId",
          "type": "uint256"
        },
        {
          "indexed": true,
          "internalType": "address",
          "name": "proposer",
          "type": "address"
        },
        {
          "indexed": false,
          "internalType": "string",
          "name": "title",
          "type": "string"
        },
        {
          "indexed": false,
          "internalType": "uint256",
          "name": "requestedAmount",
          "type": "uint256"
        }
      ],
      "name": "ProposalCreated",
      "type": "event"
    },
    {
      "anonymous": false,
      "inputs": [
        {
          "indexed": true,
          "internalType": "uint256",
          "name": "proposalId",
          "type": "uint256"
        },
        {
          "indexed": false,
          "internalType": "enum Proposal.ProposalStatus",
          "name": "oldStatus",
          "type": "uint8"
        },
        {
          "indexed": false,
          "internalType": "enum Proposal.ProposalStatus",
          "name": "newStatus",
          "type": "uint8"
        }
      ],
      "name": "ProposalStatusChanged",
      "type": "event"
    },
    {
      "anonymous": false,
      "inputs": [
        {
          "indexed": true,
          "internalType": "address",
          "name": "voter",
          "type": "address"
        },
        {
          "indexed": true,
          "internalType": "uint256",
          "name": "proposalId",
          "type": "uint256"
        },
        {
          "indexed": false,
          "internalType": "uint8",
          "name": "choice",
          "type": "uint8"
        },
        {
          "indexed": false,
          "internalType": "uint256",
          "name": "weight",
          "type": "uint256"
        }
      ],
      "name": "VoteCast",
      "type": "event"
    },
    {
      "inputs": [],
      "name": "beneficiary",
      "outputs": [
        {
          "internalType": "address",
          "name": "",
          "type": "address"
        }
      ],
      "stateMutability": "view",
      "type": "function"
    },
    {
      "inputs": [],
      "name": "cancelProposal",
      "outputs": [],
      "stateMutability": "nonpayable",
      "type": "function"
    },
    {
      "inputs": [
        {
          "internalType": "uint8",
          "name": "choice",
          "type": "uint8"
        }
      ],
      "name": "castVote",
      "outputs": [],
      "stateMutability": "nonpayable",
      "type": "function"
    },
    {
      "inputs": [],
      "name": "climateTokenAddress",
      "outputs": [
        {
          "internalType": "address",
          "name": "",
          "type": "address"
        }
      ],
      "stateMutability": "view",
      "type": "function"
    },
    {
      "inputs": [],
      "name": "executeProposal",
      "outputs": [],
      "stateMutability": "nonpayable",
      "type": "function"
    },
    {
      "inputs": [
        {
          "internalType": "address",
          "name": "voter",
          "type": "address"
        }
      ],
      "name": "getUserVote",
      "outputs": [
        {
          "internalType": "bool",
          "name": "hasVoted",
          "type": "bool"
        },
        {
          "internalType": "uint8",
          "name": "choice",
          "type": "uint8"
        }
      ],
      "stateMutability": "view",
      "type": "function"
    },
    {
      "inputs": [],
      "name": "getVotingResults",
      "outputs": [
        {
          "internalType": "uint256",
          "name": "forVotes",
          "type": "uint256"
        },
        {
          "internalType": "uint256",
          "name": "againstVotes",
          "type": "uint256"
        },
        {
          "internalType": "uint256",
          "name": "abstainVotes",
          "type": "uint256"
        },
        {
          "internalType": "uint256",
          "name": "totalVotes",
          "type": "uint256"
        }
      ],
      "stateMutability": "view",
      "type": "function"
    },
    {
      "inputs": [],
      "name": "hasPassed",
      "outputs": [
        {
          "internalType": "bool",
          "name": "passed",
          "type": "bool"
        }
      ],
      "stateMutability": "view",
      "type": "function"
    },
    {
      "inputs": [],
      "name": "impactMetrics",
      "outputs": [
        {
          "internalType": "uint256",
          "name": "expectedCO2Reduction",
          "type": "uint256"
        },
        {
          "internalType": "uint256",
          "name": "expectedEnergyGeneration",
          "type": "uint256"
        },
        {
          "internalType": "uint256",
          "name": "expectedJobsCreated",
          "type": "uint256"
        },
        {
          "internalType": "uint256",
          "name": "aiImpactScore",
          "type": "uint256"
        },
        {
          "internalType": "bool",
          "name": "aiAnalysisComplete",
          "type": "bool"
        }
      ],
      "stateMutability": "view",
      "type": "function"
    },
    {
      "inputs": [],
      "name": "majorityThreshold",
      "outputs": [
        {
          "internalType": "uint256",
          "name": "",
          "type": "uint256"
        }
      ],
      "stateMutability": "view",
      "type": "function"
    },
    {
      "inputs": [],
      "name": "markAsExecuted",
      "outputs": [],
      "stateMutability": "nonpayable",
      "type": "function"
    },
    {
      "inputs": [],
      "name": "owner",
      "outputs": [
        {
          "internalType": "address",
          "name": "",
          "type": "address"
        }
      ],
      "stateMutability": "view",
      "type": "function"
    },
    {
      "inputs": [],
      "name": "projectDetails",
      "outputs": [
        {
          "internalType": "string",
          "name": "title",
          "type": "string"
        },
        {
          "internalType": "string",
          "name": "description",
          "type": "string"
        },
        {
          "internalType": "string",
          "name": "location",
          "type": "string"
        },
        {
          "internalType": "enum Proposal.ProjectCategory",
          "name": "category",
          "type": "uint8"
        },
        {
          "internalType": "uint256",
          "name": "requestedAmount",
          "type": "uint256"
        },
        {
          "internalType": "uint256",
          "name": "duration",
          "type": "uint256"
        },
        {
          "internalType": "string",
          "name": "website",
          "type": "string"
        }
      ],
      "stateMutability": "view",
      "type": "function"
    },
    {
      "inputs": [],
      "name": "proposalId",
      "outputs": [
        {
          "internalType": "uint256",
          "name": "",
          "type": "uint256"
        }
      ],
      "stateMutability": "view",
      "type": "function"
    },
    {
      "inputs": [],
      "name": "proposer",
      "outputs": [
        {
          "internalType": "address",
          "name": "",
          "type": "address"
        }
      ],
      "stateMutability": "view",
      "type": "function"
    },
    {
      "inputs": [],
      "name": "quorumRequired",
      "outputs": [
        {
          "internalType": "uint256",
          "name": "",
          "type": "uint256"
        }
      ],
      "stateMutability": "view",
      "type": "function"
    },
    {
      "inputs": [],
      "name": "renounceOwnership",
      "outputs": [],
      "stateMutability": "nonpayable",
      "type": "function"
    },
    {
      "inputs": [],
      "name": "status",
      "outputs": [
        {
          "internalType": "enum Proposal.ProposalStatus",
          "name": "",
          "type": "uint8"
        }
      ],
      "stateMutability": "view",
      "type": "function"
    },
    {
      "inputs": [
        {
          "internalType": "address",
          "name": "newOwner",
          "type": "address"
        }
      ],
      "name": "transferOwnership",
      "outputs": [],
      "stateMutability": "nonpayable",
      "type": "function"
    },
    {
      "inputs": [
        {
          "internalType": "uint256",
          "name": "co2Reduction",
          "type": "uint256"
        },
        {
          "internalType": "uint256",
          "name": "energyGeneration",
          "type": "uint256"
        },
        {
          "internalType": "uint256",
          "name": "jobsCreated",
          "type": "uint256"
        },
        {
          "internalType": "uint256",
          "name": "aiScore",
          "type": "uint256"
        }
      ],
      "name": "updateImpactMetrics",
      "outputs": [],
      "stateMutability": "nonpayable",
      "type": "function"
    },
    {
      "inputs": [],
      "name": "votingData",
      "outputs": [
        {
          "internalType": "uint256",
          "name": "forVotes",
          "type": "uint256"
        },
        {
          "internalType": "uint256",
          "name": "againstVotes",
          "type": "uint256"
        },
        {
          "internalType": "uint256",
          "name": "abstainVotes",
          "type": "uint256"
        },
        {
          "internalType": "uint256",
          "name": "totalVotes",
          "type": "uint256"
        },
        {
          "internalType": "uint256",
          "name": "startTime",
          "type": "uint256"
        },
        {
          "internalType": "uint256",
          "name": "endTime",
          "type": "uint256"
        }
      ],
      "stateMutability": "view",
      "type": "function"
    }
  ],
  "bytecode": "0x60806040523480156200001157600080fd5b506040516200192e3803806200192e833981016040819052620000349162000517565b33806200005b57604051631e4fbdf760e01b81526000600482015260240160405180910390fd5b62000066816200020a565b5060018055601a88905560188054610100600160a81b0319166101006001600160a01b038a81169190910291909117909155601980546001600160a01b031916918816919091179055845185906003908190620000c4908262000744565b5060208201516001820190620000db908262000744565b5060408201516002820190620000f2908262000744565b50606082015160038201805460ff1916600183600681111562000119576200011962000810565b02179055506080820151600482015560a0820151600582015560c0820151600682019062000148908262000744565b5060e08201518051620001669160078401916020909101906200025a565b505050601b839055601c829055600280546001600160a01b0319166001600160a01b03831617905542600f819055620001a190859062000826565b6010556018805460ff19169055845160808601516040516001600160a01b038a16928b927f98120a6aaa04295520ab4e01c6c1235dd316e822cc9ff31db7b3f197366d18bd92620001f49291906200084e565b60405180910390a350505050505050506200088b565b600080546001600160a01b038381166001600160a01b0319831681178455604051919092169283917f8be0079c531659141344cd1fd0a4f28419497f9722a3daafe3b4186f6b6457e09190a35050565b828054828255906000526020600020908101928215620002a5579160200282015b82811115620002a5578251829062000294908262000744565b50916020019190600101906200027b565b50620002b3929150620002b7565b5090565b80821115620002b3576000620002ce8282620002d8565b50600101620002b7565b508054620002e690620006b3565b6000825580601f10620002f7575050565b601f0160209004906000526020600020908101906200031791906200031a565b50565b5b80821115620002b357600081556001016200031b565b80516001600160a01b03811681146200034957600080fd5b919050565b634e487b7160e01b600052604160045260246000fd5b60405161010081016001600160401b03811182821017156200038a576200038a6200034e565b60405290565b604051601f8201601f191681016001600160401b0381118282101715620003bb57620003bb6200034e565b604052919050565b60005b83811015620003e0578181015183820152602001620003c6565b50506000910152565b600082601f830112620003fb57600080fd5b81516001600160401b038111156200041757620004176200034e565b6200042c601f8201601f191660200162000390565b8181528460208386010111156200044257600080fd5b62000455826020830160208701620003c3565b949350505050565b8051600781106200034957600080fd5b600082601f8301126200047f57600080fd5b815160206001600160401b03808311156200049e576200049e6200034e565b8260051b620004af83820162000390565b9384528581018301938381019088861115620004ca57600080fd5b84880192505b858310156200050b57825184811115620004ea5760008081fd5b620004fa8a87838c0101620003e9565b8352509184019190840190620004d0565b98975050505050505050565b600080600080600080600080610100808a8c0312156200053657600080fd5b895198506200054860208b0162000331565b97506200055860408b0162000331565b60608b01519097506001600160401b03808211156200057657600080fd5b818c01915082828e0312156200058b57600080fd5b6200059562000364565b9250815181811115620005a757600080fd5b620005b58e828501620003e9565b845250602082015181811115620005cb57600080fd5b620005d98e828501620003e9565b602085015250604082015181811115620005f257600080fd5b620006008e828501620003e9565b60408501525062000614606083016200045d565b60608401526080820151608084015260a082015160a084015260c0820151818111156200064057600080fd5b6200064e8e828501620003e9565b60c08501525060e0820151818111156200066757600080fd5b620006758e8285016200046d565b60e0850152505050809550506080890151935060a0890151925060c08901519150620006a460e08a0162000331565b90509295985092959890939650565b600181811c90821680620006c857607f821691505b602082108103620006e957634e487b7160e01b600052602260045260246000fd5b50919050565b601f8211156200073f576000816000526020600020601f850160051c810160208610156200071a5750805b601f850160051c820191505b818110156200073b5782815560010162000726565b5050505b505050565b81516001600160401b038111156200076057620007606200034e565b6200077881620007718454620006b3565b84620006ef565b602080601f831160018114620007b05760008415620007975750858301515b600019600386901b1c1916600185901b1785556200073b565b600085815260208120601f198616915b82811015620007e157888601518255948401946001909101908401620007c0565b5085821015620008005787850151600019600388901b60f8161c191681555b5050505050600190811b01905550565b634e487b7160e01b600052602160045260246000fd5b808201808211156200084857634e487b7160e01b600052601160045260246000fd5b92915050565b60408152600083518060408401526200086f816060850160208801620003c3565b602083019390935250601f91909101601f191601606001919050565b611093806200089b6000396000f3fe608060405234801561001057600080fd5b50600436106101375760003560e01c8063715018a6116100b8578063b99aeb9a1161007c578063b99aeb9a146102a0578063cc06d3ce146102a8578063d4923d4e146102ef578063da4a4e4a14610345578063da650ec61461034e578063f2fde38b1461037a57600080fd5b8063715018a6146102545780638da5cb5b1461025c5780639070577f1461026d57806394a1354114610275578063a8e4fb901461028857600080fd5b8063373058b8116100ff578063373058b8146101e157806338af3eed146101eb57806342d9a84514610216578063683d2198146102295780636eb8f6841461023c57600080fd5b8063088868e81461013c578063113e208814610158578063200d2ed2146101a35780632accd144146101bd5780632dfca445146101d8575b600080fd5b610145601b5481565b6040519081526020015b60405180910390f35b600b54600c54600d54600e54600f5460105461017695949392919086565b604080519687526020870195909552938501929092526060840152608083015260a082015260c00161014f565b6018546101b09060ff1681565b60405161014f9190610e01565b6101c561038d565b60405161014f9796959493929190610e5b565b610145601a5481565b6101e96105e4565b005b6019546101fe906001600160a01b031681565b6040516001600160a01b03909116815260200161014f565b6101e9610224366004610ed8565b610759565b6002546101fe906001600160a01b031681565b6102446107d3565b604051901515815260200161014f565b6101e9610833565b6000546001600160a01b03166101fe565b6101e9610845565b6101e9610283366004610f0a565b610951565b6018546101fe9061010090046001600160a01b031681565b6101e9610c2c565b6013546014546015546016546017546102c5949392919060ff1685565b6040805195865260208601949094529284019190915260608301521515608082015260a00161014f565b61032c6102fd366004610f34565b6001600160a01b031660009081526011602090815260408083205460129092529091205460ff91821692911690565b60408051921515835260ff90911660208301520161014f565b610145601c5481565b600b54600c54600d54600e5460408051948552602085019390935291830152606082015260800161014f565b6101e9610388366004610f34565b610cf2565b60038054819061039c90610f5d565b80601f01602080910402602001604051908101604052809291908181526020018280546103c890610f5d565b80156104155780601f106103ea57610100808354040283529160200191610415565b820191906000526020600020905b8154815290600101906020018083116103f857829003601f168201915b50505050509080600101805461042a90610f5d565b80601f016020809104026020016040519081016040528092919081815260200182805461045690610f5d565b80156104a35780601f10610478576101008083540402835291602001916104a3565b820191906000526020600020905b81548152906001019060200180831161048657829003601f168201915b5050505050908060020180546104b890610f5d565b80601f01602080910402602001604051908101604052809291908181526020018280546104e490610f5d565b80156105315780601f1061050657610100808354040283529160200191610531565b820191906000526020600020905b81548152906001019060200180831161051457829003601f168201915b505050600384015460048501546005860154600687018054969760ff909416969295509093509061056190610f5d565b80601f016020809104026020016040519081016040528092919081815260200182805461058d90610f5d565b80156105da5780601f106105af576101008083540402835291602001916105da565b820191906000526020600020905b8154815290600101906020018083116105bd57829003601f168201915b5050505050905087565b601054421161063a5760405162461bcd60e51b815260206004820152601b60248201527f566f74696e6720706572696f6420686173206e6f7420656e646564000000000060448201526064015b60405180910390fd5b610642610d30565b600060185460ff16600481111561065b5761065b610dd7565b146106785760405162461bcd60e51b815260040161063190610f97565b6000601b54600b600301541015610691575060026106e8565b600c54600b546000916106a391610fdd565b9050806000036106b657600291506106e6565b601c54600b5482906106c9906064610ff0565b6106d39190611007565b106106e157600191506106e6565b600291505b505b6018805460ff811691839160ff1916600183600481111561070b5761070b610dd7565b0217905550601a547fb0978968e606225988b6464f99ce7e86b0e8770d80eaec1369bb3780e05c64388284604051610744929190611029565b60405180910390a2505061075760018055565b565b610761610d5a565b60138490556014839055601582905560168190556017805460ff19166001179055601a546040805186815260208101869052908101849052606081018390527ff4f4153c1a7414f5c2d83d2d51c3a0077754652f7dae460b37f2b0fa705a72079060800160405180910390a250505050565b6000601b54600b6003015410156107ea5750600090565b600c54600b546000916107fc91610fdd565b90508060000361080e57600091505090565b601c54600b548290610821906064610ff0565b61082b9190611007565b101591505090565b61083b610d5a565b6107576000610d87565b60185461010090046001600160a01b031633148061086d57506000546001600160a01b031633145b6108c35760405162461bcd60e51b815260206004820152602160248201527f4f6e6c792070726f706f736572206f72206f776e65722063616e2063616e63656044820152601b60fa1b6064820152608401610631565b600060185460ff1660048111156108dc576108dc610dd7565b146108f95760405162461bcd60e51b815260040161063190610f97565b6018805460ff81169160049160ff19166001830217905550601a547fb0978968e606225988b6464f99ce7e86b0e8770d80eaec1369bb3780e05c6438826004604051610946929190611029565b60405180910390a250565b600060185460ff16600481111561096a5761096a610dd7565b146109875760405162461bcd60e51b815260040161063190610f97565b60028160ff1611156109d15760405162461bcd60e51b8152602060048201526013602482015272496e76616c696420766f74652063686f69636560681b6044820152606401610631565b3360009081526011602052604090205460ff1615610a215760405162461bcd60e51b815260206004820152600d60248201526c105b1c9958591e481d9bdd1959609a1b6044820152606401610631565b601054421115610a735760405162461bcd60e51b815260206004820152601760248201527f566f74696e6720706572696f642068617320656e6465640000000000000000006044820152606401610631565b6002546040516370a0823160e01b81523360048201526001600160a01b039091169060009082906370a0823190602401602060405180830381865afa158015610ac0573d6000803e3d6000fd5b505050506040513d601f19601f82011682018060405250810190610ae49190611044565b905060008111610b365760405162461bcd60e51b815260206004820152601960248201527f4e6f20766f74696e6720706f77657220617661696c61626c65000000000000006044820152606401610631565b3360009081526011602090815260408083208054600160ff199182161790915560129092528220805490911660ff8616179055600e8054839290610b7b908490610fdd565b909155505060ff8316600103610bab5780600b6000016000828254610ba09190610fdd565b90915550610be69050565b8260ff16600003610bcb5780600b6001016000828254610ba09190610fdd565b80600b6002016000828254610be09190610fdd565b90915550505b601a546040805160ff861681526020810184905233917f2c9deb38f462962eadbd85a9d3a4120503ee091f1582eaaa10aa8c6797651d29910160405180910390a3505050565b610c34610d5a565b600160185460ff166004811115610c4d57610c4d610dd7565b14610ca55760405162461bcd60e51b815260206004820152602260248201527f50726f706f73616c206d7573742062652070617373656420746f206578656375604482015261746560f01b6064820152608401610631565b6018805460ff81169160039160ff19166001830217905550601a547fb0978968e606225988b6464f99ce7e86b0e8770d80eaec1369bb3780e05c6438826003604051610946929190611029565b610cfa610d5a565b6001600160a01b038116610d2457604051631e4fbdf760e01b815260006004820152602401610631565b610d2d81610d87565b50565b600260015403610d5357604051633ee5aeb560e01b815260040160405180910390fd5b6002600155565b6000546001600160a01b031633146107575760405163118cdaa760e01b8152336004820152602401610631565b600080546001600160a01b038381166001600160a01b0319831681178455604051919092169283917f8be0079c531659141344cd1fd0a4f28419497f9722a3daafe3b4186f6b6457e09190a35050565b634e487b7160e01b600052602160045260246000fd5b60058110610dfd57610dfd610dd7565b9052565b60208101610e0f8284610ded565b92915050565b6000815180845260005b81811015610e3b57602081850181015186830182015201610e1f565b506000602082860101526020601f19601f83011685010191505092915050565b60e081526000610e6e60e083018a610e15565b8281036020840152610e80818a610e15565b90508281036040840152610e948189610e15565b905060078710610ea657610ea6610dd7565b8660608401528560808401528460a084015282810360c0840152610eca8185610e15565b9a9950505050505050505050565b60008060008060808587031215610eee57600080fd5b5050823594602084013594506040840135936060013592509050565b600060208284031215610f1c57600080fd5b813560ff81168114610f2d57600080fd5b9392505050565b600060208284031215610f4657600080fd5b81356001600160a01b0381168114610f2d57600080fd5b600181811c90821680610f7157607f821691505b602082108103610f9157634e487b7160e01b600052602260045260246000fd5b50919050565b60208082526016908201527550726f706f73616c206973206e6f742061637469766560501b604082015260600190565b634e487b7160e01b600052601160045260246000fd5b80820180821115610e0f57610e0f610fc7565b8082028115828204841417610e0f57610e0f610fc7565b60008261102457634e487b7160e01b600052601260045260246000fd5b500490565b604081016110378285610ded565b610f2d6020830184610ded565b60006020828403121561105657600080fd5b505191905056fea2646970667358221220c94f64fc21a8257db583f22de75d22a016f051648e224241a270957e95db8e8c64736f6c63430008180033",
  "linkReferences": {},
  "deployedLinkReferences": {}
}